{
  "_format": "hh-sol-artifact-1",
  "contractName": "PatchBridge",
  "sourceName": "src/PatchPurchaseChainlink.sol",
  "abi": [
    {
      "inputs": [
        {
          "internalType": "address",
          "name": "chainlinkToken",
          "type": "address"
        },
        {
          "internalType": "address",
          "name": "chainlinkOracle",
          "type": "address"
        }
      ],
      "stateMutability": "nonpayable",
      "type": "constructor"
    },
    {
      "anonymous": false,
      "inputs": [
        {
          "indexed": true,
          "internalType": "bytes32",
          "name": "id",
          "type": "bytes32"
        }
      ],
      "name": "ChainlinkCancelled",
      "type": "event"
    },
    {
      "anonymous": false,
      "inputs": [
        {
          "indexed": true,
          "internalType": "bytes32",
          "name": "id",
          "type": "bytes32"
        }
      ],
      "name": "ChainlinkFulfilled",
      "type": "event"
    },
    {
      "anonymous": false,
      "inputs": [
        {
          "indexed": true,
          "internalType": "bytes32",
          "name": "id",
          "type": "bytes32"
        }
      ],
      "name": "ChainlinkRequested",
      "type": "event"
    },
    {
      "anonymous": false,
      "inputs": [
        {
          "indexed": false,
          "internalType": "uint256",
          "name": "price",
          "type": "uint256"
        },
        {
          "indexed": false,
          "internalType": "string",
          "name": "patchProjectId",
          "type": "string"
        }
      ],
      "name": "PreparingPurchase",
      "type": "event"
    },
    {
      "anonymous": false,
      "inputs": [
        {
          "indexed": true,
          "internalType": "bytes32",
          "name": "requestId",
          "type": "bytes32"
        },
        {
          "indexed": true,
          "internalType": "string",
          "name": "tokenURI",
          "type": "string"
        },
        {
          "indexed": false,
          "internalType": "uint256",
          "name": "mass_g",
          "type": "uint256"
        },
        {
          "indexed": true,
          "internalType": "string",
          "name": "project",
          "type": "string"
        }
      ],
      "name": "PurchaseFulfilled",
      "type": "event"
    },
    {
      "inputs": [
        {
          "internalType": "address",
          "name": "owner",
          "type": "address"
        },
        {
          "internalType": "uint256",
          "name": "projectId",
          "type": "uint256"
        }
      ],
      "name": "balanceOf",
      "outputs": [
        {
          "internalType": "uint256",
          "name": "balance",
          "type": "uint256"
        }
      ],
      "stateMutability": "view",
      "type": "function"
    },
    {
      "inputs": [
        {
          "internalType": "address",
          "name": "owner",
          "type": "address"
        },
        {
          "internalType": "string",
          "name": "project",
          "type": "string"
        }
      ],
      "name": "balanceOf",
      "outputs": [
        {
          "internalType": "uint256",
          "name": "balance",
          "type": "uint256"
        }
      ],
      "stateMutability": "view",
      "type": "function"
    },
    {
      "inputs": [],
      "name": "count",
      "outputs": [
        {
          "internalType": "uint256",
          "name": "",
          "type": "uint256"
        }
      ],
      "stateMutability": "view",
      "type": "function"
    },
    {
      "inputs": [
        {
          "internalType": "uint256",
          "name": "priceInPenny",
          "type": "uint256"
        },
        {
          "internalType": "string",
          "name": "patchProjectId",
          "type": "string"
        }
      ],
      "name": "executeBuy",
      "outputs": [],
      "stateMutability": "nonpayable",
      "type": "function"
    },
    {
      "inputs": [
        {
          "internalType": "bytes32",
          "name": "requestId",
          "type": "bytes32"
        },
        {
          "internalType": "string",
          "name": "tokenURI",
          "type": "string"
        },
        {
          "internalType": "uint256",
          "name": "mass_g",
          "type": "uint256"
        },
        {
          "internalType": "string",
          "name": "project",
          "type": "string"
        }
      ],
      "name": "fulfillBytes",
      "outputs": [],
      "stateMutability": "nonpayable",
      "type": "function"
    },
    {
      "inputs": [
        {
          "internalType": "string",
          "name": "project",
          "type": "string"
        },
        {
          "internalType": "string",
          "name": "symbol",
          "type": "string"
        }
      ],
      "name": "generateFT",
      "outputs": [],
      "stateMutability": "nonpayable",
      "type": "function"
    },
    {
      "inputs": [
        {
          "internalType": "bytes32",
          "name": "",
          "type": "bytes32"
        }
      ],
      "name": "reciepts",
      "outputs": [
        {
          "internalType": "address",
          "name": "purchaser",
          "type": "address"
        },
        {
          "internalType": "uint256",
          "name": "amount",
          "type": "uint256"
        }
      ],
      "stateMutability": "view",
      "type": "function"
    },
    {
      "inputs": [
        {
          "internalType": "uint256",
          "name": "",
          "type": "uint256"
        }
      ],
      "name": "tokens",
      "outputs": [
        {
          "internalType": "contract ProjectFT",
          "name": "",
          "type": "address"
        }
      ],
      "stateMutability": "view",
      "type": "function"
    }
  ],
  "bytecode": "0x608060405260016004553480156200001657600080fd5b506040516200251d3803806200251d833981016040819052620000399162000094565b600280546001600160a01b0319166001600160a01b038416179055600380546001600160a01b0319166001600160a01b0383161790555050620000cc565b80516001600160a01b03811681146200008f57600080fd5b919050565b60008060408385031215620000a857600080fd5b620000b38362000077565b9150620000c36020840162000077565b90509250929050565b61244180620000dc6000396000f3fe60806040523480156200001157600080fd5b5060043610620000925760003560e01c80634bdb02e511620000625780634bdb02e5146200013a5780634f64b2be14620001515780635ce06dff1462000196578063b9b092c814620001ad57600080fd5b8062fdd58e146200009757806306661abd14620000c15780631fdf7f6a14620000cb5780632bea28d114620000e4575b600080fd5b620000ae620000a8366004620011ab565b620001c4565b6040519081526020015b60405180910390f35b620000ae60085481565b620000e2620000dc36600462001216565b620002ac565b005b6200011a620000f5366004620011fc565b600760205260009081526040902080546001909101546001600160a01b039091169082565b604080516001600160a01b039093168352602083019190915201620000b8565b620000e26200014b3660046200132b565b6200057c565b6200017d62000162366004620011fc565b6006602052600090815260409020546001600160a01b031681565b6040516001600160a01b039091168152602001620000b8565b620000e2620001a73660046200129f565b620007a4565b620000ae620001be36600462001153565b62000855565b6000818152600660205260408120546001600160a01b031680620002255760405162461bcd60e51b81526020600482015260136024820152721c1c9bda9958dd1259081b9bdd08199bdd5b99606a1b60448201526064015b60405180910390fd5b6040516370a0823160e01b81526001600160a01b0385811660048301528216906370a082319060240160206040518083038186803b1580156200026757600080fd5b505afa1580156200027c573d6000803e3d6000fd5b505050506040513d601f19601f82011682018060405250810190620002a2919062001311565b9150505b92915050565b60008681526005602052604090205486906001600160a01b03163314620003275760405162461bcd60e51b815260206004820152602860248201527f536f75726365206d75737420626520746865206f7261636c65206f6620746865604482015267081c995c5d595cdd60c21b60648201526084016200021c565b60008181526005602052604080822080546001600160a01b03191690555182917f7cc135e0cebb02c3480ae5d74d377283180a2601f8f644edf7987b009316c63a91a2600087815260076020908152604091829020825180840190935280546001600160a01b031683526001015490820152846200044a57805160208201516040516323b872dd60e01b81523060048201526001600160a01b039092166024830152604482015273dbc4c91be4722e54672bcccb5ead82c9bcf356f6906323b872dd90606401602060405180830381600087803b1580156200040857600080fd5b505af11580156200041d573d6000803e3d6000fd5b505050506040513d601f19601f82011682018060405250810190620004439190620011d8565b5062000572565b83836040516200045c92919062001446565b604051809103902087876040516200047692919062001446565b6040518091039020897f34492e80efe5e3007f51fd61d4182a0b5e88745e0c3daf0a7100ff9c964498e888604051620004b191815260200190565b60405180910390a460008484604051620004cd92919062001446565b604080519182900390912060008181526006602052919091205483519192506001600160a01b03169081906340c10f19906200050f8a64e8d4a51000620016e7565b6040516001600160e01b031960e085901b1681526001600160a01b0390921660048301526024820152604401600060405180830381600087803b1580156200055657600080fd5b505af11580156200056b573d6000803e3d6000fd5b5050505050505b5050505050505050565b7f34656436643338336238613634623966623434353362313831396638306666316000620005aa8462000885565b9050600080620005c38430630fefbfb560e11b6200099a565b9050620006136040518060400160405280600381526020016219d95d60ea1b8152508487604051602001620005fa92919062001456565b60408051601f19818403018152919052839190620009c5565b6200066d60405180604001604052806005815260200164706174683160d81b8152506040518060400160405280600e81526020016d646174612c746f6b656e5f75726960901b81525083620009c59092919063ffffffff16565b620006c4604051806040016040528060058152602001643830ba341960d91b8152506040518060400160405280600b81526020016a646174612c6d6173735f6760a81b81525083620009c59092919063ffffffff16565b6200071c60405180604001604052806005815260200164706174683360d81b8152506040518060400160405280600c81526020016b19185d184b1c1c9bda9958dd60a21b81525083620009c59092919063ffffffff16565b60006200072a8284620009ec565b60408051808201909152338152909150602081016200074c89612710620016e7565b905260008281526007602090815260408220835181546001600160a01b0319166001600160a01b039091161781559201516001909201919091556008805491620007968362001752565b919050555050505050505050565b60008484604051620007b892919062001446565b60408051918290039091206000818152600660205291909120549091506001600160a01b0316806200084d5785858585604051620007f690620010a2565b6200080594939291906200157a565b604051809103906000f08015801562000822573d6000803e3d6000fd5b50600083815260066020526040902080546001600160a01b0319166001600160a01b03831617905590505b505050505050565b60006200087d8484846040516200086e92919062001446565b604051908190039020620001c4565b949350505050565b606081620008aa5750506040805180820190915260018152600360fc1b602082015290565b8160005b8115620008da5780620008c18162001752565b9150620008d29050600a83620015cb565b9150620008ae565b6000816001600160401b03811115620008f757620008f7620017c9565b6040519080825280601f01601f19166020018201604052801562000922576020820181803683370190505b5090505b84156200087d576200093a60018362001709565b915062000949600a8662001770565b62000956906030620015b0565b60f81b8183815181106200096e576200096e620017b3565b60200101906001600160f81b031916908160001a90535062000992600a86620015cb565b945062000926565b620009a4620010b0565b620009ae620010b0565b620009bc8186868662000a0f565b95945050505050565b6080830151620009d6908362000a50565b6080830151620009e7908262000a50565b505050565b60035460009062000a08906001600160a01b0316848462000a6b565b9392505050565b62000a19620010b0565b62000a2b856080015161010062000b04565b50509183526001600160a01b031660208301526001600160e01b031916604082015290565b62000a5f826003835162000b72565b620009e7828262000c95565b60045460009062000a7e816001620015b0565b600455835160408086015160808701515191516000936320214ca360e11b9362000ab89386938493923092918a91600191602401620014e7565b60408051601f198184030181529190526020810180516001600160e01b03166001600160e01b031990931692909217909152905062000afa8683868462000cbe565b9695505050505050565b60408051808201909152606081526000602082015262000b2660208362001770565b1562000b555762000b3960208362001770565b62000b4690602062001709565b62000b529083620015b0565b91505b506020828101829052604080518085526000815290920101905290565b6017816001600160401b03161162000b9f5762000b998360e0600585901b16831762000e33565b50505050565b60ff816001600160401b03161162000be05762000bc8836018611fe0600586901b161762000e33565b5062000b99836001600160401b038316600162000e5a565b61ffff816001600160401b03161162000c225762000c0a836019611fe0600586901b161762000e33565b5062000b99836001600160401b038316600262000e5a565b63ffffffff816001600160401b03161162000c665762000c4e83601a611fe0600586901b161762000e33565b5062000b99836001600160401b038316600462000e5a565b62000c7d83601b611fe0600586901b161762000e33565b5062000b99836001600160401b038316600862000e5a565b60408051808201909152606081526000602082015262000a088384600001515184855162000e82565b6040516bffffffffffffffffffffffff193060601b1660208201526034810184905260009060540160408051808303601f1901815282825280516020918201206000818152600590925291812080546001600160a01b0319166001600160a01b038a1617905590925082917fb5e6e01e79f91267dc17b4e6314d5d4d03593d2ceee0fbb452b750bd70ea5af99190a2600254604051630200057560e51b81526001600160a01b0390911690634000aea09062000d839088908790879060040162001551565b602060405180830381600087803b15801562000d9e57600080fd5b505af115801562000db3573d6000803e3d6000fd5b505050506040513d601f19601f8201168201806040525081019062000dd99190620011d8565b6200087d5760405162461bcd60e51b815260206004820152602360248201527f756e61626c6520746f207472616e73666572416e6443616c6c20746f206f7261604482015262636c6560e81b60648201526084016200021c565b60408051808201909152606081526000602082015262000a08838460000151518462000f81565b6040805180820190915260608152600060208201526200087d84856000015151858562000fe2565b604080518082019091526060815260006020820152825182111562000ea657600080fd5b602085015162000eb78386620015b0565b111562000ef35762000ef38562000ee08760200151878662000eda9190620015b0565b6200106e565b62000eed906002620016e7565b62001087565b60008086518051876020830101935080888701111562000f135787860182525b505050602084015b6020841062000f5b578051825262000f35602083620015b0565b915062000f44602082620015b0565b905062000f5360208562001709565b935062000f1b565b51815160001960208690036101000a019081169019919091161790525083949350505050565b6040805180820190915260608152600060208201528360200151831062000fba5762000fba848560200151600262000eed9190620016e7565b83518051602085830101848153508085141562000fd8576001810182525b5093949350505050565b6040805180820190915260608152600060208201526020850151620010088584620015b0565b11156200102057620010208562000ee08685620015b0565b6000600162001032846101006200162b565b6200103e919062001709565b9050855183868201018583198251161781525080518487011115620010635783860181525b509495945050505050565b60008183111562001081575081620002a6565b50919050565b815162001095838362000b04565b5062000b99838262000c95565b610c2c80620017e083390190565b6040805160a0810182526000808252602080830182905282840182905260608084018390528451808601909552845283015290608082015290565b80356001600160a01b03811681146200110357600080fd5b919050565b60008083601f8401126200111b57600080fd5b5081356001600160401b038111156200113357600080fd5b6020830191508360208285010111156200114c57600080fd5b9250929050565b6000806000604084860312156200116957600080fd5b6200117484620010eb565b925060208401356001600160401b038111156200119057600080fd5b6200119e8682870162001108565b9497909650939450505050565b60008060408385031215620011bf57600080fd5b620011ca83620010eb565b946020939093013593505050565b600060208284031215620011eb57600080fd5b8151801515811462000a0857600080fd5b6000602082840312156200120f57600080fd5b5035919050565b600080600080600080608087890312156200123057600080fd5b8635955060208701356001600160401b03808211156200124f57600080fd5b6200125d8a838b0162001108565b90975095506040890135945060608901359150808211156200127e57600080fd5b506200128d89828a0162001108565b979a9699509497509295939492505050565b60008060008060408587031215620012b657600080fd5b84356001600160401b0380821115620012ce57600080fd5b620012dc8883890162001108565b90965094506020870135915080821115620012f657600080fd5b50620013058782880162001108565b95989497509550505050565b6000602082840312156200132457600080fd5b5051919050565b600080604083850312156200133f57600080fd5b8235915060208301356001600160401b03808211156200135e57600080fd5b818501915085601f8301126200137357600080fd5b813581811115620013885762001388620017c9565b604051601f8201601f19908116603f01168101908382118183101715620013b357620013b3620017c9565b81604052828152886020848701011115620013cd57600080fd5b8260208601602083013760006020848301015280955050505050509250929050565b600081518084526200140981602086016020860162001723565b601f01601f19169290920160200192915050565b81835281816020850137506000828201602090810191909152601f909101601f19169091010190565b8183823760009101908152919050565b7f68747470733a2f2f706174636870757263686173652e6e65746c6966792e617081526f702f6170692f6275793f70726963653d60801b602082015260008351620014a981603085016020880162001723565b6f26706174636850726f6a65637449643d60801b6030918401918201528351620014db81604084016020880162001723565b01604001949350505050565b6001600160a01b0389811682526020820189905260408201889052861660608201526001600160e01b03198516608082015260a0810184905260c0810183905261010060e082018190526000906200154283820185620013ef565b9b9a5050505050505050505050565b60018060a01b0384168152826020820152606060408201526000620009bc6060830184620013ef565b604081526000620015906040830186886200141d565b8281036020840152620015a58185876200141d565b979650505050505050565b60008219821115620015c657620015c662001787565b500190565b600082620015dd57620015dd6200179d565b500490565b600181815b808511156200162357816000190482111562001607576200160762001787565b808516156200161557918102915b93841c9390800290620015e7565b509250929050565b600062000a0883836000826200164457506001620002a6565b816200165357506000620002a6565b81600181146200166c5760028114620016775762001697565b6001915050620002a6565b60ff8411156200168b576200168b62001787565b50506001821b620002a6565b5060208310610133831016604e8410600b8410161715620016bc575081810a620002a6565b620016c88383620015e2565b8060001904821115620016df57620016df62001787565b029392505050565b600081600019048311821515161562001704576200170462001787565b500290565b6000828210156200171e576200171e62001787565b500390565b60005b838110156200174057818101518382015260200162001726565b8381111562000b995750506000910152565b600060001982141562001769576200176962001787565b5060010190565b6000826200178257620017826200179d565b500690565b634e487b7160e01b600052601160045260246000fd5b634e487b7160e01b600052601260045260246000fd5b634e487b7160e01b600052603260045260246000fd5b634e487b7160e01b600052604160045260246000fdfe60806040523480156200001157600080fd5b5060405162000c2c38038062000c2c8339810160408190526200003491620001cb565b8151829082906200004d9060039060208501906200006e565b508051620000639060049060208401906200006e565b505050505062000288565b8280546200007c9062000235565b90600052602060002090601f016020900481019282620000a05760008555620000eb565b82601f10620000bb57805160ff1916838001178555620000eb565b82800160010185558215620000eb579182015b82811115620000eb578251825591602001919060010190620000ce565b50620000f9929150620000fd565b5090565b5b80821115620000f95760008155600101620000fe565b600082601f8301126200012657600080fd5b81516001600160401b038082111562000143576200014362000272565b604051601f8301601f19908116603f011681019082821181831017156200016e576200016e62000272565b816040528381526020925086838588010111156200018b57600080fd5b600091505b83821015620001af578582018301518183018401529082019062000190565b83821115620001c15760008385830101525b9695505050505050565b60008060408385031215620001df57600080fd5b82516001600160401b0380821115620001f757600080fd5b620002058683870162000114565b935060208501519150808211156200021c57600080fd5b506200022b8582860162000114565b9150509250929050565b600181811c908216806200024a57607f821691505b602082108114156200026c57634e487b7160e01b600052602260045260246000fd5b50919050565b634e487b7160e01b600052604160045260246000fd5b61099480620002986000396000f3fe608060405234801561001057600080fd5b50600436106100b45760003560e01c806340c10f191161007157806340c10f191461014157806370a082311461015657806395d89b411461017f578063a457c2d714610187578063a9059cbb1461019a578063dd62ed3e146101ad57600080fd5b806306fdde03146100b9578063095ea7b3146100d757806318160ddd146100fa57806323b872dd1461010c578063313ce5671461011f578063395093511461012e575b600080fd5b6100c16101c0565b6040516100ce91906108a8565b60405180910390f35b6100ea6100e536600461087e565b610252565b60405190151581526020016100ce565b6002545b6040519081526020016100ce565b6100ea61011a366004610842565b61026a565b604051601281526020016100ce565b6100ea61013c36600461087e565b61028e565b61015461014f36600461087e565b6102b0565b005b6100fe6101643660046107ed565b6001600160a01b031660009081526020819052604090205490565b6100c16102be565b6100ea61019536600461087e565b6102cd565b6100ea6101a836600461087e565b61034d565b6100fe6101bb36600461080f565b61035b565b6060600380546101cf90610923565b80601f01602080910402602001604051908101604052809291908181526020018280546101fb90610923565b80156102485780601f1061021d57610100808354040283529160200191610248565b820191906000526020600020905b81548152906001019060200180831161022b57829003601f168201915b5050505050905090565b600033610260818585610386565b5060019392505050565b6000336102788582856104aa565b610283858585610524565b506001949350505050565b6000336102608185856102a1838361035b565b6102ab91906108fd565b610386565b6102ba82826106f2565b5050565b6060600480546101cf90610923565b600033816102db828661035b565b9050838110156103405760405162461bcd60e51b815260206004820152602560248201527f45524332303a2064656372656173656420616c6c6f77616e63652062656c6f77604482015264207a65726f60d81b60648201526084015b60405180910390fd5b6102838286868403610386565b600033610260818585610524565b6001600160a01b03918216600090815260016020908152604080832093909416825291909152205490565b6001600160a01b0383166103e85760405162461bcd60e51b8152602060048201526024808201527f45524332303a20617070726f76652066726f6d20746865207a65726f206164646044820152637265737360e01b6064820152608401610337565b6001600160a01b0382166104495760405162461bcd60e51b815260206004820152602260248201527f45524332303a20617070726f766520746f20746865207a65726f206164647265604482015261737360f01b6064820152608401610337565b6001600160a01b0383811660008181526001602090815260408083209487168084529482529182902085905590518481527f8c5be1e5ebec7d5bd14f71427d1e84f3dd0314c0f7b2291e5b200ac8c7c3b925910160405180910390a3505050565b60006104b6848461035b565b9050600019811461051e57818110156105115760405162461bcd60e51b815260206004820152601d60248201527f45524332303a20696e73756666696369656e7420616c6c6f77616e63650000006044820152606401610337565b61051e8484848403610386565b50505050565b6001600160a01b0383166105885760405162461bcd60e51b815260206004820152602560248201527f45524332303a207472616e736665722066726f6d20746865207a65726f206164604482015264647265737360d81b6064820152608401610337565b6001600160a01b0382166105ea5760405162461bcd60e51b815260206004820152602360248201527f45524332303a207472616e7366657220746f20746865207a65726f206164647260448201526265737360e81b6064820152608401610337565b6001600160a01b038316600090815260208190526040902054818110156106625760405162461bcd60e51b815260206004820152602660248201527f45524332303a207472616e7366657220616d6f756e7420657863656564732062604482015265616c616e636560d01b6064820152608401610337565b6001600160a01b038085166000908152602081905260408082208585039055918516815290812080548492906106999084906108fd565b92505081905550826001600160a01b0316846001600160a01b03167fddf252ad1be2c89b69c2b068fc378daa952ba7f163c4a11628f55a4df523b3ef846040516106e591815260200190565b60405180910390a361051e565b6001600160a01b0382166107485760405162461bcd60e51b815260206004820152601f60248201527f45524332303a206d696e7420746f20746865207a65726f2061646472657373006044820152606401610337565b806002600082825461075a91906108fd565b90915550506001600160a01b038216600090815260208190526040812080548392906107879084906108fd565b90915550506040518181526001600160a01b038316906000907fddf252ad1be2c89b69c2b068fc378daa952ba7f163c4a11628f55a4df523b3ef9060200160405180910390a35050565b80356001600160a01b03811681146107e857600080fd5b919050565b6000602082840312156107ff57600080fd5b610808826107d1565b9392505050565b6000806040838503121561082257600080fd5b61082b836107d1565b9150610839602084016107d1565b90509250929050565b60008060006060848603121561085757600080fd5b610860846107d1565b925061086e602085016107d1565b9150604084013590509250925092565b6000806040838503121561089157600080fd5b61089a836107d1565b946020939093013593505050565b600060208083528351808285015260005b818110156108d5578581018301518582016040015282016108b9565b818111156108e7576000604083870101525b50601f01601f1916929092016040019392505050565b6000821982111561091e57634e487b7160e01b600052601160045260246000fd5b500190565b600181811c9082168061093757607f821691505b6020821081141561095857634e487b7160e01b600052602260045260246000fd5b5091905056fea2646970667358221220eaa8b9701939b9cecaa94b6f62b76129cd6550a651b4a58730b8735daddc78f364736f6c63430008070033a26469706673582212204a648f7b57a80a826769cdf6ff70f000a17ac4d4cd219e3efe0093d33262299b64736f6c63430008070033",
  "linkReferences": {},
  "deployedLinkReferences": {}
}