{
  "_format": "hh-sol-artifact-1",
  "contractName": "PatchBridge",
  "sourceName": "src/PatchPurchaseChainlink.sol",
  "abi": [
    {
      "inputs": [
        {
          "internalType": "address",
          "name": "chainlinkToken",
          "type": "address"
        },
        {
          "internalType": "address",
          "name": "chainlinkOracle",
          "type": "address"
        }
      ],
      "stateMutability": "nonpayable",
      "type": "constructor"
    },
    {
      "anonymous": false,
      "inputs": [
        {
          "indexed": true,
          "internalType": "bytes32",
          "name": "id",
          "type": "bytes32"
        }
      ],
      "name": "ChainlinkCancelled",
      "type": "event"
    },
    {
      "anonymous": false,
      "inputs": [
        {
          "indexed": true,
          "internalType": "bytes32",
          "name": "id",
          "type": "bytes32"
        }
      ],
      "name": "ChainlinkFulfilled",
      "type": "event"
    },
    {
      "anonymous": false,
      "inputs": [
        {
          "indexed": true,
          "internalType": "bytes32",
          "name": "id",
          "type": "bytes32"
        }
      ],
      "name": "ChainlinkRequested",
      "type": "event"
    },
    {
      "anonymous": false,
      "inputs": [
        {
          "indexed": false,
          "internalType": "uint256",
          "name": "price",
          "type": "uint256"
        },
        {
          "indexed": false,
          "internalType": "string",
          "name": "patchProjectId",
          "type": "string"
        }
      ],
      "name": "PreparingPurchase",
      "type": "event"
    },
    {
      "anonymous": false,
      "inputs": [
        {
          "indexed": true,
          "internalType": "bytes32",
          "name": "requestId",
          "type": "bytes32"
        },
        {
          "indexed": true,
          "internalType": "string",
          "name": "tokenURI",
          "type": "string"
        },
        {
          "indexed": false,
          "internalType": "uint256",
          "name": "mass_g",
          "type": "uint256"
        },
        {
          "indexed": true,
          "internalType": "string",
          "name": "project",
          "type": "string"
        }
      ],
      "name": "PurchaseFulfilled",
      "type": "event"
    },
    {
      "inputs": [
        {
          "internalType": "address",
          "name": "owner",
          "type": "address"
        },
        {
          "internalType": "uint256",
          "name": "projectId",
          "type": "uint256"
        }
      ],
      "name": "balanceOf",
      "outputs": [
        {
          "internalType": "uint256",
          "name": "balance",
          "type": "uint256"
        }
      ],
      "stateMutability": "view",
      "type": "function"
    },
    {
      "inputs": [
        {
          "internalType": "address",
          "name": "owner",
          "type": "address"
        },
        {
          "internalType": "string",
          "name": "project",
          "type": "string"
        }
      ],
      "name": "balanceOf",
      "outputs": [
        {
          "internalType": "uint256",
          "name": "balance",
          "type": "uint256"
        }
      ],
      "stateMutability": "view",
      "type": "function"
    },
    {
      "inputs": [],
      "name": "count",
      "outputs": [
        {
          "internalType": "uint256",
          "name": "",
          "type": "uint256"
        }
      ],
      "stateMutability": "view",
      "type": "function"
    },
    {
      "inputs": [
        {
          "internalType": "uint256",
          "name": "priceInPenny",
          "type": "uint256"
        },
        {
          "internalType": "string",
          "name": "patchProjectId",
          "type": "string"
        }
      ],
      "name": "executeBuy",
      "outputs": [],
      "stateMutability": "nonpayable",
      "type": "function"
    },
    {
      "inputs": [
        {
          "internalType": "bytes32",
          "name": "requestId",
          "type": "bytes32"
        },
        {
          "internalType": "string",
          "name": "tokenURI",
          "type": "string"
        },
        {
          "internalType": "uint256",
          "name": "mass_g",
          "type": "uint256"
        },
        {
          "internalType": "string",
          "name": "project",
          "type": "string"
        }
      ],
      "name": "fulfillBytes",
      "outputs": [],
      "stateMutability": "nonpayable",
      "type": "function"
    },
    {
      "inputs": [
        {
          "internalType": "string",
          "name": "project",
          "type": "string"
        },
        {
          "internalType": "string",
          "name": "symbol",
          "type": "string"
        }
      ],
      "name": "generateFT",
      "outputs": [],
      "stateMutability": "nonpayable",
      "type": "function"
    },
    {
      "inputs": [
        {
          "internalType": "bytes32",
          "name": "",
          "type": "bytes32"
        }
      ],
      "name": "initiator",
      "outputs": [
        {
          "internalType": "address",
          "name": "",
          "type": "address"
        }
      ],
      "stateMutability": "view",
      "type": "function"
    },
    {
      "inputs": [
        {
          "internalType": "uint256",
          "name": "",
          "type": "uint256"
        }
      ],
      "name": "tokens",
      "outputs": [
        {
          "internalType": "contract ProjectFT",
          "name": "",
          "type": "address"
        }
      ],
      "stateMutability": "view",
      "type": "function"
    }
  ],
  "bytecode": "0x6080604052600160045534801561001557600080fd5b5060405162002430380380620024308339810160408190526100369161008f565b600280546001600160a01b0319166001600160a01b038416179055600380546001600160a01b0319166001600160a01b03831617905550506100c2565b80516001600160a01b038116811461008a57600080fd5b919050565b600080604083850312156100a257600080fd5b6100ab83610073565b91506100b960208401610073565b90509250929050565b61235e80620000d26000396000f3fe60806040523480156200001157600080fd5b5060043610620000925760003560e01c80634bdb02e511620000625780634bdb02e514620001295780634f64b2be14620001405780635ce06dff146200016c578063b9b092c8146200018357600080fd5b8062fdd58e146200009757806306661abd14620000c15780630b848b7614620000cb5780631fdf7f6a1462000110575b600080fd5b620000ae620000a8366004620010ad565b6200019a565b6040519081526020015b60405180910390f35b620000ae60085481565b620000f7620000dc366004620010fe565b6007602052600090815260409020546001600160a01b031681565b6040516001600160a01b039091168152602001620000b8565b620001276200012136600462001118565b62000282565b005b620001276200013a3660046200122d565b6200047e565b620000f762000151366004620010fe565b6006602052600090815260409020546001600160a01b031681565b620001276200017d366004620011a1565b620006a6565b620000ae6200019436600462001055565b62000757565b6000818152600660205260408120546001600160a01b031680620001fb5760405162461bcd60e51b81526020600482015260136024820152721c1c9bda9958dd1259081b9bdd08199bdd5b99606a1b60448201526064015b60405180910390fd5b6040516370a0823160e01b81526001600160a01b0385811660048301528216906370a082319060240160206040518083038186803b1580156200023d57600080fd5b505afa15801562000252573d6000803e3d6000fd5b505050506040513d601f19601f8201168201806040525081019062000278919062001213565b9150505b92915050565b60008681526005602052604090205486906001600160a01b03163314620002fd5760405162461bcd60e51b815260206004820152602860248201527f536f75726365206d75737420626520746865206f7261636c65206f6620746865604482015267081c995c5d595cdd60c21b6064820152608401620001f2565b60008181526005602052604080822080546001600160a01b03191690555182917f7cc135e0cebb02c3480ae5d74d377283180a2601f8f644edf7987b009316c63a91a282826040516200035292919062001348565b604051809103902086866040516200036c92919062001348565b6040518091039020887f34492e80efe5e3007f51fd61d4182a0b5e88745e0c3daf0a7100ff9c964498e887604051620003a791815260200190565b60405180910390a460008383604051620003c392919062001348565b6040805191829003909120600081815260066020908152838220548c83526007909152929020549092506001600160a01b039182169182916340c10f199116620004138964e8d4a5100062001604565b6040516001600160e01b031960e085901b1681526001600160a01b0390921660048301526024820152604401600060405180830381600087803b1580156200045a57600080fd5b505af11580156200046f573d6000803e3d6000fd5b50505050505050505050505050565b7f34656436643338336238613634623966623434353362313831396638306666316000620004ac8462000787565b90507f54e10f5cddeef93469b7d588605ad32456dcb3c62d6e12d8efd744cc14fe1e298484604051620004e1929190620014b2565b60405180910390a1600080620005008430630fefbfb560e11b6200089c565b9050620005506040518060400160405280600381526020016219d95d60ea1b81525084876040516020016200053792919062001358565b60408051601f19818403018152919052839190620008c7565b620005aa60405180604001604052806005815260200164706174683160d81b8152506040518060400160405280600e81526020016d646174612c746f6b656e5f75726960901b81525083620008c79092919063ffffffff16565b62000601604051806040016040528060058152602001643830ba341960d91b8152506040518060400160405280600b81526020016a646174612c6d6173735f6760a81b81525083620008c79092919063ffffffff16565b6200065960405180604001604052806005815260200164706174683360d81b8152506040518060400160405280600c81526020016b19185d184b1c1c9bda9958dd60a21b81525083620008c79092919063ffffffff16565b6000620006678284620008ee565b600081815260076020526040812080546001600160a01b03191633179055600880549293509062000698836200166f565b919050555050505050505050565b60008484604051620006ba92919062001348565b60408051918290039091206000818152600660205291909120549091506001600160a01b0316806200074f5785858585604051620006f89062000fa4565b6200070794939291906200147c565b604051809103906000f08015801562000724573d6000803e3d6000fd5b50600083815260066020526040902080546001600160a01b0319166001600160a01b03831617905590505b505050505050565b60006200077f8484846040516200077092919062001348565b6040519081900390206200019a565b949350505050565b606081620007ac5750506040805180820190915260018152600360fc1b602082015290565b8160005b8115620007dc5780620007c3816200166f565b9150620007d49050600a83620014e8565b9150620007b0565b6000816001600160401b03811115620007f957620007f9620016e6565b6040519080825280601f01601f19166020018201604052801562000824576020820181803683370190505b5090505b84156200077f576200083c60018362001626565b91506200084b600a866200168d565b62000858906030620014cd565b60f81b818381518110620008705762000870620016d0565b60200101906001600160f81b031916908160001a90535062000894600a86620014e8565b945062000828565b620008a662000fb2565b620008b062000fb2565b620008be8186868662000911565b95945050505050565b6080830151620008d8908362000952565b6080830151620008e9908262000952565b505050565b6003546000906200090a906001600160a01b031684846200096d565b9392505050565b6200091b62000fb2565b6200092d856080015161010062000a06565b50509183526001600160a01b031660208301526001600160e01b031916604082015290565b62000961826003835162000a74565b620008e9828262000b97565b60045460009062000980816001620014cd565b600455835160408086015160808701515191516000936320214ca360e11b93620009ba9386938493923092918a91600191602401620013e9565b60408051601f198184030181529190526020810180516001600160e01b03166001600160e01b0319909316929092179091529050620009fc8683868462000bc0565b9695505050505050565b60408051808201909152606081526000602082015262000a286020836200168d565b1562000a575762000a3b6020836200168d565b62000a4890602062001626565b62000a549083620014cd565b91505b506020828101829052604080518085526000815290920101905290565b6017816001600160401b03161162000aa15762000a9b8360e0600585901b16831762000d35565b50505050565b60ff816001600160401b03161162000ae25762000aca836018611fe0600586901b161762000d35565b5062000a9b836001600160401b038316600162000d5c565b61ffff816001600160401b03161162000b245762000b0c836019611fe0600586901b161762000d35565b5062000a9b836001600160401b038316600262000d5c565b63ffffffff816001600160401b03161162000b685762000b5083601a611fe0600586901b161762000d35565b5062000a9b836001600160401b038316600462000d5c565b62000b7f83601b611fe0600586901b161762000d35565b5062000a9b836001600160401b038316600862000d5c565b6040805180820190915260608152600060208201526200090a8384600001515184855162000d84565b6040516bffffffffffffffffffffffff193060601b1660208201526034810184905260009060540160408051808303601f1901815282825280516020918201206000818152600590925291812080546001600160a01b0319166001600160a01b038a1617905590925082917fb5e6e01e79f91267dc17b4e6314d5d4d03593d2ceee0fbb452b750bd70ea5af99190a2600254604051630200057560e51b81526001600160a01b0390911690634000aea09062000c859088908790879060040162001453565b602060405180830381600087803b15801562000ca057600080fd5b505af115801562000cb5573d6000803e3d6000fd5b505050506040513d601f19601f8201168201806040525081019062000cdb9190620010da565b6200077f5760405162461bcd60e51b815260206004820152602360248201527f756e61626c6520746f207472616e73666572416e6443616c6c20746f206f7261604482015262636c6560e81b6064820152608401620001f2565b6040805180820190915260608152600060208201526200090a838460000151518462000e83565b6040805180820190915260608152600060208201526200077f84856000015151858562000ee4565b604080518082019091526060815260006020820152825182111562000da857600080fd5b602085015162000db98386620014cd565b111562000df55762000df58562000de28760200151878662000ddc9190620014cd565b62000f70565b62000def90600262001604565b62000f89565b60008086518051876020830101935080888701111562000e155787860182525b505050602084015b6020841062000e5d578051825262000e37602083620014cd565b915062000e46602082620014cd565b905062000e5560208562001626565b935062000e1d565b51815160001960208690036101000a019081169019919091161790525083949350505050565b6040805180820190915260608152600060208201528360200151831062000ebc5762000ebc848560200151600262000def919062001604565b83518051602085830101848153508085141562000eda576001810182525b5093949350505050565b604080518082019091526060815260006020820152602085015162000f0a8584620014cd565b111562000f225762000f228562000de28685620014cd565b6000600162000f348461010062001548565b62000f40919062001626565b905085518386820101858319825116178152508051848701111562000f655783860181525b509495945050505050565b60008183111562000f835750816200027c565b50919050565b815162000f97838362000a06565b5062000a9b838262000b97565b610c2c80620016fd83390190565b6040805160a0810182526000808252602080830182905282840182905260608084018390528451808601909552845283015290608082015290565b80356001600160a01b03811681146200100557600080fd5b919050565b60008083601f8401126200101d57600080fd5b5081356001600160401b038111156200103557600080fd5b6020830191508360208285010111156200104e57600080fd5b9250929050565b6000806000604084860312156200106b57600080fd5b620010768462000fed565b925060208401356001600160401b038111156200109257600080fd5b620010a0868287016200100a565b9497909650939450505050565b60008060408385031215620010c157600080fd5b620010cc8362000fed565b946020939093013593505050565b600060208284031215620010ed57600080fd5b815180151581146200090a57600080fd5b6000602082840312156200111157600080fd5b5035919050565b600080600080600080608087890312156200113257600080fd5b8635955060208701356001600160401b03808211156200115157600080fd5b6200115f8a838b016200100a565b90975095506040890135945060608901359150808211156200118057600080fd5b506200118f89828a016200100a565b979a9699509497509295939492505050565b60008060008060408587031215620011b857600080fd5b84356001600160401b0380821115620011d057600080fd5b620011de888389016200100a565b90965094506020870135915080821115620011f857600080fd5b5062001207878288016200100a565b95989497509550505050565b6000602082840312156200122657600080fd5b5051919050565b600080604083850312156200124157600080fd5b8235915060208301356001600160401b03808211156200126057600080fd5b818501915085601f8301126200127557600080fd5b8135818111156200128a576200128a620016e6565b604051601f8201601f19908116603f01168101908382118183101715620012b557620012b5620016e6565b81604052828152886020848701011115620012cf57600080fd5b8260208601602083013760006020848301015280955050505050509250929050565b600081518084526200130b81602086016020860162001640565b601f01601f19169290920160200192915050565b81835281816020850137506000828201602090810191909152601f909101601f19169091010190565b8183823760009101908152919050565b7f68747470733a2f2f706174636870757263686173652e6e65746c6966792e617081526f702f6170692f6275793f70726963653d60801b602082015260008351620013ab81603085016020880162001640565b6f26706174636850726f6a65637449643d60801b6030918401918201528351620013dd81604084016020880162001640565b01604001949350505050565b6001600160a01b0389811682526020820189905260408201889052861660608201526001600160e01b03198516608082015260a0810184905260c0810183905261010060e082018190526000906200144483820185620012f1565b9b9a5050505050505050505050565b60018060a01b0384168152826020820152606060408201526000620008be6060830184620012f1565b604081526000620014926040830186886200131f565b8281036020840152620014a78185876200131f565b979650505050505050565b8281526040602082015260006200077f6040830184620012f1565b60008219821115620014e357620014e3620016a4565b500190565b600082620014fa57620014fa620016ba565b500490565b600181815b8085111562001540578160001904821115620015245762001524620016a4565b808516156200153257918102915b93841c939080029062001504565b509250929050565b60006200090a838360008262001561575060016200027c565b8162001570575060006200027c565b81600181146200158957600281146200159457620015b4565b60019150506200027c565b60ff841115620015a857620015a8620016a4565b50506001821b6200027c565b5060208310610133831016604e8410600b8410161715620015d9575081810a6200027c565b620015e58383620014ff565b8060001904821115620015fc57620015fc620016a4565b029392505050565b6000816000190483118215151615620016215762001621620016a4565b500290565b6000828210156200163b576200163b620016a4565b500390565b60005b838110156200165d57818101518382015260200162001643565b8381111562000a9b5750506000910152565b6000600019821415620016865762001686620016a4565b5060010190565b6000826200169f576200169f620016ba565b500690565b634e487b7160e01b600052601160045260246000fd5b634e487b7160e01b600052601260045260246000fd5b634e487b7160e01b600052603260045260246000fd5b634e487b7160e01b600052604160045260246000fdfe60806040523480156200001157600080fd5b5060405162000c2c38038062000c2c8339810160408190526200003491620001cb565b8151829082906200004d9060039060208501906200006e565b508051620000639060049060208401906200006e565b505050505062000288565b8280546200007c9062000235565b90600052602060002090601f016020900481019282620000a05760008555620000eb565b82601f10620000bb57805160ff1916838001178555620000eb565b82800160010185558215620000eb579182015b82811115620000eb578251825591602001919060010190620000ce565b50620000f9929150620000fd565b5090565b5b80821115620000f95760008155600101620000fe565b600082601f8301126200012657600080fd5b81516001600160401b038082111562000143576200014362000272565b604051601f8301601f19908116603f011681019082821181831017156200016e576200016e62000272565b816040528381526020925086838588010111156200018b57600080fd5b600091505b83821015620001af578582018301518183018401529082019062000190565b83821115620001c15760008385830101525b9695505050505050565b60008060408385031215620001df57600080fd5b82516001600160401b0380821115620001f757600080fd5b620002058683870162000114565b935060208501519150808211156200021c57600080fd5b506200022b8582860162000114565b9150509250929050565b600181811c908216806200024a57607f821691505b602082108114156200026c57634e487b7160e01b600052602260045260246000fd5b50919050565b634e487b7160e01b600052604160045260246000fd5b61099480620002986000396000f3fe608060405234801561001057600080fd5b50600436106100b45760003560e01c806340c10f191161007157806340c10f191461014157806370a082311461015657806395d89b411461017f578063a457c2d714610187578063a9059cbb1461019a578063dd62ed3e146101ad57600080fd5b806306fdde03146100b9578063095ea7b3146100d757806318160ddd146100fa57806323b872dd1461010c578063313ce5671461011f578063395093511461012e575b600080fd5b6100c16101c0565b6040516100ce91906108a8565b60405180910390f35b6100ea6100e536600461087e565b610252565b60405190151581526020016100ce565b6002545b6040519081526020016100ce565b6100ea61011a366004610842565b61026a565b604051601281526020016100ce565b6100ea61013c36600461087e565b61028e565b61015461014f36600461087e565b6102b0565b005b6100fe6101643660046107ed565b6001600160a01b031660009081526020819052604090205490565b6100c16102be565b6100ea61019536600461087e565b6102cd565b6100ea6101a836600461087e565b61034d565b6100fe6101bb36600461080f565b61035b565b6060600380546101cf90610923565b80601f01602080910402602001604051908101604052809291908181526020018280546101fb90610923565b80156102485780601f1061021d57610100808354040283529160200191610248565b820191906000526020600020905b81548152906001019060200180831161022b57829003601f168201915b5050505050905090565b600033610260818585610386565b5060019392505050565b6000336102788582856104aa565b610283858585610524565b506001949350505050565b6000336102608185856102a1838361035b565b6102ab91906108fd565b610386565b6102ba82826106f2565b5050565b6060600480546101cf90610923565b600033816102db828661035b565b9050838110156103405760405162461bcd60e51b815260206004820152602560248201527f45524332303a2064656372656173656420616c6c6f77616e63652062656c6f77604482015264207a65726f60d81b60648201526084015b60405180910390fd5b6102838286868403610386565b600033610260818585610524565b6001600160a01b03918216600090815260016020908152604080832093909416825291909152205490565b6001600160a01b0383166103e85760405162461bcd60e51b8152602060048201526024808201527f45524332303a20617070726f76652066726f6d20746865207a65726f206164646044820152637265737360e01b6064820152608401610337565b6001600160a01b0382166104495760405162461bcd60e51b815260206004820152602260248201527f45524332303a20617070726f766520746f20746865207a65726f206164647265604482015261737360f01b6064820152608401610337565b6001600160a01b0383811660008181526001602090815260408083209487168084529482529182902085905590518481527f8c5be1e5ebec7d5bd14f71427d1e84f3dd0314c0f7b2291e5b200ac8c7c3b925910160405180910390a3505050565b60006104b6848461035b565b9050600019811461051e57818110156105115760405162461bcd60e51b815260206004820152601d60248201527f45524332303a20696e73756666696369656e7420616c6c6f77616e63650000006044820152606401610337565b61051e8484848403610386565b50505050565b6001600160a01b0383166105885760405162461bcd60e51b815260206004820152602560248201527f45524332303a207472616e736665722066726f6d20746865207a65726f206164604482015264647265737360d81b6064820152608401610337565b6001600160a01b0382166105ea5760405162461bcd60e51b815260206004820152602360248201527f45524332303a207472616e7366657220746f20746865207a65726f206164647260448201526265737360e81b6064820152608401610337565b6001600160a01b038316600090815260208190526040902054818110156106625760405162461bcd60e51b815260206004820152602660248201527f45524332303a207472616e7366657220616d6f756e7420657863656564732062604482015265616c616e636560d01b6064820152608401610337565b6001600160a01b038085166000908152602081905260408082208585039055918516815290812080548492906106999084906108fd565b92505081905550826001600160a01b0316846001600160a01b03167fddf252ad1be2c89b69c2b068fc378daa952ba7f163c4a11628f55a4df523b3ef846040516106e591815260200190565b60405180910390a361051e565b6001600160a01b0382166107485760405162461bcd60e51b815260206004820152601f60248201527f45524332303a206d696e7420746f20746865207a65726f2061646472657373006044820152606401610337565b806002600082825461075a91906108fd565b90915550506001600160a01b038216600090815260208190526040812080548392906107879084906108fd565b90915550506040518181526001600160a01b038316906000907fddf252ad1be2c89b69c2b068fc378daa952ba7f163c4a11628f55a4df523b3ef9060200160405180910390a35050565b80356001600160a01b03811681146107e857600080fd5b919050565b6000602082840312156107ff57600080fd5b610808826107d1565b9392505050565b6000806040838503121561082257600080fd5b61082b836107d1565b9150610839602084016107d1565b90509250929050565b60008060006060848603121561085757600080fd5b610860846107d1565b925061086e602085016107d1565b9150604084013590509250925092565b6000806040838503121561089157600080fd5b61089a836107d1565b946020939093013593505050565b600060208083528351808285015260005b818110156108d5578581018301518582016040015282016108b9565b818111156108e7576000604083870101525b50601f01601f1916929092016040019392505050565b6000821982111561091e57634e487b7160e01b600052601160045260246000fd5b500190565b600181811c9082168061093757607f821691505b6020821081141561095857634e487b7160e01b600052602260045260246000fd5b5091905056fea264697066735822122027ff017cf2b0d6bba361c8852dc81958ee15af8833098a6ddc0eaf81ddebea7864736f6c63430008070033a264697066735822122000a164e99ea69a45edddd19c62c97bab0f266b96722fcd4369a7a02e4757c8c264736f6c63430008070033",
  "linkReferences": {},
  "deployedLinkReferences": {}
}