{
  "_format": "hh-sol-artifact-1",
  "contractName": "PatchBridge",
  "sourceName": "src/PatchBridge.sol",
  "abi": [
    {
      "inputs": [
        {
          "internalType": "address",
          "name": "chainlinkToken",
          "type": "address"
        },
        {
          "internalType": "address",
          "name": "chainlinkOracle",
          "type": "address"
        }
      ],
      "stateMutability": "nonpayable",
      "type": "constructor"
    },
    {
      "anonymous": false,
      "inputs": [
        {
          "indexed": true,
          "internalType": "bytes32",
          "name": "id",
          "type": "bytes32"
        }
      ],
      "name": "ChainlinkCancelled",
      "type": "event"
    },
    {
      "anonymous": false,
      "inputs": [
        {
          "indexed": true,
          "internalType": "bytes32",
          "name": "id",
          "type": "bytes32"
        }
      ],
      "name": "ChainlinkFulfilled",
      "type": "event"
    },
    {
      "anonymous": false,
      "inputs": [
        {
          "indexed": true,
          "internalType": "bytes32",
          "name": "id",
          "type": "bytes32"
        }
      ],
      "name": "ChainlinkRequested",
      "type": "event"
    },
    {
      "anonymous": false,
      "inputs": [
        {
          "indexed": false,
          "internalType": "uint256",
          "name": "price",
          "type": "uint256"
        },
        {
          "indexed": false,
          "internalType": "string",
          "name": "patchProjectId",
          "type": "string"
        }
      ],
      "name": "PreparingPurchase",
      "type": "event"
    },
    {
      "anonymous": false,
      "inputs": [
        {
          "indexed": true,
          "internalType": "bytes32",
          "name": "requestId",
          "type": "bytes32"
        },
        {
          "indexed": true,
          "internalType": "string",
          "name": "tokenURI",
          "type": "string"
        },
        {
          "indexed": false,
          "internalType": "uint256",
          "name": "mass_g",
          "type": "uint256"
        },
        {
          "indexed": true,
          "internalType": "string",
          "name": "project",
          "type": "string"
        }
      ],
      "name": "PurchaseFulfilled",
      "type": "event"
    },
    {
      "inputs": [
        {
          "internalType": "string",
          "name": "patchProjectId",
          "type": "string"
        }
      ],
      "name": "addPatchProjectId",
      "outputs": [],
      "stateMutability": "nonpayable",
      "type": "function"
    },
    {
      "inputs": [
        {
          "internalType": "address",
          "name": "owner",
          "type": "address"
        },
        {
          "internalType": "uint256",
          "name": "projectId",
          "type": "uint256"
        }
      ],
      "name": "balanceOf",
      "outputs": [
        {
          "internalType": "uint256",
          "name": "balance",
          "type": "uint256"
        }
      ],
      "stateMutability": "view",
      "type": "function"
    },
    {
      "inputs": [
        {
          "internalType": "address",
          "name": "owner",
          "type": "address"
        },
        {
          "internalType": "string",
          "name": "project",
          "type": "string"
        }
      ],
      "name": "balanceOf",
      "outputs": [
        {
          "internalType": "uint256",
          "name": "balance",
          "type": "uint256"
        }
      ],
      "stateMutability": "view",
      "type": "function"
    },
    {
      "inputs": [],
      "name": "count",
      "outputs": [
        {
          "internalType": "uint256",
          "name": "",
          "type": "uint256"
        }
      ],
      "stateMutability": "view",
      "type": "function"
    },
    {
      "inputs": [
        {
          "internalType": "uint256",
          "name": "priceInPenny",
          "type": "uint256"
        },
        {
          "internalType": "string",
          "name": "patchProjectId",
          "type": "string"
        }
      ],
      "name": "executeBuy",
      "outputs": [],
      "stateMutability": "nonpayable",
      "type": "function"
    },
    {
      "inputs": [
        {
          "internalType": "bytes32",
          "name": "requestId",
          "type": "bytes32"
        },
        {
          "internalType": "string",
          "name": "tokenURI",
          "type": "string"
        },
        {
          "internalType": "uint256",
          "name": "mass_g",
          "type": "uint256"
        },
        {
          "internalType": "string",
          "name": "project",
          "type": "string"
        }
      ],
      "name": "fulfillBytes",
      "outputs": [],
      "stateMutability": "nonpayable",
      "type": "function"
    },
    {
      "inputs": [
        {
          "internalType": "string",
          "name": "project",
          "type": "string"
        },
        {
          "internalType": "string",
          "name": "symbol",
          "type": "string"
        }
      ],
      "name": "generateFT",
      "outputs": [],
      "stateMutability": "nonpayable",
      "type": "function"
    },
    {
      "inputs": [
        {
          "internalType": "bytes32",
          "name": "",
          "type": "bytes32"
        }
      ],
      "name": "reciepts",
      "outputs": [
        {
          "internalType": "address",
          "name": "purchaser",
          "type": "address"
        },
        {
          "internalType": "uint256",
          "name": "amount",
          "type": "uint256"
        }
      ],
      "stateMutability": "view",
      "type": "function"
    },
    {
      "inputs": [
        {
          "internalType": "uint256",
          "name": "",
          "type": "uint256"
        }
      ],
      "name": "tokens",
      "outputs": [
        {
          "internalType": "contract ProjectFT",
          "name": "",
          "type": "address"
        }
      ],
      "stateMutability": "view",
      "type": "function"
    },
    {
      "inputs": [
        {
          "internalType": "string",
          "name": "",
          "type": "string"
        }
      ],
      "name": "validPatchProjectId",
      "outputs": [
        {
          "internalType": "bool",
          "name": "",
          "type": "bool"
        }
      ],
      "stateMutability": "view",
      "type": "function"
    }
  ],
  "bytecode": "0x608060405260016004553480156200001657600080fd5b50604051620027d1380380620027d1833981016040819052620000399162000094565b600280546001600160a01b0319166001600160a01b038416179055600380546001600160a01b0319166001600160a01b0383161790555050620000cc565b80516001600160a01b03811681146200008f57600080fd5b919050565b60008060408385031215620000a857600080fd5b620000b38362000077565b9150620000c36020840162000077565b90509250929050565b6126f580620000dc6000396000f3fe60806040523480156200001157600080fd5b5060043610620000aa5760003560e01c80632bea28d1116200006e5780632bea28d114620001555780634bdb02e514620001ab5780634f64b2be14620001c25780635ce06dff1462000207578063b9b092c8146200021e57600080fd5b8062fdd58e14620000af5780630485506c14620000d957806306661abd14620000f25780630d2b417914620000fc5780631fdf7f6a146200013e575b600080fd5b620000c6620000c0366004620014cf565b62000235565b6040519081526020015b60405180910390f35b620000f0620000ea366004620015c3565b6200031d565b005b620000c660095481565b6200012d6200010d3660046200167a565b805160208183018101805160088252928201919093012091525460ff1681565b6040519015158152602001620000d0565b620000f06200014f3660046200153a565b62000357565b6200018b6200016636600462001520565b600760205260009081526040902080546001909101546001600160a01b039091169082565b604080516001600160a01b039093168352602083019190915201620000d0565b620000f0620001bc366004620016cc565b62000627565b620001ee620001d336600462001520565b6006602052600090815260409020546001600160a01b031681565b6040516001600160a01b039091168152602001620000d0565b620000f06200021836600462001608565b62000a34565b620000c66200022f36600462001477565b62000ae5565b6000818152600660205260408120546001600160a01b031680620002965760405162461bcd60e51b81526020600482015260136024820152721c1c9bda9958dd1259081b9bdd08199bdd5b99606a1b60448201526064015b60405180910390fd5b6040516370a0823160e01b81526001600160a01b0385811660048301528216906370a082319060240160206040518083038186803b158015620002d857600080fd5b505afa158015620002ed573d6000803e3d6000fd5b505050506040513d601f19601f82011682018060405250810190620003139190620016b2565b9150505b92915050565b600160088383604051620003339291906200176d565b908152604051908190036020019020805491151560ff199092169190911790555050565b60008681526005602052604090205486906001600160a01b03163314620003d25760405162461bcd60e51b815260206004820152602860248201527f536f75726365206d75737420626520746865206f7261636c65206f6620746865604482015267081c995c5d595cdd60c21b60648201526084016200028d565b60008181526005602052604080822080546001600160a01b03191690555182917f7cc135e0cebb02c3480ae5d74d377283180a2601f8f644edf7987b009316c63a91a2600087815260076020908152604091829020825180840190935280546001600160a01b03168352600101549082015284620004f557805160208201516040516323b872dd60e01b81523060048201526001600160a01b039092166024830152604482015273dbc4c91be4722e54672bcccb5ead82c9bcf356f6906323b872dd90606401602060405180830381600087803b158015620004b357600080fd5b505af1158015620004c8573d6000803e3d6000fd5b505050506040513d601f19601f82011682018060405250810190620004ee9190620014fc565b506200061d565b8383604051620005079291906200176d565b60405180910390208787604051620005219291906200176d565b6040518091039020897f34492e80efe5e3007f51fd61d4182a0b5e88745e0c3daf0a7100ff9c964498e8886040516200055c91815260200190565b60405180910390a460008484604051620005789291906200176d565b604080519182900390912060008181526006602052919091205483519192506001600160a01b03169081906340c10f1990620005ba8a64e8d4a510006200199b565b6040516001600160e01b031960e085901b1681526001600160a01b0390921660048301526024820152604401600060405180830381600087803b1580156200060157600080fd5b505af115801562000616573d6000803e3d6000fd5b5050505050505b5050505050505050565b60008211620006855760405162461bcd60e51b8152602060048201526024808201527f506c656173652073656e642076616c756520746f20746865207472616e7361636044820152633a34b7b760e11b60648201526084016200028d565b73dbc4c91be4722e54672bcccb5ead82c9bcf356f66323b872dd3330620006af866127106200199b565b6040516001600160e01b031960e086901b1681526001600160a01b0393841660048201529290911660248301526044820152606401602060405180830381600087803b158015620006ff57600080fd5b505af115801562000714573d6000803e3d6000fd5b505050506040513d601f19601f820116820180604052508101906200073a9190620014fc565b620007885760405162461bcd60e51b815260206004820152601f60248201527f4552432d3230207472616e7366657220646964206e6f7420737563636565640060448201526064016200028d565b6008816040516200079a91906200177d565b9081526040519081900360200190205460ff16620007fb5760405162461bcd60e51b815260206004820152601860248201527f696e76616c69642070617463682070726f6a656374206964000000000000000060448201526064016200028d565b7f34656436643338336238613634623966623434353362313831396638306666316000620008298462000b15565b9050600080620008428430630fefbfb560e11b62000c2a565b60408051808201909152600a81526964617461496e7075743160b01b6020820152909150620008749082908562000c55565b60408051808201909152600a8152693230ba30a4b7383aba1960b11b6020820152620008a39082908762000c55565b620008fd60405180604001604052806005815260200164706174683160d81b8152506040518060400160405280600e81526020016d646174612c746f6b656e5f75726960901b8152508362000c559092919063ffffffff16565b62000954604051806040016040528060058152602001643830ba341960d91b8152506040518060400160405280600b81526020016a646174612c6d6173735f6760a81b8152508362000c559092919063ffffffff16565b620009ac60405180604001604052806005815260200164706174683360d81b8152506040518060400160405280600c81526020016b19185d184b1c1c9bda9958dd60a21b8152508362000c559092919063ffffffff16565b6000620009ba828462000c7c565b6040805180820190915233815290915060208101620009dc896127106200199b565b905260008281526007602090815260408220835181546001600160a01b0319166001600160a01b03909116178155920151600190920191909155600980549162000a268362001a06565b919050555050505050505050565b6000848460405162000a489291906200176d565b60408051918290039091206000818152600660205291909120549091506001600160a01b03168062000add578585858560405162000a869062001332565b62000a9594939291906200182e565b604051809103906000f08015801562000ab2573d6000803e3d6000fd5b50600083815260066020526040902080546001600160a01b0319166001600160a01b03831617905590505b505050505050565b600062000b0d84848460405162000afe9291906200176d565b60405190819003902062000235565b949350505050565b60608162000b3a5750506040805180820190915260018152600360fc1b602082015290565b8160005b811562000b6a578062000b518162001a06565b915062000b629050600a836200187f565b915062000b3e565b6000816001600160401b0381111562000b875762000b8762001a7d565b6040519080825280601f01601f19166020018201604052801562000bb2576020820181803683370190505b5090505b841562000b0d5762000bca600183620019bd565b915062000bd9600a8662001a24565b62000be690603062001864565b60f81b81838151811062000bfe5762000bfe62001a67565b60200101906001600160f81b031916908160001a90535062000c22600a866200187f565b945062000bb6565b62000c3462001340565b62000c3e62001340565b62000c4c8186868662000c9f565b95945050505050565b608083015162000c66908362000ce0565b608083015162000c77908262000ce0565b505050565b60035460009062000c98906001600160a01b0316848462000cfb565b9392505050565b62000ca962001340565b62000cbb856080015161010062000d94565b50509183526001600160a01b031660208301526001600160e01b031916604082015290565b62000cef826003835162000e02565b62000c77828262000f25565b60045460009062000d0e81600162001864565b600455835160408086015160808701515191516000936320214ca360e11b9362000d489386938493923092918a916001916024016200179b565b60408051601f198184030181529190526020810180516001600160e01b03166001600160e01b031990931692909217909152905062000d8a8683868462000f4e565b9695505050505050565b60408051808201909152606081526000602082015262000db660208362001a24565b1562000de55762000dc960208362001a24565b62000dd6906020620019bd565b62000de2908362001864565b91505b506020828101829052604080518085526000815290920101905290565b6017816001600160401b03161162000e2f5762000e298360e0600585901b168317620010c3565b50505050565b60ff816001600160401b03161162000e705762000e58836018611fe0600586901b1617620010c3565b5062000e29836001600160401b0383166001620010ea565b61ffff816001600160401b03161162000eb25762000e9a836019611fe0600586901b1617620010c3565b5062000e29836001600160401b0383166002620010ea565b63ffffffff816001600160401b03161162000ef65762000ede83601a611fe0600586901b1617620010c3565b5062000e29836001600160401b0383166004620010ea565b62000f0d83601b611fe0600586901b1617620010c3565b5062000e29836001600160401b0383166008620010ea565b60408051808201909152606081526000602082015262000c988384600001515184855162001112565b6040516bffffffffffffffffffffffff193060601b1660208201526034810184905260009060540160408051808303601f1901815282825280516020918201206000818152600590925291812080546001600160a01b0319166001600160a01b038a1617905590925082917fb5e6e01e79f91267dc17b4e6314d5d4d03593d2ceee0fbb452b750bd70ea5af99190a2600254604051630200057560e51b81526001600160a01b0390911690634000aea090620010139088908790879060040162001805565b602060405180830381600087803b1580156200102e57600080fd5b505af115801562001043573d6000803e3d6000fd5b505050506040513d601f19601f82011682018060405250810190620010699190620014fc565b62000b0d5760405162461bcd60e51b815260206004820152602360248201527f756e61626c6520746f207472616e73666572416e6443616c6c20746f206f7261604482015262636c6560e81b60648201526084016200028d565b60408051808201909152606081526000602082015262000c98838460000151518462001211565b60408051808201909152606081526000602082015262000b0d84856000015151858562001272565b60408051808201909152606081526000602082015282518211156200113657600080fd5b602085015162001147838662001864565b11156200118357620011838562001170876020015187866200116a919062001864565b620012fe565b6200117d9060026200199b565b62001317565b600080865180518760208301019350808887011115620011a35787860182525b505050602084015b60208410620011eb5780518252620011c560208362001864565b9150620011d460208262001864565b9050620011e3602085620019bd565b9350620011ab565b51815160001960208690036101000a019081169019919091161790525083949350505050565b604080518082019091526060815260006020820152836020015183106200124a576200124a84856020015160026200117d91906200199b565b83518051602085830101848153508085141562001268576001810182525b5093949350505050565b604080518082019091526060815260006020820152602085015162001298858462001864565b1115620012b057620012b08562001170868562001864565b60006001620012c284610100620018df565b620012ce9190620019bd565b9050855183868201018583198251161781525080518487011115620012f35783860181525b509495945050505050565b6000818311156200131157508162000317565b50919050565b815162001325838362000d94565b5062000e29838262000f25565b610c2c8062001a9483390190565b6040805160a0810182526000808252602080830182905282840182905260608084018390528451808601909552845283015290608082015290565b80356001600160a01b03811681146200139357600080fd5b919050565b60008083601f840112620013ab57600080fd5b5081356001600160401b03811115620013c357600080fd5b602083019150836020828501011115620013dc57600080fd5b9250929050565b600082601f830112620013f557600080fd5b81356001600160401b038082111562001412576200141262001a7d565b604051601f8301601f19908116603f011681019082821181831017156200143d576200143d62001a7d565b816040528381528660208588010111156200145757600080fd5b836020870160208301376000602085830101528094505050505092915050565b6000806000604084860312156200148d57600080fd5b62001498846200137b565b925060208401356001600160401b03811115620014b457600080fd5b620014c28682870162001398565b9497909650939450505050565b60008060408385031215620014e357600080fd5b620014ee836200137b565b946020939093013593505050565b6000602082840312156200150f57600080fd5b8151801515811462000c9857600080fd5b6000602082840312156200153357600080fd5b5035919050565b600080600080600080608087890312156200155457600080fd5b8635955060208701356001600160401b03808211156200157357600080fd5b620015818a838b0162001398565b9097509550604089013594506060890135915080821115620015a257600080fd5b50620015b189828a0162001398565b979a9699509497509295939492505050565b60008060208385031215620015d757600080fd5b82356001600160401b03811115620015ee57600080fd5b620015fc8582860162001398565b90969095509350505050565b600080600080604085870312156200161f57600080fd5b84356001600160401b03808211156200163757600080fd5b620016458883890162001398565b909650945060208701359150808211156200165f57600080fd5b506200166e8782880162001398565b95989497509550505050565b6000602082840312156200168d57600080fd5b81356001600160401b03811115620016a457600080fd5b6200031384828501620013e3565b600060208284031215620016c557600080fd5b5051919050565b60008060408385031215620016e057600080fd5b8235915060208301356001600160401b03811115620016fe57600080fd5b6200170c85828601620013e3565b9150509250929050565b6000815180845262001730816020860160208601620019d7565b601f01601f19169290920160200192915050565b81835281816020850137506000828201602090810191909152601f909101601f19169091010190565b8183823760009101908152919050565b6000825162001791818460208701620019d7565b9190910192915050565b6001600160a01b0389811682526020820189905260408201889052861660608201526001600160e01b03198516608082015260a0810184905260c0810183905261010060e08201819052600090620017f68382018562001716565b9b9a5050505050505050505050565b60018060a01b038416815282602082015260606040820152600062000c4c606083018462001716565b6040815260006200184460408301868862001744565b82810360208401526200185981858762001744565b979650505050505050565b600082198211156200187a576200187a62001a3b565b500190565b60008262001891576200189162001a51565b500490565b600181815b80851115620018d7578160001904821115620018bb57620018bb62001a3b565b80851615620018c957918102915b93841c93908002906200189b565b509250929050565b600062000c988383600082620018f85750600162000317565b81620019075750600062000317565b81600181146200192057600281146200192b576200194b565b600191505062000317565b60ff8411156200193f576200193f62001a3b565b50506001821b62000317565b5060208310610133831016604e8410600b841016171562001970575081810a62000317565b6200197c838362001896565b806000190482111562001993576200199362001a3b565b029392505050565b6000816000190483118215151615620019b857620019b862001a3b565b500290565b600082821015620019d257620019d262001a3b565b500390565b60005b83811015620019f4578181015183820152602001620019da565b8381111562000e295750506000910152565b600060001982141562001a1d5762001a1d62001a3b565b5060010190565b60008262001a365762001a3662001a51565b500690565b634e487b7160e01b600052601160045260246000fd5b634e487b7160e01b600052601260045260246000fd5b634e487b7160e01b600052603260045260246000fd5b634e487b7160e01b600052604160045260246000fdfe60806040523480156200001157600080fd5b5060405162000c2c38038062000c2c8339810160408190526200003491620001cb565b8151829082906200004d9060039060208501906200006e565b508051620000639060049060208401906200006e565b505050505062000288565b8280546200007c9062000235565b90600052602060002090601f016020900481019282620000a05760008555620000eb565b82601f10620000bb57805160ff1916838001178555620000eb565b82800160010185558215620000eb579182015b82811115620000eb578251825591602001919060010190620000ce565b50620000f9929150620000fd565b5090565b5b80821115620000f95760008155600101620000fe565b600082601f8301126200012657600080fd5b81516001600160401b038082111562000143576200014362000272565b604051601f8301601f19908116603f011681019082821181831017156200016e576200016e62000272565b816040528381526020925086838588010111156200018b57600080fd5b600091505b83821015620001af578582018301518183018401529082019062000190565b83821115620001c15760008385830101525b9695505050505050565b60008060408385031215620001df57600080fd5b82516001600160401b0380821115620001f757600080fd5b620002058683870162000114565b935060208501519150808211156200021c57600080fd5b506200022b8582860162000114565b9150509250929050565b600181811c908216806200024a57607f821691505b602082108114156200026c57634e487b7160e01b600052602260045260246000fd5b50919050565b634e487b7160e01b600052604160045260246000fd5b61099480620002986000396000f3fe608060405234801561001057600080fd5b50600436106100b45760003560e01c806340c10f191161007157806340c10f191461014157806370a082311461015657806395d89b411461017f578063a457c2d714610187578063a9059cbb1461019a578063dd62ed3e146101ad57600080fd5b806306fdde03146100b9578063095ea7b3146100d757806318160ddd146100fa57806323b872dd1461010c578063313ce5671461011f578063395093511461012e575b600080fd5b6100c16101c0565b6040516100ce91906108a8565b60405180910390f35b6100ea6100e536600461087e565b610252565b60405190151581526020016100ce565b6002545b6040519081526020016100ce565b6100ea61011a366004610842565b61026a565b604051601281526020016100ce565b6100ea61013c36600461087e565b61028e565b61015461014f36600461087e565b6102b0565b005b6100fe6101643660046107ed565b6001600160a01b031660009081526020819052604090205490565b6100c16102be565b6100ea61019536600461087e565b6102cd565b6100ea6101a836600461087e565b61034d565b6100fe6101bb36600461080f565b61035b565b6060600380546101cf90610923565b80601f01602080910402602001604051908101604052809291908181526020018280546101fb90610923565b80156102485780601f1061021d57610100808354040283529160200191610248565b820191906000526020600020905b81548152906001019060200180831161022b57829003601f168201915b5050505050905090565b600033610260818585610386565b5060019392505050565b6000336102788582856104aa565b610283858585610524565b506001949350505050565b6000336102608185856102a1838361035b565b6102ab91906108fd565b610386565b6102ba82826106f2565b5050565b6060600480546101cf90610923565b600033816102db828661035b565b9050838110156103405760405162461bcd60e51b815260206004820152602560248201527f45524332303a2064656372656173656420616c6c6f77616e63652062656c6f77604482015264207a65726f60d81b60648201526084015b60405180910390fd5b6102838286868403610386565b600033610260818585610524565b6001600160a01b03918216600090815260016020908152604080832093909416825291909152205490565b6001600160a01b0383166103e85760405162461bcd60e51b8152602060048201526024808201527f45524332303a20617070726f76652066726f6d20746865207a65726f206164646044820152637265737360e01b6064820152608401610337565b6001600160a01b0382166104495760405162461bcd60e51b815260206004820152602260248201527f45524332303a20617070726f766520746f20746865207a65726f206164647265604482015261737360f01b6064820152608401610337565b6001600160a01b0383811660008181526001602090815260408083209487168084529482529182902085905590518481527f8c5be1e5ebec7d5bd14f71427d1e84f3dd0314c0f7b2291e5b200ac8c7c3b925910160405180910390a3505050565b60006104b6848461035b565b9050600019811461051e57818110156105115760405162461bcd60e51b815260206004820152601d60248201527f45524332303a20696e73756666696369656e7420616c6c6f77616e63650000006044820152606401610337565b61051e8484848403610386565b50505050565b6001600160a01b0383166105885760405162461bcd60e51b815260206004820152602560248201527f45524332303a207472616e736665722066726f6d20746865207a65726f206164604482015264647265737360d81b6064820152608401610337565b6001600160a01b0382166105ea5760405162461bcd60e51b815260206004820152602360248201527f45524332303a207472616e7366657220746f20746865207a65726f206164647260448201526265737360e81b6064820152608401610337565b6001600160a01b038316600090815260208190526040902054818110156106625760405162461bcd60e51b815260206004820152602660248201527f45524332303a207472616e7366657220616d6f756e7420657863656564732062604482015265616c616e636560d01b6064820152608401610337565b6001600160a01b038085166000908152602081905260408082208585039055918516815290812080548492906106999084906108fd565b92505081905550826001600160a01b0316846001600160a01b03167fddf252ad1be2c89b69c2b068fc378daa952ba7f163c4a11628f55a4df523b3ef846040516106e591815260200190565b60405180910390a361051e565b6001600160a01b0382166107485760405162461bcd60e51b815260206004820152601f60248201527f45524332303a206d696e7420746f20746865207a65726f2061646472657373006044820152606401610337565b806002600082825461075a91906108fd565b90915550506001600160a01b038216600090815260208190526040812080548392906107879084906108fd565b90915550506040518181526001600160a01b038316906000907fddf252ad1be2c89b69c2b068fc378daa952ba7f163c4a11628f55a4df523b3ef9060200160405180910390a35050565b80356001600160a01b03811681146107e857600080fd5b919050565b6000602082840312156107ff57600080fd5b610808826107d1565b9392505050565b6000806040838503121561082257600080fd5b61082b836107d1565b9150610839602084016107d1565b90509250929050565b60008060006060848603121561085757600080fd5b610860846107d1565b925061086e602085016107d1565b9150604084013590509250925092565b6000806040838503121561089157600080fd5b61089a836107d1565b946020939093013593505050565b600060208083528351808285015260005b818110156108d5578581018301518582016040015282016108b9565b818111156108e7576000604083870101525b50601f01601f1916929092016040019392505050565b6000821982111561091e57634e487b7160e01b600052601160045260246000fd5b500190565b600181811c9082168061093757607f821691505b6020821081141561095857634e487b7160e01b600052602260045260246000fd5b5091905056fea264697066735822122044dd06c31833b99d9f7373b83759ecd42c3602ffcd61009b5436e08c1609ae7564736f6c63430008070033a2646970667358221220dc76c11be83e2cfe2fe90ce900b0766db07266ee071594310994433530e6f74964736f6c63430008070033",
  "linkReferences": {},
  "deployedLinkReferences": {}
}