{
  "_format": "hh-sol-artifact-1",
  "contractName": "PatchBridge",
  "sourceName": "src/PatchBridge.sol",
  "abi": [
    {
      "anonymous": false,
      "inputs": [
        {
          "indexed": false,
          "internalType": "address",
          "name": "previousAdmin",
          "type": "address"
        },
        {
          "indexed": false,
          "internalType": "address",
          "name": "newAdmin",
          "type": "address"
        }
      ],
      "name": "AdminChanged",
      "type": "event"
    },
    {
      "anonymous": false,
      "inputs": [
        {
          "indexed": true,
          "internalType": "address",
          "name": "beacon",
          "type": "address"
        }
      ],
      "name": "BeaconUpgraded",
      "type": "event"
    },
    {
      "anonymous": false,
      "inputs": [
        {
          "indexed": true,
          "internalType": "bytes32",
          "name": "id",
          "type": "bytes32"
        }
      ],
      "name": "ChainlinkCancelled",
      "type": "event"
    },
    {
      "anonymous": false,
      "inputs": [
        {
          "indexed": true,
          "internalType": "bytes32",
          "name": "id",
          "type": "bytes32"
        }
      ],
      "name": "ChainlinkFulfilled",
      "type": "event"
    },
    {
      "anonymous": false,
      "inputs": [
        {
          "indexed": true,
          "internalType": "bytes32",
          "name": "id",
          "type": "bytes32"
        }
      ],
      "name": "ChainlinkRequested",
      "type": "event"
    },
    {
      "anonymous": false,
      "inputs": [
        {
          "indexed": false,
          "internalType": "uint8",
          "name": "version",
          "type": "uint8"
        }
      ],
      "name": "Initialized",
      "type": "event"
    },
    {
      "anonymous": false,
      "inputs": [
        {
          "indexed": false,
          "internalType": "uint256",
          "name": "price",
          "type": "uint256"
        },
        {
          "indexed": false,
          "internalType": "string",
          "name": "patchProjectId",
          "type": "string"
        }
      ],
      "name": "PreparingPurchase",
      "type": "event"
    },
    {
      "anonymous": false,
      "inputs": [
        {
          "indexed": true,
          "internalType": "bytes32",
          "name": "requestId",
          "type": "bytes32"
        },
        {
          "indexed": true,
          "internalType": "string",
          "name": "tokenURI",
          "type": "string"
        },
        {
          "indexed": false,
          "internalType": "uint256",
          "name": "mass_g",
          "type": "uint256"
        },
        {
          "indexed": true,
          "internalType": "string",
          "name": "project",
          "type": "string"
        }
      ],
      "name": "PurchaseFulfilled",
      "type": "event"
    },
    {
      "anonymous": false,
      "inputs": [
        {
          "indexed": true,
          "internalType": "address",
          "name": "implementation",
          "type": "address"
        }
      ],
      "name": "Upgraded",
      "type": "event"
    },
    {
      "inputs": [
        {
          "internalType": "string",
          "name": "patchProjectId",
          "type": "string"
        }
      ],
      "name": "addPatchProjectId",
      "outputs": [],
      "stateMutability": "nonpayable",
      "type": "function"
    },
    {
      "inputs": [
        {
          "internalType": "address",
          "name": "owner",
          "type": "address"
        },
        {
          "internalType": "uint256",
          "name": "projectId",
          "type": "uint256"
        }
      ],
      "name": "balanceOf",
      "outputs": [
        {
          "internalType": "uint256",
          "name": "balance",
          "type": "uint256"
        }
      ],
      "stateMutability": "view",
      "type": "function"
    },
    {
      "inputs": [
        {
          "internalType": "address",
          "name": "owner",
          "type": "address"
        },
        {
          "internalType": "string",
          "name": "project",
          "type": "string"
        }
      ],
      "name": "balanceOf",
      "outputs": [
        {
          "internalType": "uint256",
          "name": "balance",
          "type": "uint256"
        }
      ],
      "stateMutability": "view",
      "type": "function"
    },
    {
      "inputs": [],
      "name": "count",
      "outputs": [
        {
          "internalType": "uint256",
          "name": "",
          "type": "uint256"
        }
      ],
      "stateMutability": "view",
      "type": "function"
    },
    {
      "inputs": [],
      "name": "count3",
      "outputs": [
        {
          "internalType": "uint256",
          "name": "",
          "type": "uint256"
        }
      ],
      "stateMutability": "view",
      "type": "function"
    },
    {
      "inputs": [
        {
          "internalType": "uint256",
          "name": "priceInPenny",
          "type": "uint256"
        },
        {
          "internalType": "string",
          "name": "patchProjectId",
          "type": "string"
        }
      ],
      "name": "executeBuy",
      "outputs": [],
      "stateMutability": "nonpayable",
      "type": "function"
    },
    {
      "inputs": [
        {
          "internalType": "bytes32",
          "name": "requestId",
          "type": "bytes32"
        },
        {
          "internalType": "string",
          "name": "tokenURI",
          "type": "string"
        },
        {
          "internalType": "uint256",
          "name": "mass_g",
          "type": "uint256"
        },
        {
          "internalType": "string",
          "name": "project",
          "type": "string"
        }
      ],
      "name": "fulfillBytes",
      "outputs": [],
      "stateMutability": "nonpayable",
      "type": "function"
    },
    {
      "inputs": [
        {
          "internalType": "string",
          "name": "project",
          "type": "string"
        },
        {
          "internalType": "string",
          "name": "symbol",
          "type": "string"
        }
      ],
      "name": "generateFT",
      "outputs": [],
      "stateMutability": "nonpayable",
      "type": "function"
    },
    {
      "inputs": [],
      "name": "initialize",
      "outputs": [],
      "stateMutability": "nonpayable",
      "type": "function"
    },
    {
      "inputs": [],
      "name": "proxiableUUID",
      "outputs": [
        {
          "internalType": "bytes32",
          "name": "",
          "type": "bytes32"
        }
      ],
      "stateMutability": "view",
      "type": "function"
    },
    {
      "inputs": [
        {
          "internalType": "bytes32",
          "name": "",
          "type": "bytes32"
        }
      ],
      "name": "reciepts",
      "outputs": [
        {
          "internalType": "address",
          "name": "purchaser",
          "type": "address"
        },
        {
          "internalType": "uint256",
          "name": "amount",
          "type": "uint256"
        }
      ],
      "stateMutability": "view",
      "type": "function"
    },
    {
      "inputs": [
        {
          "internalType": "bytes4",
          "name": "interfaceId",
          "type": "bytes4"
        }
      ],
      "name": "supportsInterface",
      "outputs": [
        {
          "internalType": "bool",
          "name": "",
          "type": "bool"
        }
      ],
      "stateMutability": "view",
      "type": "function"
    },
    {
      "inputs": [
        {
          "internalType": "uint256",
          "name": "",
          "type": "uint256"
        }
      ],
      "name": "tokens",
      "outputs": [
        {
          "internalType": "contract ProjectFT",
          "name": "",
          "type": "address"
        }
      ],
      "stateMutability": "view",
      "type": "function"
    },
    {
      "inputs": [
        {
          "internalType": "address",
          "name": "newImplementation",
          "type": "address"
        }
      ],
      "name": "upgradeTo",
      "outputs": [],
      "stateMutability": "nonpayable",
      "type": "function"
    },
    {
      "inputs": [
        {
          "internalType": "address",
          "name": "newImplementation",
          "type": "address"
        },
        {
          "internalType": "bytes",
          "name": "data",
          "type": "bytes"
        }
      ],
      "name": "upgradeToAndCall",
      "outputs": [],
      "stateMutability": "payable",
      "type": "function"
    },
    {
      "inputs": [
        {
          "internalType": "string",
          "name": "",
          "type": "string"
        }
      ],
      "name": "validPatchProjectId",
      "outputs": [
        {
          "internalType": "bool",
          "name": "",
          "type": "bool"
        }
      ],
      "stateMutability": "view",
      "type": "function"
    }
  ],
  "bytecode": "0x60a06040523060601b60805234801561001757600080fd5b5060805160601c6132b5610052600039600081816107d30152818161081601528181610ccc01528181610d0f0152610dab01526132b56000f3fe608060405260043610620001065760003560e01c80634bdb02e511620000955780635ce06dff11620000605780635ce06dff146200035c5780637b1d829c14620003815780638129fc1c1462000399578063b9b092c814620003b157600080fd5b80634bdb02e514620002b55780634f1ef28614620002da5780634f64b2be14620002f157806352d1902d146200034457600080fd5b80630d2b417911620000d65780630d2b417914620001c85780631fdf7f6a14620002075780632bea28d1146200022c5780633659cfe6146200029057600080fd5b8062fdd58e146200010b57806301ffc9a714620001435780630485506c146200018957806306661abd14620001b0575b600080fd5b3480156200011857600080fd5b50620001306200012a36600462001f2b565b620003d6565b6040519081526020015b60405180910390f35b3480156200015057600080fd5b50620001786200016236600462002039565b6001600160e01b0319166301ffc9a760e01b1490565b60405190151581526020016200013a565b3480156200019657600080fd5b50620001ae620001a836600462002065565b620004be565b005b348015620001bd57600080fd5b506200013060d25481565b348015620001d557600080fd5b5062000178620001e73660046200211c565b805160208183018101805160d18252928201919093012091525460ff1681565b3480156200021457600080fd5b50620001ae6200022636600462001fb0565b620004f8565b3480156200023957600080fd5b50620002706200024b36600462001f7c565b60d060205260009081526040902080546001909101546001600160a01b039091169082565b604080516001600160a01b0390931683526020830191909152016200013a565b3480156200029d57600080fd5b50620001ae620002af36600462001e4d565b620007c8565b348015620002c257600080fd5b50620001ae620002d436600462002154565b620008b4565b620001ae620002eb36600462001e6b565b62000cc1565b348015620002fe57600080fd5b506200032b6200031036600462001f7c565b60cf602052600090815260409020546001600160a01b031681565b6040516001600160a01b0390911681526020016200013a565b3480156200035157600080fd5b506200013062000d9e565b3480156200036957600080fd5b50620001ae6200037b366004620020aa565b62000e54565b3480156200038e57600080fd5b506200013060d35481565b348015620003a657600080fd5b50620001ae62000f05565b348015620003be57600080fd5b5062000130620003d036600462001ed3565b62000fcc565b600081815260cf60205260408120546001600160a01b031680620004375760405162461bcd60e51b81526020600482015260136024820152721c1c9bda9958dd1259081b9bdd08199bdd5b99606a1b60448201526064015b60405180910390fd5b6040516370a0823160e01b81526001600160a01b0385811660048301528216906370a082319060240160206040518083038186803b1580156200047957600080fd5b505afa1580156200048e573d6000803e3d6000fd5b505050506040513d601f19601f82011682018060405250810190620004b4919062001f96565b9150505b92915050565b600160d18383604051620004d4929190620021eb565b908152604051908190036020019020805491151560ff199092169190911790555050565b600086815260ce602052604090205486906001600160a01b03163314620005735760405162461bcd60e51b815260206004820152602860248201527f536f75726365206d75737420626520746865206f7261636c65206f6620746865604482015267081c995c5d595cdd60c21b60648201526084016200042e565b600081815260ce602052604080822080546001600160a01b03191690555182917f7cc135e0cebb02c3480ae5d74d377283180a2601f8f644edf7987b009316c63a91a2600087815260d06020908152604091829020825180840190935280546001600160a01b031683526001015490820152846200069657805160208201516040516323b872dd60e01b81523060048201526001600160a01b039092166024830152604482015273dbc4c91be4722e54672bcccb5ead82c9bcf356f6906323b872dd90606401602060405180830381600087803b1580156200065457600080fd5b505af115801562000669573d6000803e3d6000fd5b505050506040513d601f19601f820116820180604052508101906200068f919062001f58565b50620007be565b8383604051620006a8929190620021eb565b60405180910390208787604051620006c2929190620021eb565b6040518091039020897f34492e80efe5e3007f51fd61d4182a0b5e88745e0c3daf0a7100ff9c964498e888604051620006fd91815260200190565b60405180910390a46000848460405162000719929190620021eb565b6040805191829003909120600081815260cf602052919091205483519192506001600160a01b03169081906340c10f19906200075b8a64e8d4a5100062002514565b6040516001600160e01b031960e085901b1681526001600160a01b0390921660048301526024820152604401600060405180830381600087803b158015620007a257600080fd5b505af1158015620007b7573d6000803e3d6000fd5b5050505050505b5050505050505050565b306001600160a01b037f0000000000000000000000000000000000000000000000000000000000000000161415620008145760405162461bcd60e51b81526004016200042e90620022f7565b7f00000000000000000000000000000000000000000000000000000000000000006001600160a01b03166200085f60008051602062003239833981519152546001600160a01b031690565b6001600160a01b031614620008885760405162461bcd60e51b81526004016200042e9062002343565b620008938162000ffe565b60408051600080825260208201909252620008b19183919062001089565b50565b60008211620009125760405162461bcd60e51b8152602060048201526024808201527f506c656173652073656e642076616c756520746f20746865207472616e7361636044820152633a34b7b760e11b60648201526084016200042e565b73dbc4c91be4722e54672bcccb5ead82c9bcf356f66323b872dd33306200093c8661271062002514565b6040516001600160e01b031960e086901b1681526001600160a01b0393841660048201529290911660248301526044820152606401602060405180830381600087803b1580156200098c57600080fd5b505af1158015620009a1573d6000803e3d6000fd5b505050506040513d601f19601f82011682018060405250810190620009c7919062001f58565b62000a155760405162461bcd60e51b815260206004820152601f60248201527f4552432d3230207472616e7366657220646964206e6f7420737563636565640060448201526064016200042e565b60d18160405162000a279190620021fb565b9081526040519081900360200190205460ff1662000a885760405162461bcd60e51b815260206004820152601860248201527f696e76616c69642070617463682070726f6a656374206964000000000000000060448201526064016200042e565b7f3465643664333833623861363462396662343435336231383139663830666631600062000ab68462001216565b905060008062000acf8430630fefbfb560e11b62001333565b60408051808201909152600a81526964617461496e7075743160b01b602082015290915062000b01908290856200135e565b60408051808201909152600a8152693230ba30a4b7383aba1960b11b602082015262000b30908290876200135e565b62000b8a60405180604001604052806005815260200164706174683160d81b8152506040518060400160405280600e81526020016d646174612c746f6b656e5f75726960901b815250836200135e9092919063ffffffff16565b62000be1604051806040016040528060058152602001643830ba341960d91b8152506040518060400160405280600b81526020016a646174612c6d6173735f6760a81b815250836200135e9092919063ffffffff16565b62000c3960405180604001604052806005815260200164706174683360d81b8152506040518060400160405280600c81526020016b19185d184b1c1c9bda9958dd60a21b815250836200135e9092919063ffffffff16565b600062000c47828462001380565b604080518082019091523381529091506020810162000c698961271062002514565b9052600082815260d0602090815260408220835181546001600160a01b0319166001600160a01b0390911617815592015160019092019190915560d280549162000cb3836200257f565b919050555050505050505050565b306001600160a01b037f000000000000000000000000000000000000000000000000000000000000000016141562000d0d5760405162461bcd60e51b81526004016200042e90620022f7565b7f00000000000000000000000000000000000000000000000000000000000000006001600160a01b031662000d5860008051602062003239833981519152546001600160a01b031690565b6001600160a01b03161462000d815760405162461bcd60e51b81526004016200042e9062002343565b62000d8c8262000ffe565b62000d9a8282600162001089565b5050565b6000306001600160a01b037f0000000000000000000000000000000000000000000000000000000000000000161462000e405760405162461bcd60e51b815260206004820152603860248201527f555550535570677261646561626c653a206d757374206e6f742062652063616c60448201527f6c6564207468726f7567682064656c656761746563616c6c000000000000000060648201526084016200042e565b506000805160206200323983398151915290565b6000848460405162000e68929190620021eb565b6040805191829003909120600081815260cf60205291909120549091506001600160a01b03168062000efd578585858560405162000ea69062001d02565b62000eb59493929190620022ac565b604051809103906000f08015801562000ed2573d6000803e3d6000fd5b50600083815260cf6020526040902080546001600160a01b0319166001600160a01b03831617905590505b505050505050565b600062000f1360016200139c565b9050801562000f2c576000805461ff0019166101001790555b62000f37600160cd55565b60cb80546001600160a01b03191673326c977e6efc84e512bb9c30f76e30c160ed06fb17905560cc80546001600160a01b03191673edaa6962cf1368a92e244ddc11aac49c0a0acc371790558015620008b1576000805461ff0019169055604051600181527f7f26b83ff96e1f2b6a682f133852f6798a09c465da95921460cefb38474024989060200160405180910390a150565b600062000ff484848460405162000fe5929190620021eb565b604051908190039020620003d6565b90505b9392505050565b3373a40438076c5d9bee90490870b359398af73ff88014620008b15760405162461bcd60e51b815260206004820152603960248201527f596f75206d75737420686176652061204d61696e7461696e657220746f6b656e60448201527f20746f20757067726164652074686520636f6e74726163742e0000000000000060648201526084016200042e565b7f4910fdfa16fed3260ed0e7147f7cc6da11a60208b5b9406d12a635614ffd91435460ff1615620010c457620010bf8362001431565b505050565b826001600160a01b03166352d1902d6040518163ffffffff1660e01b815260040160206040518083038186803b158015620010fe57600080fd5b505afa92505050801562001131575060408051601f3d908101601f191682019092526200112e9181019062001f96565b60015b620011965760405162461bcd60e51b815260206004820152602e60248201527f45524331393637557067726164653a206e657720696d706c656d656e7461746960448201526d6f6e206973206e6f74205555505360901b60648201526084016200042e565b600080516020620032398339815191528114620012085760405162461bcd60e51b815260206004820152602960248201527f45524331393637557067726164653a20756e737570706f727465642070726f786044820152681a58589b195555525160ba1b60648201526084016200042e565b50620010bf838383620014d0565b6060816200123b5750506040805180820190915260018152600360fc1b602082015290565b8160005b81156200126b578062001252816200257f565b9150620012639050600a83620023f8565b91506200123f565b6000816001600160401b03811115620012885762001288620025f6565b6040519080825280601f01601f191660200182016040528015620012b3576020820181803683370190505b5090505b84156200132b57620012cb60018362002536565b9150620012da600a866200259d565b620012e7906030620023dd565b60f81b818381518110620012ff57620012ff620025e0565b60200101906001600160f81b031916908160001a90535062001323600a86620023f8565b9450620012b7565b949350505050565b6200133d62001d10565b6200134762001d10565b620013558186868662001501565b95945050505050565b60808301516200136f908362001542565b6080830151620010bf908262001542565b60cc5460009062000ff7906001600160a01b031684846200155d565b60008054610100900460ff1615620013e8578160ff166001148015620013c15750303b155b620013e05760405162461bcd60e51b81526004016200042e906200238f565b506000919050565b60005460ff808416911610620014125760405162461bcd60e51b81526004016200042e906200238f565b506000805460ff191660ff92909216919091179055600190565b919050565b6001600160a01b0381163b620014a05760405162461bcd60e51b815260206004820152602d60248201527f455243313936373a206e657720696d706c656d656e746174696f6e206973206e60448201526c1bdd08184818dbdb9d1c9858dd609a1b60648201526084016200042e565b6000805160206200323983398151915280546001600160a01b0319166001600160a01b0392909216919091179055565b620014db83620015f6565b600082511180620014e95750805b15620010bf57620014fb838362001638565b50505050565b6200150b62001d10565b6200151d85608001516101006200172c565b50509183526001600160a01b031660208301526001600160e01b031916604082015290565b6200155182600383516200179a565b620010bf8282620018b7565b60cd5460009062001570816001620023dd565b60cd55835160408086015160808701515191516000936320214ca360e11b93620015aa9386938493923092918a9160019160240162002219565b60408051601f198184030181529190526020810180516001600160e01b03166001600160e01b0319909316929092179091529050620015ec86838684620018e0565b9695505050505050565b620016018162001431565b6040516001600160a01b038216907fbc7cd75a20ee27fd9adebab32041f755214dbc6bffa90cc0225b39da2e5c2d3b90600090a250565b60606001600160a01b0383163b620016a25760405162461bcd60e51b815260206004820152602660248201527f416464726573733a2064656c65676174652063616c6c20746f206e6f6e2d636f6044820152651b9d1c9858dd60d21b60648201526084016200042e565b600080846001600160a01b031684604051620016bf9190620021fb565b600060405180830381855af49150503d8060008114620016fc576040519150601f19603f3d011682016040523d82523d6000602084013e62001701565b606091505b5091509150620013558282604051806060016040528060278152602001620032596027913962001a55565b6040805180820190915260608152600060208201526200174e6020836200259d565b156200177d57620017616020836200259d565b6200176e90602062002536565b6200177a9083620023dd565b91505b506020828101829052604080518085526000815290920101905290565b6017816001600160401b031611620017c157620014fb8360e0600585901b16831762001a93565b60ff816001600160401b0316116200180257620017ea836018611fe0600586901b161762001a93565b50620014fb836001600160401b038316600162001aba565b61ffff816001600160401b03161162001844576200182c836019611fe0600586901b161762001a93565b50620014fb836001600160401b038316600262001aba565b63ffffffff816001600160401b03161162001888576200187083601a611fe0600586901b161762001a93565b50620014fb836001600160401b038316600462001aba565b6200189f83601b611fe0600586901b161762001a93565b50620014fb836001600160401b038316600862001aba565b60408051808201909152606081526000602082015262000ff78384600001515184855162001ae2565b6040516bffffffffffffffffffffffff193060601b1660208201526034810184905260009060540160408051808303601f190181528282528051602091820120600081815260ce90925291812080546001600160a01b0319166001600160a01b038a1617905590925082917fb5e6e01e79f91267dc17b4e6314d5d4d03593d2ceee0fbb452b750bd70ea5af99190a260cb54604051630200057560e51b81526001600160a01b0390911690634000aea090620019a59088908790879060040162002283565b602060405180830381600087803b158015620019c057600080fd5b505af1158015620019d5573d6000803e3d6000fd5b505050506040513d601f19601f82011682018060405250810190620019fb919062001f58565b6200132b5760405162461bcd60e51b815260206004820152602360248201527f756e61626c6520746f207472616e73666572416e6443616c6c20746f206f7261604482015262636c6560e81b60648201526084016200042e565b6060831562001a6657508162000ff7565b82511562001a775782518084602001fd5b8160405162461bcd60e51b81526004016200042e9190620022e2565b60408051808201909152606081526000602082015262000ff7838460000151518462001be1565b60408051808201909152606081526000602082015262000ff484856000015151858562001c42565b604080518082019091526060815260006020820152825182111562001b0657600080fd5b602085015162001b178386620023dd565b111562001b535762001b538562001b408760200151878662001b3a9190620023dd565b62001cce565b62001b4d90600262002514565b62001ce7565b60008086518051876020830101935080888701111562001b735787860182525b505050602084015b6020841062001bbb578051825262001b95602083620023dd565b915062001ba4602082620023dd565b905062001bb360208562002536565b935062001b7b565b51815160001960208690036101000a019081169019919091161790525083949350505050565b6040805180820190915260608152600060208201528360200151831062001c1a5762001c1a848560200151600262001b4d919062002514565b83518051602085830101848153508085141562001c38576001810182525b5093949350505050565b604080518082019091526060815260006020820152602085015162001c688584620023dd565b111562001c805762001c808562001b408685620023dd565b6000600162001c928461010062002458565b62001c9e919062002536565b905085518386820101858319825116178152508051848701111562001cc35783860181525b509495945050505050565b60008183111562001ce1575081620004b8565b50919050565b815162001cf583836200172c565b50620014fb8382620018b7565b610c2c806200260d83390190565b6040805160a0810182526000808252602080830182905282840182905260608084018390528451808601909552845283015290608082015290565b60006001600160401b038084111562001d685762001d68620025f6565b604051601f8501601f19908116603f0116810190828211818310171562001d935762001d93620025f6565b8160405280935085815286868601111562001dad57600080fd5b858560208301376000602087830101525050509392505050565b80356001600160a01b03811681146200142c57600080fd5b60008083601f84011262001df257600080fd5b5081356001600160401b0381111562001e0a57600080fd5b60208301915083602082850101111562001e2357600080fd5b9250929050565b600082601f83011262001e3c57600080fd5b62000ff78383356020850162001d4b565b60006020828403121562001e6057600080fd5b62000ff78262001dc7565b6000806040838503121562001e7f57600080fd5b62001e8a8362001dc7565b915060208301356001600160401b0381111562001ea657600080fd5b8301601f8101851362001eb857600080fd5b62001ec98582356020840162001d4b565b9150509250929050565b60008060006040848603121562001ee957600080fd5b62001ef48462001dc7565b925060208401356001600160401b0381111562001f1057600080fd5b62001f1e8682870162001ddf565b9497909650939450505050565b6000806040838503121562001f3f57600080fd5b62001f4a8362001dc7565b946020939093013593505050565b60006020828403121562001f6b57600080fd5b8151801515811462000ff757600080fd5b60006020828403121562001f8f57600080fd5b5035919050565b60006020828403121562001fa957600080fd5b5051919050565b6000806000806000806080878903121562001fca57600080fd5b8635955060208701356001600160401b038082111562001fe957600080fd5b62001ff78a838b0162001ddf565b90975095506040890135945060608901359150808211156200201857600080fd5b506200202789828a0162001ddf565b979a9699509497509295939492505050565b6000602082840312156200204c57600080fd5b81356001600160e01b03198116811462000ff757600080fd5b600080602083850312156200207957600080fd5b82356001600160401b038111156200209057600080fd5b6200209e8582860162001ddf565b90969095509350505050565b60008060008060408587031215620020c157600080fd5b84356001600160401b0380821115620020d957600080fd5b620020e78883890162001ddf565b909650945060208701359150808211156200210157600080fd5b50620021108782880162001ddf565b95989497509550505050565b6000602082840312156200212f57600080fd5b81356001600160401b038111156200214657600080fd5b620004b48482850162001e2a565b600080604083850312156200216857600080fd5b8235915060208301356001600160401b038111156200218657600080fd5b62001ec98582860162001e2a565b60008151808452620021ae81602086016020860162002550565b601f01601f19169290920160200192915050565b81835281816020850137506000828201602090810191909152601f909101601f19169091010190565b8183823760009101908152919050565b600082516200220f81846020870162002550565b9190910192915050565b6001600160a01b0389811682526020820189905260408201889052861660608201526001600160e01b03198516608082015260a0810184905260c0810183905261010060e08201819052600090620022748382018562002194565b9b9a5050505050505050505050565b60018060a01b038416815282602082015260606040820152600062001355606083018462002194565b604081526000620022c2604083018688620021c2565b8281036020840152620022d7818587620021c2565b979650505050505050565b60208152600062000ff7602083018462002194565b6020808252602c908201527f46756e6374696f6e206d7573742062652063616c6c6564207468726f7567682060408201526b19195b1959d85d1958d85b1b60a21b606082015260800190565b6020808252602c908201527f46756e6374696f6e206d7573742062652063616c6c6564207468726f7567682060408201526b6163746976652070726f787960a01b606082015260800190565b6020808252602e908201527f496e697469616c697a61626c653a20636f6e747261637420697320616c72656160408201526d191e481a5b9a5d1a585b1a5e995960921b606082015260800190565b60008219821115620023f357620023f3620025b4565b500190565b6000826200240a576200240a620025ca565b500490565b600181815b8085111562002450578160001904821115620024345762002434620025b4565b808516156200244257918102915b93841c939080029062002414565b509250929050565b600062000ff783836000826200247157506001620004b8565b816200248057506000620004b8565b8160018114620024995760028114620024a457620024c4565b6001915050620004b8565b60ff841115620024b857620024b8620025b4565b50506001821b620004b8565b5060208310610133831016604e8410600b8410161715620024e9575081810a620004b8565b620024f583836200240f565b80600019048211156200250c576200250c620025b4565b029392505050565b6000816000190483118215151615620025315762002531620025b4565b500290565b6000828210156200254b576200254b620025b4565b500390565b60005b838110156200256d57818101518382015260200162002553565b83811115620014fb5750506000910152565b6000600019821415620025965762002596620025b4565b5060010190565b600082620025af57620025af620025ca565b500690565b634e487b7160e01b600052601160045260246000fd5b634e487b7160e01b600052601260045260246000fd5b634e487b7160e01b600052603260045260246000fd5b634e487b7160e01b600052604160045260246000fdfe60806040523480156200001157600080fd5b5060405162000c2c38038062000c2c8339810160408190526200003491620001cb565b8151829082906200004d9060039060208501906200006e565b508051620000639060049060208401906200006e565b505050505062000288565b8280546200007c9062000235565b90600052602060002090601f016020900481019282620000a05760008555620000eb565b82601f10620000bb57805160ff1916838001178555620000eb565b82800160010185558215620000eb579182015b82811115620000eb578251825591602001919060010190620000ce565b50620000f9929150620000fd565b5090565b5b80821115620000f95760008155600101620000fe565b600082601f8301126200012657600080fd5b81516001600160401b038082111562000143576200014362000272565b604051601f8301601f19908116603f011681019082821181831017156200016e576200016e62000272565b816040528381526020925086838588010111156200018b57600080fd5b600091505b83821015620001af578582018301518183018401529082019062000190565b83821115620001c15760008385830101525b9695505050505050565b60008060408385031215620001df57600080fd5b82516001600160401b0380821115620001f757600080fd5b620002058683870162000114565b935060208501519150808211156200021c57600080fd5b506200022b8582860162000114565b9150509250929050565b600181811c908216806200024a57607f821691505b602082108114156200026c57634e487b7160e01b600052602260045260246000fd5b50919050565b634e487b7160e01b600052604160045260246000fd5b61099480620002986000396000f3fe608060405234801561001057600080fd5b50600436106100b45760003560e01c806340c10f191161007157806340c10f191461014157806370a082311461015657806395d89b411461017f578063a457c2d714610187578063a9059cbb1461019a578063dd62ed3e146101ad57600080fd5b806306fdde03146100b9578063095ea7b3146100d757806318160ddd146100fa57806323b872dd1461010c578063313ce5671461011f578063395093511461012e575b600080fd5b6100c16101c0565b6040516100ce91906108a8565b60405180910390f35b6100ea6100e536600461087e565b610252565b60405190151581526020016100ce565b6002545b6040519081526020016100ce565b6100ea61011a366004610842565b61026a565b604051601281526020016100ce565b6100ea61013c36600461087e565b61028e565b61015461014f36600461087e565b6102b0565b005b6100fe6101643660046107ed565b6001600160a01b031660009081526020819052604090205490565b6100c16102be565b6100ea61019536600461087e565b6102cd565b6100ea6101a836600461087e565b61034d565b6100fe6101bb36600461080f565b61035b565b6060600380546101cf90610923565b80601f01602080910402602001604051908101604052809291908181526020018280546101fb90610923565b80156102485780601f1061021d57610100808354040283529160200191610248565b820191906000526020600020905b81548152906001019060200180831161022b57829003601f168201915b5050505050905090565b600033610260818585610386565b5060019392505050565b6000336102788582856104aa565b610283858585610524565b506001949350505050565b6000336102608185856102a1838361035b565b6102ab91906108fd565b610386565b6102ba82826106f2565b5050565b6060600480546101cf90610923565b600033816102db828661035b565b9050838110156103405760405162461bcd60e51b815260206004820152602560248201527f45524332303a2064656372656173656420616c6c6f77616e63652062656c6f77604482015264207a65726f60d81b60648201526084015b60405180910390fd5b6102838286868403610386565b600033610260818585610524565b6001600160a01b03918216600090815260016020908152604080832093909416825291909152205490565b6001600160a01b0383166103e85760405162461bcd60e51b8152602060048201526024808201527f45524332303a20617070726f76652066726f6d20746865207a65726f206164646044820152637265737360e01b6064820152608401610337565b6001600160a01b0382166104495760405162461bcd60e51b815260206004820152602260248201527f45524332303a20617070726f766520746f20746865207a65726f206164647265604482015261737360f01b6064820152608401610337565b6001600160a01b0383811660008181526001602090815260408083209487168084529482529182902085905590518481527f8c5be1e5ebec7d5bd14f71427d1e84f3dd0314c0f7b2291e5b200ac8c7c3b925910160405180910390a3505050565b60006104b6848461035b565b9050600019811461051e57818110156105115760405162461bcd60e51b815260206004820152601d60248201527f45524332303a20696e73756666696369656e7420616c6c6f77616e63650000006044820152606401610337565b61051e8484848403610386565b50505050565b6001600160a01b0383166105885760405162461bcd60e51b815260206004820152602560248201527f45524332303a207472616e736665722066726f6d20746865207a65726f206164604482015264647265737360d81b6064820152608401610337565b6001600160a01b0382166105ea5760405162461bcd60e51b815260206004820152602360248201527f45524332303a207472616e7366657220746f20746865207a65726f206164647260448201526265737360e81b6064820152608401610337565b6001600160a01b038316600090815260208190526040902054818110156106625760405162461bcd60e51b815260206004820152602660248201527f45524332303a207472616e7366657220616d6f756e7420657863656564732062604482015265616c616e636560d01b6064820152608401610337565b6001600160a01b038085166000908152602081905260408082208585039055918516815290812080548492906106999084906108fd565b92505081905550826001600160a01b0316846001600160a01b03167fddf252ad1be2c89b69c2b068fc378daa952ba7f163c4a11628f55a4df523b3ef846040516106e591815260200190565b60405180910390a361051e565b6001600160a01b0382166107485760405162461bcd60e51b815260206004820152601f60248201527f45524332303a206d696e7420746f20746865207a65726f2061646472657373006044820152606401610337565b806002600082825461075a91906108fd565b90915550506001600160a01b038216600090815260208190526040812080548392906107879084906108fd565b90915550506040518181526001600160a01b038316906000907fddf252ad1be2c89b69c2b068fc378daa952ba7f163c4a11628f55a4df523b3ef9060200160405180910390a35050565b80356001600160a01b03811681146107e857600080fd5b919050565b6000602082840312156107ff57600080fd5b610808826107d1565b9392505050565b6000806040838503121561082257600080fd5b61082b836107d1565b9150610839602084016107d1565b90509250929050565b60008060006060848603121561085757600080fd5b610860846107d1565b925061086e602085016107d1565b9150604084013590509250925092565b6000806040838503121561089157600080fd5b61089a836107d1565b946020939093013593505050565b600060208083528351808285015260005b818110156108d5578581018301518582016040015282016108b9565b818111156108e7576000604083870101525b50601f01601f1916929092016040019392505050565b6000821982111561091e57634e487b7160e01b600052601160045260246000fd5b500190565b600181811c9082168061093757607f821691505b6020821081141561095857634e487b7160e01b600052602260045260246000fd5b5091905056fea26469706673582212205082ddbbbe4ad55e9adf728db69c1fe60e71a72b954a7531f2d216f2054a773b64736f6c63430008070033360894a13ba1a3210667c828492db98dca3e2076cc3735a920a3ca505d382bbc416464726573733a206c6f772d6c6576656c2064656c65676174652063616c6c206661696c6564a2646970667358221220d23a1109f65f6ada1161422765deff5a52300ce45f729f5a528b9600cdf78a9064736f6c63430008070033",
  "linkReferences": {},
  "deployedLinkReferences": {}
}