{
  "_format": "hh-sol-artifact-1",
  "contractName": "OFT",
  "sourceName": "@layerzerolabs/solidity-examples/contracts/token/oft/OFT.sol",
  "abi": [
    {
      "inputs": [
        {
          "internalType": "string",
          "name": "_name",
          "type": "string"
        },
        {
          "internalType": "string",
          "name": "_symbol",
          "type": "string"
        },
        {
          "internalType": "address",
          "name": "_lzEndpoint",
          "type": "address"
        }
      ],
      "stateMutability": "nonpayable",
      "type": "constructor"
    },
    {
      "anonymous": false,
      "inputs": [
        {
          "indexed": true,
          "internalType": "address",
          "name": "owner",
          "type": "address"
        },
        {
          "indexed": true,
          "internalType": "address",
          "name": "spender",
          "type": "address"
        },
        {
          "indexed": false,
          "internalType": "uint256",
          "name": "value",
          "type": "uint256"
        }
      ],
      "name": "Approval",
      "type": "event"
    },
    {
      "anonymous": false,
      "inputs": [
        {
          "indexed": false,
          "internalType": "uint16",
          "name": "_srcChainId",
          "type": "uint16"
        },
        {
          "indexed": false,
          "internalType": "bytes",
          "name": "_srcAddress",
          "type": "bytes"
        },
        {
          "indexed": false,
          "internalType": "uint64",
          "name": "_nonce",
          "type": "uint64"
        },
        {
          "indexed": false,
          "internalType": "bytes",
          "name": "_payload",
          "type": "bytes"
        }
      ],
      "name": "MessageFailed",
      "type": "event"
    },
    {
      "anonymous": false,
      "inputs": [
        {
          "indexed": true,
          "internalType": "address",
          "name": "previousOwner",
          "type": "address"
        },
        {
          "indexed": true,
          "internalType": "address",
          "name": "newOwner",
          "type": "address"
        }
      ],
      "name": "OwnershipTransferred",
      "type": "event"
    },
    {
      "anonymous": false,
      "inputs": [
        {
          "indexed": true,
          "internalType": "uint16",
          "name": "_srcChainId",
          "type": "uint16"
        },
        {
          "indexed": true,
          "internalType": "bytes",
          "name": "_srcAddress",
          "type": "bytes"
        },
        {
          "indexed": true,
          "internalType": "address",
          "name": "_toAddress",
          "type": "address"
        },
        {
          "indexed": false,
          "internalType": "uint256",
          "name": "_amount",
          "type": "uint256"
        },
        {
          "indexed": false,
          "internalType": "uint64",
          "name": "_nonce",
          "type": "uint64"
        }
      ],
      "name": "ReceiveFromChain",
      "type": "event"
    },
    {
      "anonymous": false,
      "inputs": [
        {
          "indexed": true,
          "internalType": "address",
          "name": "_sender",
          "type": "address"
        },
        {
          "indexed": true,
          "internalType": "uint16",
          "name": "_dstChainId",
          "type": "uint16"
        },
        {
          "indexed": true,
          "internalType": "bytes",
          "name": "_toAddress",
          "type": "bytes"
        },
        {
          "indexed": false,
          "internalType": "uint256",
          "name": "_amount",
          "type": "uint256"
        },
        {
          "indexed": false,
          "internalType": "uint64",
          "name": "_nonce",
          "type": "uint64"
        }
      ],
      "name": "SendToChain",
      "type": "event"
    },
    {
      "anonymous": false,
      "inputs": [
        {
          "indexed": false,
          "internalType": "uint16",
          "name": "_srcChainId",
          "type": "uint16"
        },
        {
          "indexed": false,
          "internalType": "bytes",
          "name": "_srcAddress",
          "type": "bytes"
        }
      ],
      "name": "SetTrustedRemote",
      "type": "event"
    },
    {
      "anonymous": false,
      "inputs": [
        {
          "indexed": true,
          "internalType": "address",
          "name": "from",
          "type": "address"
        },
        {
          "indexed": true,
          "internalType": "address",
          "name": "to",
          "type": "address"
        },
        {
          "indexed": false,
          "internalType": "uint256",
          "name": "value",
          "type": "uint256"
        }
      ],
      "name": "Transfer",
      "type": "event"
    },
    {
      "inputs": [
        {
          "internalType": "address",
          "name": "owner",
          "type": "address"
        },
        {
          "internalType": "address",
          "name": "spender",
          "type": "address"
        }
      ],
      "name": "allowance",
      "outputs": [
        {
          "internalType": "uint256",
          "name": "",
          "type": "uint256"
        }
      ],
      "stateMutability": "view",
      "type": "function"
    },
    {
      "inputs": [
        {
          "internalType": "address",
          "name": "spender",
          "type": "address"
        },
        {
          "internalType": "uint256",
          "name": "amount",
          "type": "uint256"
        }
      ],
      "name": "approve",
      "outputs": [
        {
          "internalType": "bool",
          "name": "",
          "type": "bool"
        }
      ],
      "stateMutability": "nonpayable",
      "type": "function"
    },
    {
      "inputs": [
        {
          "internalType": "address",
          "name": "account",
          "type": "address"
        }
      ],
      "name": "balanceOf",
      "outputs": [
        {
          "internalType": "uint256",
          "name": "",
          "type": "uint256"
        }
      ],
      "stateMutability": "view",
      "type": "function"
    },
    {
      "inputs": [],
      "name": "circulatingSupply",
      "outputs": [
        {
          "internalType": "uint256",
          "name": "",
          "type": "uint256"
        }
      ],
      "stateMutability": "view",
      "type": "function"
    },
    {
      "inputs": [],
      "name": "decimals",
      "outputs": [
        {
          "internalType": "uint8",
          "name": "",
          "type": "uint8"
        }
      ],
      "stateMutability": "view",
      "type": "function"
    },
    {
      "inputs": [
        {
          "internalType": "address",
          "name": "spender",
          "type": "address"
        },
        {
          "internalType": "uint256",
          "name": "subtractedValue",
          "type": "uint256"
        }
      ],
      "name": "decreaseAllowance",
      "outputs": [
        {
          "internalType": "bool",
          "name": "",
          "type": "bool"
        }
      ],
      "stateMutability": "nonpayable",
      "type": "function"
    },
    {
      "inputs": [
        {
          "internalType": "uint16",
          "name": "_dstChainId",
          "type": "uint16"
        },
        {
          "internalType": "bytes",
          "name": "_toAddress",
          "type": "bytes"
        },
        {
          "internalType": "uint256",
          "name": "_amount",
          "type": "uint256"
        },
        {
          "internalType": "bool",
          "name": "_useZro",
          "type": "bool"
        },
        {
          "internalType": "bytes",
          "name": "_adapterParams",
          "type": "bytes"
        }
      ],
      "name": "estimateSendFee",
      "outputs": [
        {
          "internalType": "uint256",
          "name": "nativeFee",
          "type": "uint256"
        },
        {
          "internalType": "uint256",
          "name": "zroFee",
          "type": "uint256"
        }
      ],
      "stateMutability": "view",
      "type": "function"
    },
    {
      "inputs": [
        {
          "internalType": "uint16",
          "name": "",
          "type": "uint16"
        },
        {
          "internalType": "bytes",
          "name": "",
          "type": "bytes"
        },
        {
          "internalType": "uint64",
          "name": "",
          "type": "uint64"
        }
      ],
      "name": "failedMessages",
      "outputs": [
        {
          "internalType": "bytes32",
          "name": "",
          "type": "bytes32"
        }
      ],
      "stateMutability": "view",
      "type": "function"
    },
    {
      "inputs": [
        {
          "internalType": "uint16",
          "name": "_srcChainId",
          "type": "uint16"
        },
        {
          "internalType": "bytes",
          "name": "_srcAddress",
          "type": "bytes"
        }
      ],
      "name": "forceResumeReceive",
      "outputs": [],
      "stateMutability": "nonpayable",
      "type": "function"
    },
    {
      "inputs": [
        {
          "internalType": "uint16",
          "name": "_version",
          "type": "uint16"
        },
        {
          "internalType": "uint16",
          "name": "_chainId",
          "type": "uint16"
        },
        {
          "internalType": "address",
          "name": "",
          "type": "address"
        },
        {
          "internalType": "uint256",
          "name": "_configType",
          "type": "uint256"
        }
      ],
      "name": "getConfig",
      "outputs": [
        {
          "internalType": "bytes",
          "name": "",
          "type": "bytes"
        }
      ],
      "stateMutability": "view",
      "type": "function"
    },
    {
      "inputs": [
        {
          "internalType": "address",
          "name": "spender",
          "type": "address"
        },
        {
          "internalType": "uint256",
          "name": "addedValue",
          "type": "uint256"
        }
      ],
      "name": "increaseAllowance",
      "outputs": [
        {
          "internalType": "bool",
          "name": "",
          "type": "bool"
        }
      ],
      "stateMutability": "nonpayable",
      "type": "function"
    },
    {
      "inputs": [
        {
          "internalType": "uint16",
          "name": "_srcChainId",
          "type": "uint16"
        },
        {
          "internalType": "bytes",
          "name": "_srcAddress",
          "type": "bytes"
        }
      ],
      "name": "isTrustedRemote",
      "outputs": [
        {
          "internalType": "bool",
          "name": "",
          "type": "bool"
        }
      ],
      "stateMutability": "view",
      "type": "function"
    },
    {
      "inputs": [],
      "name": "lzEndpoint",
      "outputs": [
        {
          "internalType": "contract ILayerZeroEndpoint",
          "name": "",
          "type": "address"
        }
      ],
      "stateMutability": "view",
      "type": "function"
    },
    {
      "inputs": [
        {
          "internalType": "uint16",
          "name": "_srcChainId",
          "type": "uint16"
        },
        {
          "internalType": "bytes",
          "name": "_srcAddress",
          "type": "bytes"
        },
        {
          "internalType": "uint64",
          "name": "_nonce",
          "type": "uint64"
        },
        {
          "internalType": "bytes",
          "name": "_payload",
          "type": "bytes"
        }
      ],
      "name": "lzReceive",
      "outputs": [],
      "stateMutability": "nonpayable",
      "type": "function"
    },
    {
      "inputs": [],
      "name": "name",
      "outputs": [
        {
          "internalType": "string",
          "name": "",
          "type": "string"
        }
      ],
      "stateMutability": "view",
      "type": "function"
    },
    {
      "inputs": [
        {
          "internalType": "uint16",
          "name": "_srcChainId",
          "type": "uint16"
        },
        {
          "internalType": "bytes",
          "name": "_srcAddress",
          "type": "bytes"
        },
        {
          "internalType": "uint64",
          "name": "_nonce",
          "type": "uint64"
        },
        {
          "internalType": "bytes",
          "name": "_payload",
          "type": "bytes"
        }
      ],
      "name": "nonblockingLzReceive",
      "outputs": [],
      "stateMutability": "nonpayable",
      "type": "function"
    },
    {
      "inputs": [],
      "name": "owner",
      "outputs": [
        {
          "internalType": "address",
          "name": "",
          "type": "address"
        }
      ],
      "stateMutability": "view",
      "type": "function"
    },
    {
      "inputs": [],
      "name": "renounceOwnership",
      "outputs": [],
      "stateMutability": "nonpayable",
      "type": "function"
    },
    {
      "inputs": [
        {
          "internalType": "uint16",
          "name": "_srcChainId",
          "type": "uint16"
        },
        {
          "internalType": "bytes",
          "name": "_srcAddress",
          "type": "bytes"
        },
        {
          "internalType": "uint64",
          "name": "_nonce",
          "type": "uint64"
        },
        {
          "internalType": "bytes",
          "name": "_payload",
          "type": "bytes"
        }
      ],
      "name": "retryMessage",
      "outputs": [],
      "stateMutability": "payable",
      "type": "function"
    },
    {
      "inputs": [
        {
          "internalType": "address",
          "name": "_from",
          "type": "address"
        },
        {
          "internalType": "uint16",
          "name": "_dstChainId",
          "type": "uint16"
        },
        {
          "internalType": "bytes",
          "name": "_toAddress",
          "type": "bytes"
        },
        {
          "internalType": "uint256",
          "name": "_amount",
          "type": "uint256"
        },
        {
          "internalType": "address payable",
          "name": "_refundAddress",
          "type": "address"
        },
        {
          "internalType": "address",
          "name": "_zroPaymentAddress",
          "type": "address"
        },
        {
          "internalType": "bytes",
          "name": "_adapterParams",
          "type": "bytes"
        }
      ],
      "name": "sendFrom",
      "outputs": [],
      "stateMutability": "payable",
      "type": "function"
    },
    {
      "inputs": [
        {
          "internalType": "uint16",
          "name": "_version",
          "type": "uint16"
        },
        {
          "internalType": "uint16",
          "name": "_chainId",
          "type": "uint16"
        },
        {
          "internalType": "uint256",
          "name": "_configType",
          "type": "uint256"
        },
        {
          "internalType": "bytes",
          "name": "_config",
          "type": "bytes"
        }
      ],
      "name": "setConfig",
      "outputs": [],
      "stateMutability": "nonpayable",
      "type": "function"
    },
    {
      "inputs": [
        {
          "internalType": "uint16",
          "name": "_version",
          "type": "uint16"
        }
      ],
      "name": "setReceiveVersion",
      "outputs": [],
      "stateMutability": "nonpayable",
      "type": "function"
    },
    {
      "inputs": [
        {
          "internalType": "uint16",
          "name": "_version",
          "type": "uint16"
        }
      ],
      "name": "setSendVersion",
      "outputs": [],
      "stateMutability": "nonpayable",
      "type": "function"
    },
    {
      "inputs": [
        {
          "internalType": "uint16",
          "name": "_srcChainId",
          "type": "uint16"
        },
        {
          "internalType": "bytes",
          "name": "_srcAddress",
          "type": "bytes"
        }
      ],
      "name": "setTrustedRemote",
      "outputs": [],
      "stateMutability": "nonpayable",
      "type": "function"
    },
    {
      "inputs": [
        {
          "internalType": "bytes4",
          "name": "interfaceId",
          "type": "bytes4"
        }
      ],
      "name": "supportsInterface",
      "outputs": [
        {
          "internalType": "bool",
          "name": "",
          "type": "bool"
        }
      ],
      "stateMutability": "view",
      "type": "function"
    },
    {
      "inputs": [],
      "name": "symbol",
      "outputs": [
        {
          "internalType": "string",
          "name": "",
          "type": "string"
        }
      ],
      "stateMutability": "view",
      "type": "function"
    },
    {
      "inputs": [],
      "name": "totalSupply",
      "outputs": [
        {
          "internalType": "uint256",
          "name": "",
          "type": "uint256"
        }
      ],
      "stateMutability": "view",
      "type": "function"
    },
    {
      "inputs": [
        {
          "internalType": "address",
          "name": "to",
          "type": "address"
        },
        {
          "internalType": "uint256",
          "name": "amount",
          "type": "uint256"
        }
      ],
      "name": "transfer",
      "outputs": [
        {
          "internalType": "bool",
          "name": "",
          "type": "bool"
        }
      ],
      "stateMutability": "nonpayable",
      "type": "function"
    },
    {
      "inputs": [
        {
          "internalType": "address",
          "name": "from",
          "type": "address"
        },
        {
          "internalType": "address",
          "name": "to",
          "type": "address"
        },
        {
          "internalType": "uint256",
          "name": "amount",
          "type": "uint256"
        }
      ],
      "name": "transferFrom",
      "outputs": [
        {
          "internalType": "bool",
          "name": "",
          "type": "bool"
        }
      ],
      "stateMutability": "nonpayable",
      "type": "function"
    },
    {
      "inputs": [
        {
          "internalType": "address",
          "name": "newOwner",
          "type": "address"
        }
      ],
      "name": "transferOwnership",
      "outputs": [],
      "stateMutability": "nonpayable",
      "type": "function"
    },
    {
      "inputs": [
        {
          "internalType": "uint16",
          "name": "",
          "type": "uint16"
        }
      ],
      "name": "trustedRemoteLookup",
      "outputs": [
        {
          "internalType": "bytes",
          "name": "",
          "type": "bytes"
        }
      ],
      "stateMutability": "view",
      "type": "function"
    }
  ],
  "bytecode": "0x60a06040523480156200001157600080fd5b5060405162002b0f38038062002b0f83398101604081905262000034916200023a565b828282808062000044336200008d565b60601b6001600160601b031916608052505081516200006b906006906020850190620000dd565b50805162000081906007906020840190620000dd565b5050505050506200031a565b600080546001600160a01b038381166001600160a01b0319831681178455604051919092169283917f8be0079c531659141344cd1fd0a4f28419497f9722a3daafe3b4186f6b6457e09190a35050565b828054620000eb90620002c7565b90600052602060002090601f0160209004810192826200010f57600085556200015a565b82601f106200012a57805160ff19168380011785556200015a565b828001600101855582156200015a579182015b828111156200015a5782518255916020019190600101906200013d565b50620001689291506200016c565b5090565b5b808211156200016857600081556001016200016d565b600082601f8301126200019557600080fd5b81516001600160401b0380821115620001b257620001b262000304565b604051601f8301601f19908116603f01168101908282118183101715620001dd57620001dd62000304565b81604052838152602092508683858801011115620001fa57600080fd5b600091505b838210156200021e5785820183015181830184015290820190620001ff565b83821115620002305760008385830101525b9695505050505050565b6000806000606084860312156200025057600080fd5b83516001600160401b03808211156200026857600080fd5b620002768783880162000183565b945060208601519150808211156200028d57600080fd5b506200029c8682870162000183565b604086015190935090506001600160a01b0381168114620002bc57600080fd5b809150509250925092565b600181811c90821680620002dc57607f821691505b60208210811415620002fe57634e487b7160e01b600052602260045260246000fd5b50919050565b634e487b7160e01b600052604160045260246000fd5b60805160601c612797620003786000396000818161054001528181610618015281816108cf0152818161098b01528181610a2501528181610bef01528181610e97015281816111df0152818161175b0152611a8601526127976000f3fe6080604052600436106101d75760003560e01c806366ad5c8a11610102578063a9059cbb11610095578063dd62ed3e11610064578063dd62ed3e14610595578063eb8d72b7146105b5578063f2fde38b146105d5578063f5ecbdbc146105f557600080fd5b8063a9059cbb1461050e578063b353aaa71461052e578063cbed8b9c14610562578063d1deba1f1461058257600080fd5b80638da5cb5b116100d15780638da5cb5b146104925780639358928b146104c457806395d89b41146104d9578063a457c2d7146104ee57600080fd5b806366ad5c8a1461040757806370a0823114610427578063715018a61461045d5780637533d7881461047257600080fd5b806323b872dd1161017a5780633d8b38f6116101495780633d8b38f61461036557806342d65a8d1461038557806351905636146103a55780635b8c41e6146103b857600080fd5b806323b872dd146102d45780632a205e3d146102f4578063313ce56714610329578063395093511461034557600080fd5b806307e0db17116101b657806307e0db1714610255578063095ea7b31461027557806310ddb1371461029557806318160ddd146102b557600080fd5b80621d3567146101dc57806301ffc9a7146101fe57806306fdde0314610233575b600080fd5b3480156101e857600080fd5b506101fc6101f736600461225f565b610615565b005b34801561020a57600080fd5b5061021e610219366004612056565b6107bc565b60405190151581526020015b60405180910390f35b34801561023f57600080fd5b506102486107fa565b60405161022a9190612464565b34801561026157600080fd5b506101fc6102703660046120fa565b61088c565b34801561028157600080fd5b5061021e61029036600461202a565b610930565b3480156102a157600080fd5b506101fc6102b03660046120fa565b610948565b3480156102c157600080fd5b506005545b60405190815260200161022a565b3480156102e057600080fd5b5061021e6102ef366004611f30565b6109c2565b34801561030057600080fd5b5061031461030f366004612167565b6109e6565b6040805192835260208301919091520161022a565b34801561033557600080fd5b506040516012815260200161022a565b34801561035157600080fd5b5061021e61036036600461202a565b610ac0565b34801561037157600080fd5b5061021e610380366004612115565b610ae2565b34801561039157600080fd5b506101fc6103a0366004612115565b610bae565b6101fc6103b3366004611f71565b610c5f565b3480156103c457600080fd5b506102c66103d33660046121fe565b6002602090815260009384526040808520845180860184018051928152908401958401959095209452929052825290205481565b34801561041357600080fd5b506101fc61042236600461225f565b610c6e565b34801561043357600080fd5b506102c6610442366004611ed3565b6001600160a01b031660009081526003602052604090205490565b34801561046957600080fd5b506101fc610cde565b34801561047e57600080fd5b5061024861048d3660046120fa565b610d14565b34801561049e57600080fd5b506000546001600160a01b03165b6040516001600160a01b03909116815260200161022a565b3480156104d057600080fd5b506102c6610dae565b3480156104e557600080fd5b50610248610dbe565b3480156104fa57600080fd5b5061021e61050936600461202a565b610dcd565b34801561051a57600080fd5b5061021e61052936600461202a565b610e48565b34801561053a57600080fd5b506104ac7f000000000000000000000000000000000000000000000000000000000000000081565b34801561056e57600080fd5b506101fc61057d366004612334565b610e56565b6101fc61059036600461225f565b610f0d565b3480156105a157600080fd5b506102c66105b0366004611ef7565b61105f565b3480156105c157600080fd5b506101fc6105d0366004612115565b61108a565b3480156105e157600080fd5b506101fc6105f0366004611ed3565b611113565b34801561060157600080fd5b506102486106103660046122e7565b6111ae565b337f00000000000000000000000000000000000000000000000000000000000000006001600160a01b0316146106925760405162461bcd60e51b815260206004820152601e60248201527f4c7a4170703a20696e76616c696420656e64706f696e742063616c6c6572000060448201526064015b60405180910390fd5b61ffff8416600090815260016020526040812080546106b0906126d0565b80601f01602080910402602001604051908101604052809291908181526020018280546106dc906126d0565b80156107295780601f106106fe57610100808354040283529160200191610729565b820191906000526020600020905b81548152906001019060200180831161070c57829003601f168201915b505050505090508051845114801561074e575080805190602001208480519060200120145b6107a95760405162461bcd60e51b815260206004820152602660248201527f4c7a4170703a20696e76616c696420736f757263652073656e64696e6720636f6044820152651b9d1c9858dd60d21b6064820152608401610689565b6107b58585858561126e565b5050505050565b60006001600160e01b0319821615806107e557506001600160e01b031982166336372b0760e01b145b806107f457506107f48261135f565b92915050565b606060068054610809906126d0565b80601f0160208091040260200160405190810160405280929190818152602001828054610835906126d0565b80156108825780601f1061085757610100808354040283529160200191610882565b820191906000526020600020905b81548152906001019060200180831161086557829003601f168201915b5050505050905090565b6000546001600160a01b031633146108b65760405162461bcd60e51b815260040161068990612499565b6040516307e0db1760e01b815261ffff821660048201527f00000000000000000000000000000000000000000000000000000000000000006001600160a01b0316906307e0db17906024015b600060405180830381600087803b15801561091c57600080fd5b505af11580156107b5573d6000803e3d6000fd5b60003361093e818585611394565b5060019392505050565b6000546001600160a01b031633146109725760405162461bcd60e51b815260040161068990612499565b6040516310ddb13760e01b815261ffff821660048201527f00000000000000000000000000000000000000000000000000000000000000006001600160a01b0316906310ddb13790602401610902565b6000336109d08582856114b8565b6109db85858561152c565b506001949350505050565b600080600086866040516020016109fe929190612477565b60408051601f198184030181529082905263040a7bb160e41b825291506001600160a01b037f000000000000000000000000000000000000000000000000000000000000000016906340a7bb1090610a62908b90309086908b908b906004016124ce565b604080518083038186803b158015610a7957600080fd5b505afa158015610a8d573d6000803e3d6000fd5b505050506040513d601f19601f82011682018060405250810190610ab191906123a2565b92509250509550959350505050565b60003361093e818585610ad3838361105f565b610add9190612675565b611394565b61ffff831660009081526001602052604081208054829190610b03906126d0565b80601f0160208091040260200160405190810160405280929190818152602001828054610b2f906126d0565b8015610b7c5780601f10610b5157610100808354040283529160200191610b7c565b820191906000526020600020905b815481529060010190602001808311610b5f57829003601f168201915b505050505090508383604051610b93929190612438565b60405180910390208180519060200120149150509392505050565b6000546001600160a01b03163314610bd85760405162461bcd60e51b815260040161068990612499565b6040516342d65a8d60e01b81526001600160a01b037f000000000000000000000000000000000000000000000000000000000000000016906342d65a8d90610c2890869086908690600401612522565b600060405180830381600087803b158015610c4257600080fd5b505af1158015610c56573d6000803e3d6000fd5b50505050505050565b610c56878787878787876116fa565b333014610ccc5760405162461bcd60e51b815260206004820152602660248201527f4e6f6e626c6f636b696e674c7a4170703a2063616c6c6572206d7573742062656044820152650204c7a4170760d41b6064820152608401610689565b610cd884848484611851565b50505050565b6000546001600160a01b03163314610d085760405162461bcd60e51b815260040161068990612499565b610d1260006118ec565b565b60016020526000908152604090208054610d2d906126d0565b80601f0160208091040260200160405190810160405280929190818152602001828054610d59906126d0565b8015610da65780601f10610d7b57610100808354040283529160200191610da6565b820191906000526020600020905b815481529060010190602001808311610d8957829003601f168201915b505050505081565b6000610db960055490565b905090565b606060078054610809906126d0565b60003381610ddb828661105f565b905083811015610e3b5760405162461bcd60e51b815260206004820152602560248201527f45524332303a2064656372656173656420616c6c6f77616e63652062656c6f77604482015264207a65726f60d81b6064820152608401610689565b6109db8286868403611394565b60003361093e81858561152c565b6000546001600160a01b03163314610e805760405162461bcd60e51b815260040161068990612499565b6040516332fb62e760e21b81526001600160a01b037f0000000000000000000000000000000000000000000000000000000000000000169063cbed8b9c90610ed490889088908890889088906004016125f0565b600060405180830381600087803b158015610eee57600080fd5b505af1158015610f02573d6000803e3d6000fd5b505050505050505050565b61ffff84166000908152600260205260408082209051610f2e908690612448565b90815260408051602092819003830190206001600160401b03861660009081529252902054905080610fae5760405162461bcd60e51b815260206004820152602360248201527f4e6f6e626c6f636b696e674c7a4170703a206e6f2073746f726564206d65737360448201526261676560e81b6064820152608401610689565b81516020830120811461100d5760405162461bcd60e51b815260206004820152602160248201527f4e6f6e626c6f636b696e674c7a4170703a20696e76616c6964207061796c6f616044820152601960fa1b6064820152608401610689565b61ffff8516600090815260026020526040808220905161102e908790612448565b90815260408051602092819003830190206001600160401b038716600090815292529020556107b585858585611851565b6001600160a01b03918216600090815260046020908152604080832093909416825291909152205490565b6000546001600160a01b031633146110b45760405162461bcd60e51b815260040161068990612499565b61ffff831660009081526001602052604090206110d2908383611d38565b507ffa41487ad5d6728f0b19276fa1eddc16558578f5109fc39d2dc33c3230470dab83838360405161110693929190612522565b60405180910390a1505050565b6000546001600160a01b0316331461113d5760405162461bcd60e51b815260040161068990612499565b6001600160a01b0381166111a25760405162461bcd60e51b815260206004820152602660248201527f4f776e61626c653a206e6577206f776e657220697320746865207a65726f206160448201526564647265737360d01b6064820152608401610689565b6111ab816118ec565b50565b604051633d7b2f6f60e21b815261ffff808616600483015284166024820152306044820152606481018290526060907f00000000000000000000000000000000000000000000000000000000000000006001600160a01b03169063f5ecbdbc9060840160006040518083038186803b15801561122957600080fd5b505afa15801561123d573d6000803e3d6000fd5b505050506040513d6000823e601f3d908101601f191682016040526112659190810190612080565b95945050505050565b604051633356ae4560e11b815230906366ad5c8a906112979087908790879087906004016125a7565b600060405180830381600087803b1580156112b157600080fd5b505af19250505080156112c2575060015b610cd8578080519060200120600260008661ffff1661ffff168152602001908152602001600020846040516112f79190612448565b9081526040805191829003602090810183206001600160401b0387166000908152915220919091557fe6f254030bcb01ffd20558175c13fcaed6d1520be7becee4c961b65f79243b0d906113529086908690869086906125a7565b60405180910390a1610cd8565b60006001600160e01b031982166301d1d13560e71b14806107f457506301ffc9a760e01b6001600160e01b03198316146107f4565b6001600160a01b0383166113f65760405162461bcd60e51b8152602060048201526024808201527f45524332303a20617070726f76652066726f6d20746865207a65726f206164646044820152637265737360e01b6064820152608401610689565b6001600160a01b0382166114575760405162461bcd60e51b815260206004820152602260248201527f45524332303a20617070726f766520746f20746865207a65726f206164647265604482015261737360f01b6064820152608401610689565b6001600160a01b0383811660008181526004602090815260408083209487168084529482529182902085905590518481527f8c5be1e5ebec7d5bd14f71427d1e84f3dd0314c0f7b2291e5b200ac8c7c3b925910160405180910390a3505050565b60006114c4848461105f565b90506000198114610cd8578181101561151f5760405162461bcd60e51b815260206004820152601d60248201527f45524332303a20696e73756666696369656e7420616c6c6f77616e63650000006044820152606401610689565b610cd88484848403611394565b6001600160a01b0383166115905760405162461bcd60e51b815260206004820152602560248201527f45524332303a207472616e736665722066726f6d20746865207a65726f206164604482015264647265737360d81b6064820152608401610689565b6001600160a01b0382166115f25760405162461bcd60e51b815260206004820152602360248201527f45524332303a207472616e7366657220746f20746865207a65726f206164647260448201526265737360e81b6064820152608401610689565b6001600160a01b0383166000908152600360205260409020548181101561166a5760405162461bcd60e51b815260206004820152602660248201527f45524332303a207472616e7366657220616d6f756e7420657863656564732062604482015265616c616e636560d01b6064820152608401610689565b6001600160a01b038085166000908152600360205260408082208585039055918516815290812080548492906116a1908490612675565b92505081905550826001600160a01b0316846001600160a01b03167fddf252ad1be2c89b69c2b068fc378daa952ba7f163c4a11628f55a4df523b3ef846040516116ed91815260200190565b60405180910390a3610cd8565b61170687878787611941565b6000858560405160200161171b929190612477565b60405160208183030381529060405290506117398782868686611967565b604051630f428ae960e31b815261ffff881660048201523060248201526000907f00000000000000000000000000000000000000000000000000000000000000006001600160a01b031690637a1457489060440160206040518083038186803b1580156117a557600080fd5b505afa1580156117b9573d6000803e3d6000fd5b505050506040513d601f19601f820116820180604052508101906117dd91906123c6565b9050866040516117ed9190612448565b604080519182900382208883526001600160401b03841660208401529161ffff8b16916001600160a01b038d16917f024797cc77ce15dc717112d54fb1df125fdfd8c81344fb046c5e074427ce1543910160405180910390a4505050505050505050565b6000808280602001905181019061186891906120b4565b6014820151919350915061187d878284611b01565b806001600160a01b0316866040516118959190612448565b604080519182900382208583526001600160401b03891660208401529161ffff8b16917f64e10c37f404d128982dce114f5d233c14c5c7f6d8db93099e3d99dacb9e27ba910160405180910390a450505050505050565b600080546001600160a01b038381166001600160a01b0319831681178455604051919092169283917f8be0079c531659141344cd1fd0a4f28419497f9722a3daafe3b4186f6b6457e09190a35050565b505050565b336001600160a01b038516811461195d5761195d8582846114b8565b6107b58583611b0b565b61ffff851660009081526001602052604081208054611985906126d0565b80601f01602080910402602001604051908101604052809291908181526020018280546119b1906126d0565b80156119fe5780601f106119d3576101008083540402835291602001916119fe565b820191906000526020600020905b8154815290600101906020018083116119e157829003601f168201915b50505050509050805160001415611a705760405162461bcd60e51b815260206004820152603060248201527f4c7a4170703a2064657374696e6174696f6e20636861696e206973206e6f742060448201526f61207472757374656420736f7572636560801b6064820152608401610689565b60405162c5803160e81b81526001600160a01b037f0000000000000000000000000000000000000000000000000000000000000000169063c5803100903490611ac7908a9086908b908b908b908b90600401612540565b6000604051808303818588803b158015611ae057600080fd5b505af1158015611af4573d6000803e3d6000fd5b5050505050505050505050565b61193c8282611c59565b6001600160a01b038216611b6b5760405162461bcd60e51b815260206004820152602160248201527f45524332303a206275726e2066726f6d20746865207a65726f206164647265736044820152607360f81b6064820152608401610689565b6001600160a01b03821660009081526003602052604090205481811015611bdf5760405162461bcd60e51b815260206004820152602260248201527f45524332303a206275726e20616d6f756e7420657863656564732062616c616e604482015261636560f01b6064820152608401610689565b6001600160a01b0383166000908152600360205260408120838303905560058054849290611c0e90849061268d565b90915550506040518281526000906001600160a01b038516907fddf252ad1be2c89b69c2b068fc378daa952ba7f163c4a11628f55a4df523b3ef9060200160405180910390a3505050565b6001600160a01b038216611caf5760405162461bcd60e51b815260206004820152601f60248201527f45524332303a206d696e7420746f20746865207a65726f2061646472657373006044820152606401610689565b8060056000828254611cc19190612675565b90915550506001600160a01b03821660009081526003602052604081208054839290611cee908490612675565b90915550506040518181526001600160a01b038316906000907fddf252ad1be2c89b69c2b068fc378daa952ba7f163c4a11628f55a4df523b3ef9060200160405180910390a35050565b828054611d44906126d0565b90600052602060002090601f016020900481019282611d665760008555611dac565b82601f10611d7f5782800160ff19823516178555611dac565b82800160010185558215611dac579182015b82811115611dac578235825591602001919060010190611d91565b50611db8929150611dbc565b5090565b5b80821115611db85760008155600101611dbd565b60008083601f840112611de357600080fd5b5081356001600160401b03811115611dfa57600080fd5b602083019150836020828501011115611e1257600080fd5b9250929050565b600082601f830112611e2a57600080fd5b8135611e3d611e388261264e565b61261e565b818152846020838601011115611e5257600080fd5b816020850160208301376000918101602001919091529392505050565b600082601f830112611e8057600080fd5b8151611e8e611e388261264e565b818152846020838601011115611ea357600080fd5b611eb48260208301602087016126a4565b949350505050565b803561ffff81168114611ece57600080fd5b919050565b600060208284031215611ee557600080fd5b8135611ef081612737565b9392505050565b60008060408385031215611f0a57600080fd5b8235611f1581612737565b91506020830135611f2581612737565b809150509250929050565b600080600060608486031215611f4557600080fd5b8335611f5081612737565b92506020840135611f6081612737565b929592945050506040919091013590565b600080600080600080600060e0888a031215611f8c57600080fd5b8735611f9781612737565b9650611fa560208901611ebc565b955060408801356001600160401b0380821115611fc157600080fd5b611fcd8b838c01611e19565b965060608a0135955060808a01359150611fe682612737565b90935060a089013590611ff882612737565b90925060c0890135908082111561200e57600080fd5b5061201b8a828b01611e19565b91505092959891949750929550565b6000806040838503121561203d57600080fd5b823561204881612737565b946020939093013593505050565b60006020828403121561206857600080fd5b81356001600160e01b031981168114611ef057600080fd5b60006020828403121561209257600080fd5b81516001600160401b038111156120a857600080fd5b611eb484828501611e6f565b600080604083850312156120c757600080fd5b82516001600160401b038111156120dd57600080fd5b6120e985828601611e6f565b925050602083015190509250929050565b60006020828403121561210c57600080fd5b611ef082611ebc565b60008060006040848603121561212a57600080fd5b61213384611ebc565b925060208401356001600160401b0381111561214e57600080fd5b61215a86828701611dd1565b9497909650939450505050565b600080600080600060a0868803121561217f57600080fd5b61218886611ebc565b945060208601356001600160401b03808211156121a457600080fd5b6121b089838a01611e19565b9550604088013594506060880135915081151582146121ce57600080fd5b909250608087013590808211156121e457600080fd5b506121f188828901611e19565b9150509295509295909350565b60008060006060848603121561221357600080fd5b61221c84611ebc565b925060208401356001600160401b0381111561223757600080fd5b61224386828701611e19565b92505060408401356122548161274c565b809150509250925092565b6000806000806080858703121561227557600080fd5b61227e85611ebc565b935060208501356001600160401b038082111561229a57600080fd5b6122a688838901611e19565b9450604087013591506122b88261274c565b909250606086013590808211156122ce57600080fd5b506122db87828801611e19565b91505092959194509250565b600080600080608085870312156122fd57600080fd5b61230685611ebc565b935061231460208601611ebc565b9250604085013561232481612737565b9396929550929360600135925050565b60008060008060006080868803121561234c57600080fd5b61235586611ebc565b945061236360208701611ebc565b93506040860135925060608601356001600160401b0381111561238557600080fd5b61239188828901611dd1565b969995985093965092949392505050565b600080604083850312156123b557600080fd5b505080516020909101519092909150565b6000602082840312156123d857600080fd5b8151611ef08161274c565b81835281816020850137506000828201602090810191909152601f909101601f19169091010190565b600081518084526124248160208601602086016126a4565b601f01601f19169290920160200192915050565b8183823760009101908152919050565b6000825161245a8184602087016126a4565b9190910192915050565b602081526000611ef0602083018461240c565b60408152600061248a604083018561240c565b90508260208301529392505050565b6020808252818101527f4f776e61626c653a2063616c6c6572206973206e6f7420746865206f776e6572604082015260600190565b61ffff861681526001600160a01b038516602082015260a0604082018190526000906124fc9083018661240c565b84151560608401528281036080840152612516818561240c565b98975050505050505050565b61ffff841681526040602082015260006112656040830184866123e3565b61ffff8716815260c06020820152600061255d60c083018861240c565b828103604084015261256f818861240c565b6001600160a01b0387811660608601528616608085015283810360a0850152905061259a818561240c565b9998505050505050505050565b61ffff851681526080602082015260006125c4608083018661240c565b6001600160401b038516604084015282810360608401526125e5818561240c565b979650505050505050565b600061ffff8088168352808716602084015250846040830152608060608301526125e56080830184866123e3565b604051601f8201601f191681016001600160401b038111828210171561264657612646612721565b604052919050565b60006001600160401b0382111561266757612667612721565b50601f01601f191660200190565b600082198211156126885761268861270b565b500190565b60008282101561269f5761269f61270b565b500390565b60005b838110156126bf5781810151838201526020016126a7565b83811115610cd85750506000910152565b600181811c908216806126e457607f821691505b6020821081141561270557634e487b7160e01b600052602260045260246000fd5b50919050565b634e487b7160e01b600052601160045260246000fd5b634e487b7160e01b600052604160045260246000fd5b6001600160a01b03811681146111ab57600080fd5b6001600160401b03811681146111ab57600080fdfea2646970667358221220e775d821b4adb11bcd7ee45b7362091750a87efb5d491e6421ef66416e9faddc64736f6c63430008070033",
  "linkReferences": {},
  "deployedLinkReferences": {}
}