{
  "_format": "hh-sol-artifact-1",
  "contractName": "GenericLargeResponse",
  "sourceName": "src/PatchPurchaseChainlink.sol",
  "abi": [
    {
      "inputs": [],
      "stateMutability": "nonpayable",
      "type": "constructor"
    },
    {
      "anonymous": false,
      "inputs": [
        {
          "indexed": true,
          "internalType": "bytes32",
          "name": "id",
          "type": "bytes32"
        }
      ],
      "name": "ChainlinkCancelled",
      "type": "event"
    },
    {
      "anonymous": false,
      "inputs": [
        {
          "indexed": true,
          "internalType": "bytes32",
          "name": "id",
          "type": "bytes32"
        }
      ],
      "name": "ChainlinkFulfilled",
      "type": "event"
    },
    {
      "anonymous": false,
      "inputs": [
        {
          "indexed": true,
          "internalType": "bytes32",
          "name": "id",
          "type": "bytes32"
        }
      ],
      "name": "ChainlinkRequested",
      "type": "event"
    },
    {
      "anonymous": false,
      "inputs": [
        {
          "indexed": true,
          "internalType": "bytes32",
          "name": "requestId",
          "type": "bytes32"
        },
        {
          "indexed": true,
          "internalType": "bytes",
          "name": "data",
          "type": "bytes"
        },
        {
          "indexed": false,
          "internalType": "uint256",
          "name": "mass_g",
          "type": "uint256"
        },
        {
          "indexed": false,
          "internalType": "string",
          "name": "project",
          "type": "string"
        }
      ],
      "name": "RequestFulfilled",
      "type": "event"
    },
    {
      "inputs": [],
      "name": "data",
      "outputs": [
        {
          "internalType": "bytes",
          "name": "",
          "type": "bytes"
        }
      ],
      "stateMutability": "view",
      "type": "function"
    },
    {
      "inputs": [
        {
          "internalType": "bytes32",
          "name": "requestId",
          "type": "bytes32"
        },
        {
          "internalType": "bytes",
          "name": "bytesData",
          "type": "bytes"
        },
        {
          "internalType": "uint256",
          "name": "_mass_g",
          "type": "uint256"
        },
        {
          "internalType": "string",
          "name": "project",
          "type": "string"
        }
      ],
      "name": "fulfillBytes",
      "outputs": [],
      "stateMutability": "nonpayable",
      "type": "function"
    },
    {
      "inputs": [],
      "name": "mass_g",
      "outputs": [
        {
          "internalType": "uint256",
          "name": "",
          "type": "uint256"
        }
      ],
      "stateMutability": "view",
      "type": "function"
    },
    {
      "inputs": [
        {
          "internalType": "uint256",
          "name": "priceCost",
          "type": "uint256"
        },
        {
          "internalType": "string",
          "name": "projectId",
          "type": "string"
        }
      ],
      "name": "requestMultiVariable",
      "outputs": [],
      "stateMutability": "nonpayable",
      "type": "function"
    },
    {
      "inputs": [],
      "name": "token_uri",
      "outputs": [
        {
          "internalType": "string",
          "name": "",
          "type": "string"
        }
      ],
      "stateMutability": "view",
      "type": "function"
    },
    {
      "inputs": [
        {
          "internalType": "uint256",
          "name": "",
          "type": "uint256"
        }
      ],
      "name": "tokens",
      "outputs": [
        {
          "internalType": "contract ProjectOFT",
          "name": "",
          "type": "address"
        }
      ],
      "stateMutability": "view",
      "type": "function"
    }
  ],
  "bytecode": "0x6080604052600160045534801561001557600080fd5b50600280546001600160a01b03191673326c977e6efc84e512bb9c30f76e30c160ed06fb179055600380546001600160a01b03191673edaa6962cf1368a92e244ddc11aac49c0a0acc3717905561417a806100716000396000f3fe60806040523480156200001157600080fd5b50600436106200006a5760003560e01c8063373e1216146200006f57806342d55d2a146200008c5780634f64b2be14620000a55780636f52b1e814620000ea57806373d4a13a146200010357806393f44069146200010d575b600080fd5b6200007960095481565b6040519081526020015b60405180910390f35b620000a36200009d36600462001041565b62000124565b005b620000d1620000b636600462001109565b6006602052600090815260409020546001600160a01b031681565b6040516001600160a01b03909116815260200162000083565b620000f46200039e565b60405162000083919062001314565b620000f462000434565b620000a36200011e36600462001123565b62000443565b60008581526005602052604090205485906001600160a01b03163314620001a35760405162461bcd60e51b815260206004820152602860248201527f536f75726365206d75737420626520746865206f7261636c65206f6620746865604482015267081c995c5d595cdd60c21b60648201526084015b60405180910390fd5b60008181526005602052604080822080546001600160a01b03191690555182917f7cc135e0cebb02c3480ae5d74d377283180a2601f8f644edf7987b009316c63a91a260008383604051620001fa929190620011da565b60408051918290039091206000818152600660205291909120549091506001600160a01b031680620002a157848473f69186dfba60ddb133e91e9a4b5673624293d8f86040516200024b9062000e26565b620002599392919062001329565b604051809103906000f08015801562000276573d6000803e3d6000fd5b50600083815260066020526040902080546001600160a01b0319166001600160a01b03831617905590505b6040516340c10f1960e01b8152336004820152602481018790526001600160a01b038216906340c10f1990604401600060405180830381600087803b158015620002ea57600080fd5b505af1158015620002ff573d6000803e3d6000fd5b5050505086604051620003139190620011ea565b6040518091039020887f2b600179c1eccb88aeaa98811ae4342e6bbe11199bed984486727a782cac0047888888604051620003519392919062001374565b60405180910390a386516200036e9060079060208a019062000e34565b5060076008908054620003819062001532565b6200038e92919062000ec3565b5050506009939093555050505050565b60088054620003ad9062001532565b80601f0160208091040260200160405190810160405280929190818152602001828054620003db9062001532565b80156200042c5780601f1062000400576101008083540402835291602001916200042c565b820191906000526020600020905b8154815290600101906020018083116200040e57829003601f168201915b505050505081565b60078054620003ad9062001532565b7f653231313266393638363661346366323933646635643136623063626637666460006200047184620005f8565b90506000806200048a843063216aae9560e11b62000716565b9050620004da6040518060400160405280600381526020016219d95d60ea1b8152508487604051602001620004c192919062001208565b60408051601f1981840301815291905283919062000741565b6200053460405180604001604052806005815260200164706174683160d81b8152506040518060400160405280600e81526020016d646174612c746f6b656e5f75726960901b81525083620007419092919063ffffffff16565b6200058b604051806040016040528060058152602001643830ba341960d91b8152506040518060400160405280600b81526020016a646174612c6d6173735f6760a81b81525083620007419092919063ffffffff16565b620005e360405180604001604052806005815260200164706174683360d81b8152506040518060400160405280600c81526020016b19185d184b1c1c9bda9958dd60a21b81525083620007419092919063ffffffff16565b620005ef818362000768565b50505050505050565b6060816200061d5750506040805180820190915260018152600360fc1b602082015290565b8160005b81156200064d5780620006348162001569565b9150620006459050600a83620013ab565b915062000621565b60008167ffffffffffffffff8111156200066b576200066b620015e0565b6040519080825280601f01601f19166020018201604052801562000696576020820181803683370190505b5090505b84156200070e57620006ae600183620014e9565b9150620006bd600a8662001587565b620006ca90603062001390565b60f81b818381518110620006e257620006e2620015ca565b60200101906001600160f81b031916908160001a90535062000706600a86620013ab565b94506200069a565b949350505050565b6200072062000f47565b6200072a62000f47565b62000738818686866200078d565b95945050505050565b6080830151620007529083620007ce565b6080830151620007639082620007ce565b505050565b60035460009062000784906001600160a01b03168484620007e9565b90505b92915050565b6200079762000f47565b620007a9856080015161010062000880565b50509183526001600160a01b031660208301526001600160e01b031916604082015290565b620007dd8260038351620008ee565b62000763828262000a19565b600454600090620007fc81600162001390565b60045583516040808601516080870151519151600093633c6d41b960e01b936200083493869384939289916002919060240162001294565b60408051601f198184030181529190526020810180516001600160e01b03166001600160e01b0319909316929092179091529050620008768683868462000a42565b9695505050505050565b604080518082019091526060815260006020820152620008a260208362001587565b15620008d157620008b560208362001587565b620008c2906020620014e9565b620008ce908362001390565b91505b506020828101829052604080518085526000815290920101905290565b60178167ffffffffffffffff16116200091c57620009168360e0600585901b16831762000bb7565b50505050565b60ff8167ffffffffffffffff16116200095f5762000946836018611fe0600586901b161762000bb7565b50620009168367ffffffffffffffff8316600162000bde565b61ffff8167ffffffffffffffff1611620009a3576200098a836019611fe0600586901b161762000bb7565b50620009168367ffffffffffffffff8316600262000bde565b63ffffffff8167ffffffffffffffff1611620009e957620009d083601a611fe0600586901b161762000bb7565b50620009168367ffffffffffffffff8316600462000bde565b62000a0083601b611fe0600586901b161762000bb7565b50620009168367ffffffffffffffff8316600862000bde565b604080518082019091526060815260006020820152620007848384600001515184855162000c06565b6040516bffffffffffffffffffffffff193060601b1660208201526034810184905260009060540160408051808303601f1901815282825280516020918201206000818152600590925291812080546001600160a01b0319166001600160a01b038a1617905590925082917fb5e6e01e79f91267dc17b4e6314d5d4d03593d2ceee0fbb452b750bd70ea5af99190a2600254604051630200057560e51b81526001600160a01b0390911690634000aea09062000b0790889087908790600401620012eb565b602060405180830381600087803b15801562000b2257600080fd5b505af115801562000b37573d6000803e3d6000fd5b505050506040513d601f19601f8201168201806040525081019062000b5d919062001016565b6200070e5760405162461bcd60e51b815260206004820152602360248201527f756e61626c6520746f207472616e73666572416e6443616c6c20746f206f7261604482015262636c6560e81b60648201526084016200019a565b60408051808201909152606081526000602082015262000784838460000151518462000d05565b6040805180820190915260608152600060208201526200070e84856000015151858562000d66565b604080518082019091526060815260006020820152825182111562000c2a57600080fd5b602085015162000c3b838662001390565b111562000c775762000c778562000c648760200151878662000c5e919062001390565b62000df2565b62000c71906002620014c7565b62000e0b565b60008086518051876020830101935080888701111562000c975787860182525b505050602084015b6020841062000cdf578051825262000cb960208362001390565b915062000cc860208262001390565b905062000cd7602085620014e9565b935062000c9f565b51815160001960208690036101000a019081169019919091161790525083949350505050565b6040805180820190915260608152600060208201528360200151831062000d3e5762000d3e848560200151600262000c719190620014c7565b83518051602085830101848153508085141562000d5c576001810182525b5093949350505050565b604080518082019091526060815260006020820152602085015162000d8c858462001390565b111562000da45762000da48562000c64868562001390565b6000600162000db6846101006200140b565b62000dc29190620014e9565b905085518386820101858319825116178152508051848701111562000de75783860181525b509495945050505050565b60008183111562000e0557508162000787565b50919050565b815162000e19838362000880565b5062000916838262000a19565b612b4e80620015f783390190565b82805462000e429062001532565b90600052602060002090601f01602090048101928262000e66576000855562000eb1565b82601f1062000e8157805160ff191683800117855562000eb1565b8280016001018555821562000eb1579182015b8281111562000eb157825182559160200191906001019062000e94565b5062000ebf92915062000f82565b5090565b82805462000ed19062001532565b90600052602060002090601f01602090048101928262000ef5576000855562000eb1565b82601f1062000f08578054855562000eb1565b8280016001018555821562000eb157600052602060002091601f016020900482015b8281111562000eb157825482559160010191906001019062000f2a565b6040805160a0810182526000808252602080830182905282840182905260608084018390528451808601909552845283015290608082015290565b5b8082111562000ebf576000815560010162000f83565b600067ffffffffffffffff8084111562000fb75762000fb7620015e0565b604051601f8501601f19908116603f0116810190828211818310171562000fe25762000fe2620015e0565b8160405280935085815286868601111562000ffc57600080fd5b858560208301376000602087830101525050509392505050565b6000602082840312156200102957600080fd5b815180151581146200103a57600080fd5b9392505050565b6000806000806000608086880312156200105a57600080fd5b85359450602086013567ffffffffffffffff808211156200107a57600080fd5b818801915088601f8301126200108f57600080fd5b620010a08983356020850162000f99565b9550604088013594506060880135915080821115620010be57600080fd5b818801915088601f830112620010d357600080fd5b813581811115620010e357600080fd5b896020828501011115620010f657600080fd5b9699959850939650602001949392505050565b6000602082840312156200111c57600080fd5b5035919050565b600080604083850312156200113757600080fd5b82359150602083013567ffffffffffffffff8111156200115657600080fd5b8301601f810185136200116857600080fd5b620011798582356020840162000f99565b9150509250929050565b600081518084526200119d81602086016020860162001503565b601f01601f19169290920160200192915050565b81835281816020850137506000828201602090810191909152601f909101601f19169091010190565b8183823760009101908152919050565b60008251620011fe81846020870162001503565b9190910192915050565b7f68747470733a2f2f706174636870757263686173652e6e65746c6966792e617081526f702f6170692f6275793f70726963653d60801b6020820152600083516200125b81603085016020880162001503565b6a2670726f6a65637449643d60a81b60309184019182015283516200128881603b84016020880162001503565b01603b01949350505050565b60018060a01b038816815286602082015285604082015263ffffffff60e01b851660608201528360808201528260a082015260e060c08201526000620012de60e083018462001183565b9998505050505050505050565b60018060a01b038416815282602082015260606040820152600062000738606083018462001183565b60208152600062000784602083018462001183565b6060815260006200133f606083018587620011b1565b828103602080850191909152600382526241424360e81b908201526001600160a01b0393909316604092830152500192915050565b83815260406020820152600062000738604083018486620011b1565b60008219821115620013a657620013a66200159e565b500190565b600082620013bd57620013bd620015b4565b500490565b600181815b8085111562001403578160001904821115620013e757620013e76200159e565b80851615620013f557918102915b93841c9390800290620013c7565b509250929050565b6000620007848383600082620014245750600162000787565b81620014335750600062000787565b81600181146200144c5760028114620014575762001477565b600191505062000787565b60ff8411156200146b576200146b6200159e565b50506001821b62000787565b5060208310610133831016604e8410600b84101617156200149c575081810a62000787565b620014a88383620013c2565b8060001904821115620014bf57620014bf6200159e565b029392505050565b6000816000190483118215151615620014e457620014e46200159e565b500290565b600082821015620014fe57620014fe6200159e565b500390565b60005b838110156200152057818101518382015260200162001506565b83811115620009165750506000910152565b600181811c908216806200154757607f821691505b6020821081141562000e0557634e487b7160e01b600052602260045260246000fd5b60006000198214156200158057620015806200159e565b5060010190565b600082620015995762001599620015b4565b500690565b634e487b7160e01b600052601160045260246000fd5b634e487b7160e01b600052601260045260246000fd5b634e487b7160e01b600052603260045260246000fd5b634e487b7160e01b600052604160045260246000fdfe60a06040523480156200001157600080fd5b5060405162002b4e38038062002b4e833981016040819052620000349162000240565b8282828282828080620000473362000093565b60601b6001600160601b031916608052505081516200006e906006906020850190620000e3565b50805162000084906007906020840190620000e3565b50505050505050505062000320565b600080546001600160a01b038381166001600160a01b0319831681178455604051919092169283917f8be0079c531659141344cd1fd0a4f28419497f9722a3daafe3b4186f6b6457e09190a35050565b828054620000f190620002cd565b90600052602060002090601f01602090048101928262000115576000855562000160565b82601f106200013057805160ff191683800117855562000160565b8280016001018555821562000160579182015b828111156200016057825182559160200191906001019062000143565b506200016e92915062000172565b5090565b5b808211156200016e576000815560010162000173565b600082601f8301126200019b57600080fd5b81516001600160401b0380821115620001b857620001b86200030a565b604051601f8301601f19908116603f01168101908282118183101715620001e357620001e36200030a565b816040528381526020925086838588010111156200020057600080fd5b600091505b8382101562000224578582018301518183018401529082019062000205565b83821115620002365760008385830101525b9695505050505050565b6000806000606084860312156200025657600080fd5b83516001600160401b03808211156200026e57600080fd5b6200027c8783880162000189565b945060208601519150808211156200029357600080fd5b50620002a28682870162000189565b604086015190935090506001600160a01b0381168114620002c257600080fd5b809150509250925092565b600181811c90821680620002e257607f821691505b602082108114156200030457634e487b7160e01b600052602260045260246000fd5b50919050565b634e487b7160e01b600052604160045260246000fd5b60805160601c6127d06200037e6000396000818161056b01528181610643015281816108fa015281816109b601528181610a5001528181610c2801528181610ed001528181611218015281816118730152611b9e01526127d06000f3fe6080604052600436106101e25760003560e01c806366ad5c8a11610102578063a9059cbb11610095578063dd62ed3e11610064578063dd62ed3e146105c0578063eb8d72b7146105e0578063f2fde38b14610600578063f5ecbdbc1461062057600080fd5b8063a9059cbb14610539578063b353aaa714610559578063cbed8b9c1461058d578063d1deba1f146105ad57600080fd5b80638da5cb5b116100d15780638da5cb5b146104bd5780639358928b146104ef57806395d89b4114610504578063a457c2d71461051957600080fd5b806366ad5c8a1461043257806370a0823114610452578063715018a6146104885780637533d7881461049d57600080fd5b80632a205e3d1161017a57806340c10f191161014957806340c10f191461039057806342d65a8d146103b057806351905636146103d05780635b8c41e6146103e357600080fd5b80632a205e3d146102ff578063313ce5671461033457806339509351146103505780633d8b38f61461037057600080fd5b8063095ea7b3116101b6578063095ea7b31461028057806310ddb137146102a057806318160ddd146102c057806323b872dd146102df57600080fd5b80621d3567146101e757806301ffc9a71461020957806306fdde031461023e57806307e0db1714610260575b600080fd5b3480156101f357600080fd5b50610207610202366004612298565b610640565b005b34801561021557600080fd5b5061022961022436600461208f565b6107e7565b60405190151581526020015b60405180910390f35b34801561024a57600080fd5b50610253610825565b604051610235919061249d565b34801561026c57600080fd5b5061020761027b366004612133565b6108b7565b34801561028c57600080fd5b5061022961029b366004612063565b61095b565b3480156102ac57600080fd5b506102076102bb366004612133565b610973565b3480156102cc57600080fd5b506005545b604051908152602001610235565b3480156102eb57600080fd5b506102296102fa366004611f69565b6109ed565b34801561030b57600080fd5b5061031f61031a3660046121a0565b610a11565b60408051928352602083019190915201610235565b34801561034057600080fd5b5060405160128152602001610235565b34801561035c57600080fd5b5061022961036b366004612063565b610aeb565b34801561037c57600080fd5b5061022961038b36600461214e565b610b0d565b34801561039c57600080fd5b506102076103ab366004612063565b610bd9565b3480156103bc57600080fd5b506102076103cb36600461214e565b610be7565b6102076103de366004611faa565b610c98565b3480156103ef57600080fd5b506102d16103fe366004612237565b6002602090815260009384526040808520845180860184018051928152908401958401959095209452929052825290205481565b34801561043e57600080fd5b5061020761044d366004612298565b610ca7565b34801561045e57600080fd5b506102d161046d366004611f0c565b6001600160a01b031660009081526003602052604090205490565b34801561049457600080fd5b50610207610d17565b3480156104a957600080fd5b506102536104b8366004612133565b610d4d565b3480156104c957600080fd5b506000546001600160a01b03165b6040516001600160a01b039091168152602001610235565b3480156104fb57600080fd5b506102d1610de7565b34801561051057600080fd5b50610253610df7565b34801561052557600080fd5b50610229610534366004612063565b610e06565b34801561054557600080fd5b50610229610554366004612063565b610e81565b34801561056557600080fd5b506104d77f000000000000000000000000000000000000000000000000000000000000000081565b34801561059957600080fd5b506102076105a836600461236d565b610e8f565b6102076105bb366004612298565b610f46565b3480156105cc57600080fd5b506102d16105db366004611f30565b611098565b3480156105ec57600080fd5b506102076105fb36600461214e565b6110c3565b34801561060c57600080fd5b5061020761061b366004611f0c565b61114c565b34801561062c57600080fd5b5061025361063b366004612320565b6111e7565b337f00000000000000000000000000000000000000000000000000000000000000006001600160a01b0316146106bd5760405162461bcd60e51b815260206004820152601e60248201527f4c7a4170703a20696e76616c696420656e64706f696e742063616c6c6572000060448201526064015b60405180910390fd5b61ffff8416600090815260016020526040812080546106db90612709565b80601f016020809104026020016040519081016040528092919081815260200182805461070790612709565b80156107545780601f1061072957610100808354040283529160200191610754565b820191906000526020600020905b81548152906001019060200180831161073757829003601f168201915b5050505050905080518451148015610779575080805190602001208480519060200120145b6107d45760405162461bcd60e51b815260206004820152602660248201527f4c7a4170703a20696e76616c696420736f757263652073656e64696e6720636f6044820152651b9d1c9858dd60d21b60648201526084016106b4565b6107e0858585856112a7565b5050505050565b60006001600160e01b03198216158061081057506001600160e01b031982166336372b0760e01b145b8061081f575061081f82611398565b92915050565b60606006805461083490612709565b80601f016020809104026020016040519081016040528092919081815260200182805461086090612709565b80156108ad5780601f10610882576101008083540402835291602001916108ad565b820191906000526020600020905b81548152906001019060200180831161089057829003601f168201915b5050505050905090565b6000546001600160a01b031633146108e15760405162461bcd60e51b81526004016106b4906124d2565b6040516307e0db1760e01b815261ffff821660048201527f00000000000000000000000000000000000000000000000000000000000000006001600160a01b0316906307e0db17906024015b600060405180830381600087803b15801561094757600080fd5b505af11580156107e0573d6000803e3d6000fd5b6000336109698185856113cd565b5060019392505050565b6000546001600160a01b0316331461099d5760405162461bcd60e51b81526004016106b4906124d2565b6040516310ddb13760e01b815261ffff821660048201527f00000000000000000000000000000000000000000000000000000000000000006001600160a01b0316906310ddb1379060240161092d565b6000336109fb8582856114f1565b610a06858585611565565b506001949350505050565b60008060008686604051602001610a299291906124b0565b60408051601f198184030181529082905263040a7bb160e41b825291506001600160a01b037f000000000000000000000000000000000000000000000000000000000000000016906340a7bb1090610a8d908b90309086908b908b90600401612507565b604080518083038186803b158015610aa457600080fd5b505afa158015610ab8573d6000803e3d6000fd5b505050506040513d601f19601f82011682018060405250810190610adc91906123db565b92509250509550959350505050565b600033610969818585610afe8383611098565b610b0891906126ae565b6113cd565b61ffff831660009081526001602052604081208054829190610b2e90612709565b80601f0160208091040260200160405190810160405280929190818152602001828054610b5a90612709565b8015610ba75780601f10610b7c57610100808354040283529160200191610ba7565b820191906000526020600020905b815481529060010190602001808311610b8a57829003601f168201915b505050505090508383604051610bbe929190612471565b60405180910390208180519060200120149150509392505050565b610be38282611733565b5050565b6000546001600160a01b03163314610c115760405162461bcd60e51b81526004016106b4906124d2565b6040516342d65a8d60e01b81526001600160a01b037f000000000000000000000000000000000000000000000000000000000000000016906342d65a8d90610c619086908690869060040161255b565b600060405180830381600087803b158015610c7b57600080fd5b505af1158015610c8f573d6000803e3d6000fd5b50505050505050565b610c8f87878787878787611812565b333014610d055760405162461bcd60e51b815260206004820152602660248201527f4e6f6e626c6f636b696e674c7a4170703a2063616c6c6572206d7573742062656044820152650204c7a4170760d41b60648201526084016106b4565b610d1184848484611969565b50505050565b6000546001600160a01b03163314610d415760405162461bcd60e51b81526004016106b4906124d2565b610d4b6000611a04565b565b60016020526000908152604090208054610d6690612709565b80601f0160208091040260200160405190810160405280929190818152602001828054610d9290612709565b8015610ddf5780601f10610db457610100808354040283529160200191610ddf565b820191906000526020600020905b815481529060010190602001808311610dc257829003601f168201915b505050505081565b6000610df260055490565b905090565b60606007805461083490612709565b60003381610e148286611098565b905083811015610e745760405162461bcd60e51b815260206004820152602560248201527f45524332303a2064656372656173656420616c6c6f77616e63652062656c6f77604482015264207a65726f60d81b60648201526084016106b4565b610a0682868684036113cd565b600033610969818585611565565b6000546001600160a01b03163314610eb95760405162461bcd60e51b81526004016106b4906124d2565b6040516332fb62e760e21b81526001600160a01b037f0000000000000000000000000000000000000000000000000000000000000000169063cbed8b9c90610f0d9088908890889088908890600401612629565b600060405180830381600087803b158015610f2757600080fd5b505af1158015610f3b573d6000803e3d6000fd5b505050505050505050565b61ffff84166000908152600260205260408082209051610f67908690612481565b90815260408051602092819003830190206001600160401b03861660009081529252902054905080610fe75760405162461bcd60e51b815260206004820152602360248201527f4e6f6e626c6f636b696e674c7a4170703a206e6f2073746f726564206d65737360448201526261676560e81b60648201526084016106b4565b8151602083012081146110465760405162461bcd60e51b815260206004820152602160248201527f4e6f6e626c6f636b696e674c7a4170703a20696e76616c6964207061796c6f616044820152601960fa1b60648201526084016106b4565b61ffff85166000908152600260205260408082209051611067908790612481565b90815260408051602092819003830190206001600160401b038716600090815292529020556107e085858585611969565b6001600160a01b03918216600090815260046020908152604080832093909416825291909152205490565b6000546001600160a01b031633146110ed5760405162461bcd60e51b81526004016106b4906124d2565b61ffff8316600090815260016020526040902061110b908383611d71565b507ffa41487ad5d6728f0b19276fa1eddc16558578f5109fc39d2dc33c3230470dab83838360405161113f9392919061255b565b60405180910390a1505050565b6000546001600160a01b031633146111765760405162461bcd60e51b81526004016106b4906124d2565b6001600160a01b0381166111db5760405162461bcd60e51b815260206004820152602660248201527f4f776e61626c653a206e6577206f776e657220697320746865207a65726f206160448201526564647265737360d01b60648201526084016106b4565b6111e481611a04565b50565b604051633d7b2f6f60e21b815261ffff808616600483015284166024820152306044820152606481018290526060907f00000000000000000000000000000000000000000000000000000000000000006001600160a01b03169063f5ecbdbc9060840160006040518083038186803b15801561126257600080fd5b505afa158015611276573d6000803e3d6000fd5b505050506040513d6000823e601f3d908101601f1916820160405261129e91908101906120b9565b95945050505050565b604051633356ae4560e11b815230906366ad5c8a906112d09087908790879087906004016125e0565b600060405180830381600087803b1580156112ea57600080fd5b505af19250505080156112fb575060015b610d11578080519060200120600260008661ffff1661ffff168152602001908152602001600020846040516113309190612481565b9081526040805191829003602090810183206001600160401b0387166000908152915220919091557fe6f254030bcb01ffd20558175c13fcaed6d1520be7becee4c961b65f79243b0d9061138b9086908690869086906125e0565b60405180910390a1610d11565b60006001600160e01b031982166301d1d13560e71b148061081f57506301ffc9a760e01b6001600160e01b031983161461081f565b6001600160a01b03831661142f5760405162461bcd60e51b8152602060048201526024808201527f45524332303a20617070726f76652066726f6d20746865207a65726f206164646044820152637265737360e01b60648201526084016106b4565b6001600160a01b0382166114905760405162461bcd60e51b815260206004820152602260248201527f45524332303a20617070726f766520746f20746865207a65726f206164647265604482015261737360f01b60648201526084016106b4565b6001600160a01b0383811660008181526004602090815260408083209487168084529482529182902085905590518481527f8c5be1e5ebec7d5bd14f71427d1e84f3dd0314c0f7b2291e5b200ac8c7c3b925910160405180910390a3505050565b60006114fd8484611098565b90506000198114610d1157818110156115585760405162461bcd60e51b815260206004820152601d60248201527f45524332303a20696e73756666696369656e7420616c6c6f77616e636500000060448201526064016106b4565b610d1184848484036113cd565b6001600160a01b0383166115c95760405162461bcd60e51b815260206004820152602560248201527f45524332303a207472616e736665722066726f6d20746865207a65726f206164604482015264647265737360d81b60648201526084016106b4565b6001600160a01b03821661162b5760405162461bcd60e51b815260206004820152602360248201527f45524332303a207472616e7366657220746f20746865207a65726f206164647260448201526265737360e81b60648201526084016106b4565b6001600160a01b038316600090815260036020526040902054818110156116a35760405162461bcd60e51b815260206004820152602660248201527f45524332303a207472616e7366657220616d6f756e7420657863656564732062604482015265616c616e636560d01b60648201526084016106b4565b6001600160a01b038085166000908152600360205260408082208585039055918516815290812080548492906116da9084906126ae565b92505081905550826001600160a01b0316846001600160a01b03167fddf252ad1be2c89b69c2b068fc378daa952ba7f163c4a11628f55a4df523b3ef8460405161172691815260200190565b60405180910390a3610d11565b6001600160a01b0382166117895760405162461bcd60e51b815260206004820152601f60248201527f45524332303a206d696e7420746f20746865207a65726f20616464726573730060448201526064016106b4565b806005600082825461179b91906126ae565b90915550506001600160a01b038216600090815260036020526040812080548392906117c89084906126ae565b90915550506040518181526001600160a01b038316906000907fddf252ad1be2c89b69c2b068fc378daa952ba7f163c4a11628f55a4df523b3ef9060200160405180910390a35050565b61181e87878787611a59565b600085856040516020016118339291906124b0565b60405160208183030381529060405290506118518782868686611a7f565b604051630f428ae960e31b815261ffff881660048201523060248201526000907f00000000000000000000000000000000000000000000000000000000000000006001600160a01b031690637a1457489060440160206040518083038186803b1580156118bd57600080fd5b505afa1580156118d1573d6000803e3d6000fd5b505050506040513d601f19601f820116820180604052508101906118f591906123ff565b9050866040516119059190612481565b604080519182900382208883526001600160401b03841660208401529161ffff8b16916001600160a01b038d16917f024797cc77ce15dc717112d54fb1df125fdfd8c81344fb046c5e074427ce1543910160405180910390a4505050505050505050565b6000808280602001905181019061198091906120ed565b60148201519193509150611995878284611c19565b806001600160a01b0316866040516119ad9190612481565b604080519182900382208583526001600160401b03891660208401529161ffff8b16917f64e10c37f404d128982dce114f5d233c14c5c7f6d8db93099e3d99dacb9e27ba910160405180910390a450505050505050565b600080546001600160a01b038381166001600160a01b0319831681178455604051919092169283917f8be0079c531659141344cd1fd0a4f28419497f9722a3daafe3b4186f6b6457e09190a35050565b505050565b336001600160a01b0385168114611a7557611a758582846114f1565b6107e08583611c23565b61ffff851660009081526001602052604081208054611a9d90612709565b80601f0160208091040260200160405190810160405280929190818152602001828054611ac990612709565b8015611b165780601f10611aeb57610100808354040283529160200191611b16565b820191906000526020600020905b815481529060010190602001808311611af957829003601f168201915b50505050509050805160001415611b885760405162461bcd60e51b815260206004820152603060248201527f4c7a4170703a2064657374696e6174696f6e20636861696e206973206e6f742060448201526f61207472757374656420736f7572636560801b60648201526084016106b4565b60405162c5803160e81b81526001600160a01b037f0000000000000000000000000000000000000000000000000000000000000000169063c5803100903490611bdf908a9086908b908b908b908b90600401612579565b6000604051808303818588803b158015611bf857600080fd5b505af1158015611c0c573d6000803e3d6000fd5b5050505050505050505050565b611a548282611733565b6001600160a01b038216611c835760405162461bcd60e51b815260206004820152602160248201527f45524332303a206275726e2066726f6d20746865207a65726f206164647265736044820152607360f81b60648201526084016106b4565b6001600160a01b03821660009081526003602052604090205481811015611cf75760405162461bcd60e51b815260206004820152602260248201527f45524332303a206275726e20616d6f756e7420657863656564732062616c616e604482015261636560f01b60648201526084016106b4565b6001600160a01b0383166000908152600360205260408120838303905560058054849290611d269084906126c6565b90915550506040518281526000906001600160a01b038516907fddf252ad1be2c89b69c2b068fc378daa952ba7f163c4a11628f55a4df523b3ef9060200160405180910390a3505050565b828054611d7d90612709565b90600052602060002090601f016020900481019282611d9f5760008555611de5565b82601f10611db85782800160ff19823516178555611de5565b82800160010185558215611de5579182015b82811115611de5578235825591602001919060010190611dca565b50611df1929150611df5565b5090565b5b80821115611df15760008155600101611df6565b60008083601f840112611e1c57600080fd5b5081356001600160401b03811115611e3357600080fd5b602083019150836020828501011115611e4b57600080fd5b9250929050565b600082601f830112611e6357600080fd5b8135611e76611e7182612687565b612657565b818152846020838601011115611e8b57600080fd5b816020850160208301376000918101602001919091529392505050565b600082601f830112611eb957600080fd5b8151611ec7611e7182612687565b818152846020838601011115611edc57600080fd5b611eed8260208301602087016126dd565b949350505050565b803561ffff81168114611f0757600080fd5b919050565b600060208284031215611f1e57600080fd5b8135611f2981612770565b9392505050565b60008060408385031215611f4357600080fd5b8235611f4e81612770565b91506020830135611f5e81612770565b809150509250929050565b600080600060608486031215611f7e57600080fd5b8335611f8981612770565b92506020840135611f9981612770565b929592945050506040919091013590565b600080600080600080600060e0888a031215611fc557600080fd5b8735611fd081612770565b9650611fde60208901611ef5565b955060408801356001600160401b0380821115611ffa57600080fd5b6120068b838c01611e52565b965060608a0135955060808a0135915061201f82612770565b90935060a08901359061203182612770565b90925060c0890135908082111561204757600080fd5b506120548a828b01611e52565b91505092959891949750929550565b6000806040838503121561207657600080fd5b823561208181612770565b946020939093013593505050565b6000602082840312156120a157600080fd5b81356001600160e01b031981168114611f2957600080fd5b6000602082840312156120cb57600080fd5b81516001600160401b038111156120e157600080fd5b611eed84828501611ea8565b6000806040838503121561210057600080fd5b82516001600160401b0381111561211657600080fd5b61212285828601611ea8565b925050602083015190509250929050565b60006020828403121561214557600080fd5b611f2982611ef5565b60008060006040848603121561216357600080fd5b61216c84611ef5565b925060208401356001600160401b0381111561218757600080fd5b61219386828701611e0a565b9497909650939450505050565b600080600080600060a086880312156121b857600080fd5b6121c186611ef5565b945060208601356001600160401b03808211156121dd57600080fd5b6121e989838a01611e52565b95506040880135945060608801359150811515821461220757600080fd5b9092506080870135908082111561221d57600080fd5b5061222a88828901611e52565b9150509295509295909350565b60008060006060848603121561224c57600080fd5b61225584611ef5565b925060208401356001600160401b0381111561227057600080fd5b61227c86828701611e52565b925050604084013561228d81612785565b809150509250925092565b600080600080608085870312156122ae57600080fd5b6122b785611ef5565b935060208501356001600160401b03808211156122d357600080fd5b6122df88838901611e52565b9450604087013591506122f182612785565b9092506060860135908082111561230757600080fd5b5061231487828801611e52565b91505092959194509250565b6000806000806080858703121561233657600080fd5b61233f85611ef5565b935061234d60208601611ef5565b9250604085013561235d81612770565b9396929550929360600135925050565b60008060008060006080868803121561238557600080fd5b61238e86611ef5565b945061239c60208701611ef5565b93506040860135925060608601356001600160401b038111156123be57600080fd5b6123ca88828901611e0a565b969995985093965092949392505050565b600080604083850312156123ee57600080fd5b505080516020909101519092909150565b60006020828403121561241157600080fd5b8151611f2981612785565b81835281816020850137506000828201602090810191909152601f909101601f19169091010190565b6000815180845261245d8160208601602086016126dd565b601f01601f19169290920160200192915050565b8183823760009101908152919050565b600082516124938184602087016126dd565b9190910192915050565b602081526000611f296020830184612445565b6040815260006124c36040830185612445565b90508260208301529392505050565b6020808252818101527f4f776e61626c653a2063616c6c6572206973206e6f7420746865206f776e6572604082015260600190565b61ffff861681526001600160a01b038516602082015260a06040820181905260009061253590830186612445565b8415156060840152828103608084015261254f8185612445565b98975050505050505050565b61ffff8416815260406020820152600061129e60408301848661241c565b61ffff8716815260c06020820152600061259660c0830188612445565b82810360408401526125a88188612445565b6001600160a01b0387811660608601528616608085015283810360a085015290506125d38185612445565b9998505050505050505050565b61ffff851681526080602082015260006125fd6080830186612445565b6001600160401b0385166040840152828103606084015261261e8185612445565b979650505050505050565b600061ffff80881683528087166020840152508460408301526080606083015261261e60808301848661241c565b604051601f8201601f191681016001600160401b038111828210171561267f5761267f61275a565b604052919050565b60006001600160401b038211156126a0576126a061275a565b50601f01601f191660200190565b600082198211156126c1576126c1612744565b500190565b6000828210156126d8576126d8612744565b500390565b60005b838110156126f85781810151838201526020016126e0565b83811115610d115750506000910152565b600181811c9082168061271d57607f821691505b6020821081141561273e57634e487b7160e01b600052602260045260246000fd5b50919050565b634e487b7160e01b600052601160045260246000fd5b634e487b7160e01b600052604160045260246000fd5b6001600160a01b03811681146111e457600080fd5b6001600160401b03811681146111e457600080fdfea2646970667358221220516b440266ef82f97417b69bfe109c554bc923db692e245847a0a4eaea20f62164736f6c63430008070033a26469706673582212200ba549855ae8ac103d969672e262598f7c58d3adbb6177a0d92a2e7494419da164736f6c63430008070033",
  "linkReferences": {},
  "deployedLinkReferences": {}
}