{
  "_format": "hh-sol-artifact-1",
  "contractName": "PatchBuyer",
  "sourceName": "src/PatchBuyer.sol",
  "abi": [
    {
      "inputs": [
        {
          "internalType": "address",
          "name": "chainlinkToken",
          "type": "address"
        },
        {
          "internalType": "address",
          "name": "chainlinkOracle",
          "type": "address"
        }
      ],
      "stateMutability": "nonpayable",
      "type": "constructor"
    },
    {
      "anonymous": false,
      "inputs": [
        {
          "indexed": true,
          "internalType": "bytes32",
          "name": "id",
          "type": "bytes32"
        }
      ],
      "name": "ChainlinkCancelled",
      "type": "event"
    },
    {
      "anonymous": false,
      "inputs": [
        {
          "indexed": true,
          "internalType": "bytes32",
          "name": "id",
          "type": "bytes32"
        }
      ],
      "name": "ChainlinkFulfilled",
      "type": "event"
    },
    {
      "anonymous": false,
      "inputs": [
        {
          "indexed": true,
          "internalType": "bytes32",
          "name": "id",
          "type": "bytes32"
        }
      ],
      "name": "ChainlinkRequested",
      "type": "event"
    },
    {
      "anonymous": false,
      "inputs": [
        {
          "indexed": false,
          "internalType": "uint256",
          "name": "price",
          "type": "uint256"
        },
        {
          "indexed": false,
          "internalType": "string",
          "name": "patchProjectId",
          "type": "string"
        }
      ],
      "name": "PreparingPurchase",
      "type": "event"
    },
    {
      "anonymous": false,
      "inputs": [
        {
          "indexed": true,
          "internalType": "bytes32",
          "name": "requestId",
          "type": "bytes32"
        },
        {
          "indexed": true,
          "internalType": "string",
          "name": "tokenURI",
          "type": "string"
        },
        {
          "indexed": false,
          "internalType": "uint256",
          "name": "mass_g",
          "type": "uint256"
        },
        {
          "indexed": true,
          "internalType": "string",
          "name": "project",
          "type": "string"
        }
      ],
      "name": "PurchaseFulfilled",
      "type": "event"
    },
    {
      "inputs": [
        {
          "internalType": "address",
          "name": "owner",
          "type": "address"
        },
        {
          "internalType": "uint256",
          "name": "projectId",
          "type": "uint256"
        }
      ],
      "name": "balanceOf",
      "outputs": [
        {
          "internalType": "uint256",
          "name": "balance",
          "type": "uint256"
        }
      ],
      "stateMutability": "view",
      "type": "function"
    },
    {
      "inputs": [
        {
          "internalType": "address",
          "name": "owner",
          "type": "address"
        },
        {
          "internalType": "string",
          "name": "project",
          "type": "string"
        }
      ],
      "name": "balanceOf",
      "outputs": [
        {
          "internalType": "uint256",
          "name": "balance",
          "type": "uint256"
        }
      ],
      "stateMutability": "view",
      "type": "function"
    },
    {
      "inputs": [
        {
          "internalType": "string",
          "name": "patchProjectId",
          "type": "string"
        },
        {
          "internalType": "uint256",
          "name": "priceInPenny",
          "type": "uint256"
        }
      ],
      "name": "buy",
      "outputs": [
        {
          "internalType": "bool",
          "name": "",
          "type": "bool"
        }
      ],
      "stateMutability": "nonpayable",
      "type": "function"
    },
    {
      "inputs": [],
      "name": "count",
      "outputs": [
        {
          "internalType": "uint256",
          "name": "",
          "type": "uint256"
        }
      ],
      "stateMutability": "view",
      "type": "function"
    },
    {
      "inputs": [
        {
          "internalType": "uint256",
          "name": "priceInPenny",
          "type": "uint256"
        },
        {
          "internalType": "string",
          "name": "patchProjectId",
          "type": "string"
        }
      ],
      "name": "executeBuy",
      "outputs": [],
      "stateMutability": "nonpayable",
      "type": "function"
    },
    {
      "inputs": [
        {
          "internalType": "bytes32",
          "name": "requestId",
          "type": "bytes32"
        },
        {
          "internalType": "string",
          "name": "tokenURI",
          "type": "string"
        },
        {
          "internalType": "uint256",
          "name": "mass_g",
          "type": "uint256"
        },
        {
          "internalType": "string",
          "name": "project",
          "type": "string"
        }
      ],
      "name": "fulfillBytes",
      "outputs": [],
      "stateMutability": "nonpayable",
      "type": "function"
    },
    {
      "inputs": [
        {
          "internalType": "string",
          "name": "project",
          "type": "string"
        },
        {
          "internalType": "string",
          "name": "symbol",
          "type": "string"
        }
      ],
      "name": "generateFT",
      "outputs": [],
      "stateMutability": "nonpayable",
      "type": "function"
    },
    {
      "inputs": [],
      "name": "getLatestPrice",
      "outputs": [
        {
          "internalType": "int256",
          "name": "",
          "type": "int256"
        }
      ],
      "stateMutability": "view",
      "type": "function"
    },
    {
      "inputs": [
        {
          "internalType": "bytes32",
          "name": "",
          "type": "bytes32"
        }
      ],
      "name": "reciepts",
      "outputs": [
        {
          "internalType": "address",
          "name": "purchaser",
          "type": "address"
        },
        {
          "internalType": "uint256",
          "name": "amount",
          "type": "uint256"
        }
      ],
      "stateMutability": "view",
      "type": "function"
    },
    {
      "inputs": [
        {
          "internalType": "uint256",
          "name": "",
          "type": "uint256"
        }
      ],
      "name": "tokens",
      "outputs": [
        {
          "internalType": "contract ProjectFT",
          "name": "",
          "type": "address"
        }
      ],
      "stateMutability": "view",
      "type": "function"
    }
  ],
  "bytecode": "0x608060405260016005553480156200001657600080fd5b5060405162002872380380620028728339810160408190526200003991620000ca565b600080546001600160a01b03191673d0d5e3db44de05e9f294bb0a3beeaf030de24ada17905581816200008882600380546001600160a01b0319166001600160a01b0392909216919091179055565b600480546001600160a01b0319166001600160a01b0383161790555050505062000102565b80516001600160a01b0381168114620000c557600080fd5b919050565b60008060408385031215620000de57600080fd5b620000e983620000ad565b9150620000f960208401620000ad565b90509250929050565b61276080620001126000396000f3fe60806040523480156200001157600080fd5b5060043610620000aa5760003560e01c80634bdb02e5116200006e5780634bdb02e5146200017a5780634f64b2be14620001915780635ce06dff14620001d65780638e15f47314620001ed578063b9b092c814620001f757600080fd5b8062fdd58e14620000af57806306661abd14620000d95780630ca5c50414620000e35780631fdf7f6a146200010b5780632bea28d11462000124575b600080fd5b620000c6620000c0366004620014a7565b6200020e565b6040519081526020015b60405180910390f35b620000c660095481565b620000fa620000f43660046200160d565b620002f6565b6040519015158152602001620000d0565b620001226200011c36600462001512565b6200046d565b005b6200015a62000135366004620014f8565b600860205260009081526040902080546001909101546001600160a01b039091169082565b604080516001600160a01b039093168352602083019190915201620000d0565b620001226200018b3660046200166f565b6200073d565b620001bd620001a2366004620014f8565b6007602052600090815260409020546001600160a01b031681565b6040516001600160a01b039091168152602001620000d0565b62000122620001e73660046200159b565b62000965565b620000c662000a16565b620000c6620002083660046200144f565b62000aa2565b6000818152600760205260408120546001600160a01b0316806200026f5760405162461bcd60e51b81526020600482015260136024820152721c1c9bda9958dd1259081b9bdd08199bdd5b99606a1b60448201526064015b60405180910390fd5b6040516370a0823160e01b81526001600160a01b0385811660048301528216906370a082319060240160206040518083038186803b158015620002b157600080fd5b505afa158015620002c6573d6000803e3d6000fd5b505050506040513d601f19601f82011682018060405250810190620002ec919062001655565b9150505b92915050565b6000808211620003555760405162461bcd60e51b8152602060048201526024808201527f506c656173652073656e642076616c756520746f20746865207472616e7361636044820152633a34b7b760e11b606482015260840162000266565b73dbc4c91be4722e54672bcccb5ead82c9bcf356f66323b872dd33306200037f8661271062001a06565b6040516001600160e01b031960e086901b1681526001600160a01b0393841660048201529290911660248301526044820152606401602060405180830381600087803b158015620003cf57600080fd5b505af1158015620003e4573d6000803e3d6000fd5b505050506040513d601f19601f820116820180604052508101906200040a9190620014d4565b620004585760405162461bcd60e51b815260206004820152601f60248201527f4552432d3230207472616e7366657220646964206e6f74207375636365656400604482015260640162000266565b6200046482846200073d565b50600192915050565b60008681526006602052604090205486906001600160a01b03163314620004e85760405162461bcd60e51b815260206004820152602860248201527f536f75726365206d75737420626520746865206f7261636c65206f6620746865604482015267081c995c5d595cdd60c21b606482015260840162000266565b60008181526006602052604080822080546001600160a01b03191690555182917f7cc135e0cebb02c3480ae5d74d377283180a2601f8f644edf7987b009316c63a91a2600087815260086020908152604091829020825180840190935280546001600160a01b031683526001015490820152846200060b57805160208201516040516323b872dd60e01b81523060048201526001600160a01b039092166024830152604482015273dbc4c91be4722e54672bcccb5ead82c9bcf356f6906323b872dd90606401602060405180830381600087803b158015620005c957600080fd5b505af1158015620005de573d6000803e3d6000fd5b505050506040513d601f19601f82011682018060405250810190620006049190620014d4565b5062000733565b83836040516200061d92919062001765565b604051809103902087876040516200063792919062001765565b6040518091039020897f34492e80efe5e3007f51fd61d4182a0b5e88745e0c3daf0a7100ff9c964498e8886040516200067291815260200190565b60405180910390a4600084846040516200068e92919062001765565b604080519182900390912060008181526007602052919091205483519192506001600160a01b03169081906340c10f1990620006d08a64e8d4a5100062001a06565b6040516001600160e01b031960e085901b1681526001600160a01b0390921660048301526024820152604401600060405180830381600087803b1580156200071757600080fd5b505af11580156200072c573d6000803e3d6000fd5b5050505050505b5050505050505050565b7f346564366433383362386136346239666234343533623138313966383066663160006200076b8462000ad2565b9050600080620007848430630fefbfb560e11b62000be7565b9050620007d46040518060400160405280600381526020016219d95d60ea1b8152508487604051602001620007bb92919062001775565b60408051601f1981840301815291905283919062000c12565b6200082e60405180604001604052806005815260200164706174683160d81b8152506040518060400160405280600e81526020016d646174612c746f6b656e5f75726960901b8152508362000c129092919063ffffffff16565b62000885604051806040016040528060058152602001643830ba341960d91b8152506040518060400160405280600b81526020016a646174612c6d6173735f6760a81b8152508362000c129092919063ffffffff16565b620008dd60405180604001604052806005815260200164706174683360d81b8152506040518060400160405280600c81526020016b19185d184b1c1c9bda9958dd60a21b8152508362000c129092919063ffffffff16565b6000620008eb828462000c39565b60408051808201909152338152909150602081016200090d8961271062001a06565b905260008281526008602090815260408220835181546001600160a01b0319166001600160a01b039091161781559201516001909201919091556009805491620009578362001a71565b919050555050505050505050565b600084846040516200097992919062001765565b60408051918290039091206000818152600760205291909120549091506001600160a01b03168062000a0e5785858585604051620009b790620012ef565b620009c6949392919062001899565b604051809103906000f080158015620009e3573d6000803e3d6000fd5b50600083815260076020526040902080546001600160a01b0319166001600160a01b03831617905590505b505050505050565b6000805460408051633fabe5a360e21b8152905183926001600160a01b03169163feaf968c9160048083019260a0929190829003018186803b15801562000a5c57600080fd5b505afa15801562000a71573d6000803e3d6000fd5b505050506040513d601f19601f8201168201806040525081019062000a979190620016b9565b509195945050505050565b600062000aca84848460405162000abb92919062001765565b6040519081900390206200020e565b949350505050565b60608162000af75750506040805180820190915260018152600360fc1b602082015290565b8160005b811562000b27578062000b0e8162001a71565b915062000b1f9050600a83620018ea565b915062000afb565b6000816001600160401b0381111562000b445762000b4462001ae8565b6040519080825280601f01601f19166020018201604052801562000b6f576020820181803683370190505b5090505b841562000aca5762000b8760018362001a28565b915062000b96600a8662001a8f565b62000ba3906030620018cf565b60f81b81838151811062000bbb5762000bbb62001ad2565b60200101906001600160f81b031916908160001a90535062000bdf600a86620018ea565b945062000b73565b62000bf1620012fd565b62000bfb620012fd565b62000c098186868662000c5c565b95945050505050565b608083015162000c23908362000c9d565b608083015162000c34908262000c9d565b505050565b60045460009062000c55906001600160a01b0316848462000cb8565b9392505050565b62000c66620012fd565b62000c78856080015161010062000d51565b50509183526001600160a01b031660208301526001600160e01b031916604082015290565b62000cac826003835162000dbf565b62000c34828262000ee2565b60055460009062000ccb816001620018cf565b600555835160408086015160808701515191516000936320214ca360e11b9362000d059386938493923092918a9160019160240162001806565b60408051601f198184030181529190526020810180516001600160e01b03166001600160e01b031990931692909217909152905062000d478683868462000f0b565b9695505050505050565b60408051808201909152606081526000602082015262000d7360208362001a8f565b1562000da25762000d8660208362001a8f565b62000d9390602062001a28565b62000d9f9083620018cf565b91505b506020828101829052604080518085526000815290920101905290565b6017816001600160401b03161162000dec5762000de68360e0600585901b16831762001080565b50505050565b60ff816001600160401b03161162000e2d5762000e15836018611fe0600586901b161762001080565b5062000de6836001600160401b0383166001620010a7565b61ffff816001600160401b03161162000e6f5762000e57836019611fe0600586901b161762001080565b5062000de6836001600160401b0383166002620010a7565b63ffffffff816001600160401b03161162000eb35762000e9b83601a611fe0600586901b161762001080565b5062000de6836001600160401b0383166004620010a7565b62000eca83601b611fe0600586901b161762001080565b5062000de6836001600160401b0383166008620010a7565b60408051808201909152606081526000602082015262000c5583846000015151848551620010cf565b6040516bffffffffffffffffffffffff193060601b1660208201526034810184905260009060540160408051808303601f1901815282825280516020918201206000818152600690925291812080546001600160a01b0319166001600160a01b038a1617905590925082917fb5e6e01e79f91267dc17b4e6314d5d4d03593d2ceee0fbb452b750bd70ea5af99190a2600354604051630200057560e51b81526001600160a01b0390911690634000aea09062000fd09088908790879060040162001870565b602060405180830381600087803b15801562000feb57600080fd5b505af115801562001000573d6000803e3d6000fd5b505050506040513d601f19601f82011682018060405250810190620010269190620014d4565b62000aca5760405162461bcd60e51b815260206004820152602360248201527f756e61626c6520746f207472616e73666572416e6443616c6c20746f206f7261604482015262636c6560e81b606482015260840162000266565b60408051808201909152606081526000602082015262000c558384600001515184620011ce565b60408051808201909152606081526000602082015262000aca8485600001515185856200122f565b6040805180820190915260608152600060208201528251821115620010f357600080fd5b6020850151620011048386620018cf565b1115620011405762001140856200112d87602001518786620011279190620018cf565b620012bb565b6200113a90600262001a06565b620012d4565b600080865180518760208301019350808887011115620011605787860182525b505050602084015b60208410620011a8578051825262001182602083620018cf565b915062001191602082620018cf565b9050620011a060208562001a28565b935062001168565b51815160001960208690036101000a019081169019919091161790525083949350505050565b6040805180820190915260608152600060208201528360200151831062001207576200120784856020015160026200113a919062001a06565b83518051602085830101848153508085141562001225576001810182525b5093949350505050565b6040805180820190915260608152600060208201526020850151620012558584620018cf565b11156200126d576200126d856200112d8685620018cf565b600060016200127f846101006200194a565b6200128b919062001a28565b9050855183868201018583198251161781525080518487011115620012b05783860181525b509495945050505050565b600081831115620012ce575081620002f0565b50919050565b8151620012e2838362000d51565b5062000de6838262000ee2565b610c2c8062001aff83390190565b6040805160a0810182526000808252602080830182905282840182905260608084018390528451808601909552845283015290608082015290565b80356001600160a01b03811681146200135057600080fd5b919050565b60008083601f8401126200136857600080fd5b5081356001600160401b038111156200138057600080fd5b6020830191508360208285010111156200139957600080fd5b9250929050565b600082601f830112620013b257600080fd5b81356001600160401b0380821115620013cf57620013cf62001ae8565b604051601f8301601f19908116603f01168101908282118183101715620013fa57620013fa62001ae8565b816040528381528660208588010111156200141457600080fd5b836020870160208301376000602085830101528094505050505092915050565b805169ffffffffffffffffffff811681146200135057600080fd5b6000806000604084860312156200146557600080fd5b620014708462001338565b925060208401356001600160401b038111156200148c57600080fd5b6200149a8682870162001355565b9497909650939450505050565b60008060408385031215620014bb57600080fd5b620014c68362001338565b946020939093013593505050565b600060208284031215620014e757600080fd5b8151801515811462000c5557600080fd5b6000602082840312156200150b57600080fd5b5035919050565b600080600080600080608087890312156200152c57600080fd5b8635955060208701356001600160401b03808211156200154b57600080fd5b620015598a838b0162001355565b90975095506040890135945060608901359150808211156200157a57600080fd5b506200158989828a0162001355565b979a9699509497509295939492505050565b60008060008060408587031215620015b257600080fd5b84356001600160401b0380821115620015ca57600080fd5b620015d88883890162001355565b90965094506020870135915080821115620015f257600080fd5b50620016018782880162001355565b95989497509550505050565b600080604083850312156200162157600080fd5b82356001600160401b038111156200163857600080fd5b6200164685828601620013a0565b95602094909401359450505050565b6000602082840312156200166857600080fd5b5051919050565b600080604083850312156200168357600080fd5b8235915060208301356001600160401b03811115620016a157600080fd5b620016af85828601620013a0565b9150509250929050565b600080600080600060a08688031215620016d257600080fd5b620016dd8662001434565b9450602086015193506040860151925060608601519150620017026080870162001434565b90509295509295909350565b600081518084526200172881602086016020860162001a42565b601f01601f19169290920160200192915050565b81835281816020850137506000828201602090810191909152601f909101601f19169091010190565b8183823760009101908152919050565b7f68747470733a2f2f706174636870757263686173652e6e65746c6966792e617081526f702f6170692f6275793f70726963653d60801b602082015260008351620017c881603085016020880162001a42565b6f26706174636850726f6a65637449643d60801b6030918401918201528351620017fa81604084016020880162001a42565b01604001949350505050565b6001600160a01b0389811682526020820189905260408201889052861660608201526001600160e01b03198516608082015260a0810184905260c0810183905261010060e0820181905260009062001861838201856200170e565b9b9a5050505050505050505050565b60018060a01b038416815282602082015260606040820152600062000c0960608301846200170e565b604081526000620018af6040830186886200173c565b8281036020840152620018c48185876200173c565b979650505050505050565b60008219821115620018e557620018e562001aa6565b500190565b600082620018fc57620018fc62001abc565b500490565b600181815b808511156200194257816000190482111562001926576200192662001aa6565b808516156200193457918102915b93841c939080029062001906565b509250929050565b600062000c5583836000826200196357506001620002f0565b816200197257506000620002f0565b81600181146200198b57600281146200199657620019b6565b6001915050620002f0565b60ff841115620019aa57620019aa62001aa6565b50506001821b620002f0565b5060208310610133831016604e8410600b8410161715620019db575081810a620002f0565b620019e7838362001901565b8060001904821115620019fe57620019fe62001aa6565b029392505050565b600081600019048311821515161562001a235762001a2362001aa6565b500290565b60008282101562001a3d5762001a3d62001aa6565b500390565b60005b8381101562001a5f57818101518382015260200162001a45565b8381111562000de65750506000910152565b600060001982141562001a885762001a8862001aa6565b5060010190565b60008262001aa15762001aa162001abc565b500690565b634e487b7160e01b600052601160045260246000fd5b634e487b7160e01b600052601260045260246000fd5b634e487b7160e01b600052603260045260246000fd5b634e487b7160e01b600052604160045260246000fdfe60806040523480156200001157600080fd5b5060405162000c2c38038062000c2c8339810160408190526200003491620001cb565b8151829082906200004d9060039060208501906200006e565b508051620000639060049060208401906200006e565b505050505062000288565b8280546200007c9062000235565b90600052602060002090601f016020900481019282620000a05760008555620000eb565b82601f10620000bb57805160ff1916838001178555620000eb565b82800160010185558215620000eb579182015b82811115620000eb578251825591602001919060010190620000ce565b50620000f9929150620000fd565b5090565b5b80821115620000f95760008155600101620000fe565b600082601f8301126200012657600080fd5b81516001600160401b038082111562000143576200014362000272565b604051601f8301601f19908116603f011681019082821181831017156200016e576200016e62000272565b816040528381526020925086838588010111156200018b57600080fd5b600091505b83821015620001af578582018301518183018401529082019062000190565b83821115620001c15760008385830101525b9695505050505050565b60008060408385031215620001df57600080fd5b82516001600160401b0380821115620001f757600080fd5b620002058683870162000114565b935060208501519150808211156200021c57600080fd5b506200022b8582860162000114565b9150509250929050565b600181811c908216806200024a57607f821691505b602082108114156200026c57634e487b7160e01b600052602260045260246000fd5b50919050565b634e487b7160e01b600052604160045260246000fd5b61099480620002986000396000f3fe608060405234801561001057600080fd5b50600436106100b45760003560e01c806340c10f191161007157806340c10f191461014157806370a082311461015657806395d89b411461017f578063a457c2d714610187578063a9059cbb1461019a578063dd62ed3e146101ad57600080fd5b806306fdde03146100b9578063095ea7b3146100d757806318160ddd146100fa57806323b872dd1461010c578063313ce5671461011f578063395093511461012e575b600080fd5b6100c16101c0565b6040516100ce91906108a8565b60405180910390f35b6100ea6100e536600461087e565b610252565b60405190151581526020016100ce565b6002545b6040519081526020016100ce565b6100ea61011a366004610842565b61026a565b604051601281526020016100ce565b6100ea61013c36600461087e565b61028e565b61015461014f36600461087e565b6102b0565b005b6100fe6101643660046107ed565b6001600160a01b031660009081526020819052604090205490565b6100c16102be565b6100ea61019536600461087e565b6102cd565b6100ea6101a836600461087e565b61034d565b6100fe6101bb36600461080f565b61035b565b6060600380546101cf90610923565b80601f01602080910402602001604051908101604052809291908181526020018280546101fb90610923565b80156102485780601f1061021d57610100808354040283529160200191610248565b820191906000526020600020905b81548152906001019060200180831161022b57829003601f168201915b5050505050905090565b600033610260818585610386565b5060019392505050565b6000336102788582856104aa565b610283858585610524565b506001949350505050565b6000336102608185856102a1838361035b565b6102ab91906108fd565b610386565b6102ba82826106f2565b5050565b6060600480546101cf90610923565b600033816102db828661035b565b9050838110156103405760405162461bcd60e51b815260206004820152602560248201527f45524332303a2064656372656173656420616c6c6f77616e63652062656c6f77604482015264207a65726f60d81b60648201526084015b60405180910390fd5b6102838286868403610386565b600033610260818585610524565b6001600160a01b03918216600090815260016020908152604080832093909416825291909152205490565b6001600160a01b0383166103e85760405162461bcd60e51b8152602060048201526024808201527f45524332303a20617070726f76652066726f6d20746865207a65726f206164646044820152637265737360e01b6064820152608401610337565b6001600160a01b0382166104495760405162461bcd60e51b815260206004820152602260248201527f45524332303a20617070726f766520746f20746865207a65726f206164647265604482015261737360f01b6064820152608401610337565b6001600160a01b0383811660008181526001602090815260408083209487168084529482529182902085905590518481527f8c5be1e5ebec7d5bd14f71427d1e84f3dd0314c0f7b2291e5b200ac8c7c3b925910160405180910390a3505050565b60006104b6848461035b565b9050600019811461051e57818110156105115760405162461bcd60e51b815260206004820152601d60248201527f45524332303a20696e73756666696369656e7420616c6c6f77616e63650000006044820152606401610337565b61051e8484848403610386565b50505050565b6001600160a01b0383166105885760405162461bcd60e51b815260206004820152602560248201527f45524332303a207472616e736665722066726f6d20746865207a65726f206164604482015264647265737360d81b6064820152608401610337565b6001600160a01b0382166105ea5760405162461bcd60e51b815260206004820152602360248201527f45524332303a207472616e7366657220746f20746865207a65726f206164647260448201526265737360e81b6064820152608401610337565b6001600160a01b038316600090815260208190526040902054818110156106625760405162461bcd60e51b815260206004820152602660248201527f45524332303a207472616e7366657220616d6f756e7420657863656564732062604482015265616c616e636560d01b6064820152608401610337565b6001600160a01b038085166000908152602081905260408082208585039055918516815290812080548492906106999084906108fd565b92505081905550826001600160a01b0316846001600160a01b03167fddf252ad1be2c89b69c2b068fc378daa952ba7f163c4a11628f55a4df523b3ef846040516106e591815260200190565b60405180910390a361051e565b6001600160a01b0382166107485760405162461bcd60e51b815260206004820152601f60248201527f45524332303a206d696e7420746f20746865207a65726f2061646472657373006044820152606401610337565b806002600082825461075a91906108fd565b90915550506001600160a01b038216600090815260208190526040812080548392906107879084906108fd565b90915550506040518181526001600160a01b038316906000907fddf252ad1be2c89b69c2b068fc378daa952ba7f163c4a11628f55a4df523b3ef9060200160405180910390a35050565b80356001600160a01b03811681146107e857600080fd5b919050565b6000602082840312156107ff57600080fd5b610808826107d1565b9392505050565b6000806040838503121561082257600080fd5b61082b836107d1565b9150610839602084016107d1565b90509250929050565b60008060006060848603121561085757600080fd5b610860846107d1565b925061086e602085016107d1565b9150604084013590509250925092565b6000806040838503121561089157600080fd5b61089a836107d1565b946020939093013593505050565b600060208083528351808285015260005b818110156108d5578581018301518582016040015282016108b9565b818111156108e7576000604083870101525b50601f01601f1916929092016040019392505050565b6000821982111561091e57634e487b7160e01b600052601160045260246000fd5b500190565b600181811c9082168061093757607f821691505b6020821081141561095857634e487b7160e01b600052602260045260246000fd5b5091905056fea2646970667358221220eaa8b9701939b9cecaa94b6f62b76129cd6550a651b4a58730b8735daddc78f364736f6c63430008070033a264697066735822122050ca421de2aaaf50fefb86d3411a1028c5a9573d9bbd896461c354183e05ae0964736f6c63430008070033",
  "linkReferences": {},
  "deployedLinkReferences": {}
}