{
  "_format": "hh-sol-artifact-1",
  "contractName": "PatchBuyer",
  "sourceName": "src/PatchBuyer.sol",
  "abi": [
    {
      "inputs": [
        {
          "internalType": "address",
          "name": "chainlinkToken",
          "type": "address"
        },
        {
          "internalType": "address",
          "name": "chainlinkOracle",
          "type": "address"
        }
      ],
      "stateMutability": "nonpayable",
      "type": "constructor"
    },
    {
      "anonymous": false,
      "inputs": [
        {
          "indexed": true,
          "internalType": "bytes32",
          "name": "id",
          "type": "bytes32"
        }
      ],
      "name": "ChainlinkCancelled",
      "type": "event"
    },
    {
      "anonymous": false,
      "inputs": [
        {
          "indexed": true,
          "internalType": "bytes32",
          "name": "id",
          "type": "bytes32"
        }
      ],
      "name": "ChainlinkFulfilled",
      "type": "event"
    },
    {
      "anonymous": false,
      "inputs": [
        {
          "indexed": true,
          "internalType": "bytes32",
          "name": "id",
          "type": "bytes32"
        }
      ],
      "name": "ChainlinkRequested",
      "type": "event"
    },
    {
      "anonymous": false,
      "inputs": [
        {
          "indexed": false,
          "internalType": "uint256",
          "name": "price",
          "type": "uint256"
        },
        {
          "indexed": false,
          "internalType": "string",
          "name": "patchProjectId",
          "type": "string"
        }
      ],
      "name": "PreparingPurchase",
      "type": "event"
    },
    {
      "anonymous": false,
      "inputs": [
        {
          "indexed": true,
          "internalType": "bytes32",
          "name": "requestId",
          "type": "bytes32"
        },
        {
          "indexed": true,
          "internalType": "string",
          "name": "tokenURI",
          "type": "string"
        },
        {
          "indexed": false,
          "internalType": "uint256",
          "name": "mass_g",
          "type": "uint256"
        },
        {
          "indexed": true,
          "internalType": "string",
          "name": "project",
          "type": "string"
        }
      ],
      "name": "PurchaseFulfilled",
      "type": "event"
    },
    {
      "inputs": [
        {
          "internalType": "address",
          "name": "owner",
          "type": "address"
        },
        {
          "internalType": "uint256",
          "name": "projectId",
          "type": "uint256"
        }
      ],
      "name": "balanceOf",
      "outputs": [
        {
          "internalType": "uint256",
          "name": "balance",
          "type": "uint256"
        }
      ],
      "stateMutability": "view",
      "type": "function"
    },
    {
      "inputs": [
        {
          "internalType": "address",
          "name": "owner",
          "type": "address"
        },
        {
          "internalType": "string",
          "name": "project",
          "type": "string"
        }
      ],
      "name": "balanceOf",
      "outputs": [
        {
          "internalType": "uint256",
          "name": "balance",
          "type": "uint256"
        }
      ],
      "stateMutability": "view",
      "type": "function"
    },
    {
      "inputs": [
        {
          "internalType": "string",
          "name": "patchProjectId",
          "type": "string"
        }
      ],
      "name": "buy",
      "outputs": [
        {
          "internalType": "bool",
          "name": "",
          "type": "bool"
        }
      ],
      "stateMutability": "payable",
      "type": "function"
    },
    {
      "inputs": [],
      "name": "count",
      "outputs": [
        {
          "internalType": "uint256",
          "name": "",
          "type": "uint256"
        }
      ],
      "stateMutability": "view",
      "type": "function"
    },
    {
      "inputs": [
        {
          "internalType": "uint256",
          "name": "priceInPenny",
          "type": "uint256"
        },
        {
          "internalType": "string",
          "name": "patchProjectId",
          "type": "string"
        }
      ],
      "name": "executeBuy",
      "outputs": [],
      "stateMutability": "nonpayable",
      "type": "function"
    },
    {
      "inputs": [
        {
          "internalType": "bytes32",
          "name": "requestId",
          "type": "bytes32"
        },
        {
          "internalType": "string",
          "name": "tokenURI",
          "type": "string"
        },
        {
          "internalType": "uint256",
          "name": "mass_g",
          "type": "uint256"
        },
        {
          "internalType": "string",
          "name": "project",
          "type": "string"
        }
      ],
      "name": "fulfillBytes",
      "outputs": [],
      "stateMutability": "nonpayable",
      "type": "function"
    },
    {
      "inputs": [
        {
          "internalType": "string",
          "name": "project",
          "type": "string"
        },
        {
          "internalType": "string",
          "name": "symbol",
          "type": "string"
        }
      ],
      "name": "generateFT",
      "outputs": [],
      "stateMutability": "nonpayable",
      "type": "function"
    },
    {
      "inputs": [],
      "name": "getLatestPrice",
      "outputs": [
        {
          "internalType": "int256",
          "name": "",
          "type": "int256"
        }
      ],
      "stateMutability": "view",
      "type": "function"
    },
    {
      "inputs": [
        {
          "internalType": "bytes32",
          "name": "",
          "type": "bytes32"
        }
      ],
      "name": "initiator",
      "outputs": [
        {
          "internalType": "address",
          "name": "",
          "type": "address"
        }
      ],
      "stateMutability": "view",
      "type": "function"
    },
    {
      "inputs": [],
      "name": "priceInPenny",
      "outputs": [
        {
          "internalType": "uint256",
          "name": "",
          "type": "uint256"
        }
      ],
      "stateMutability": "view",
      "type": "function"
    },
    {
      "inputs": [
        {
          "internalType": "uint256",
          "name": "",
          "type": "uint256"
        }
      ],
      "name": "tokens",
      "outputs": [
        {
          "internalType": "contract ProjectFT",
          "name": "",
          "type": "address"
        }
      ],
      "stateMutability": "view",
      "type": "function"
    }
  ],
  "bytecode": "0x608060405260016005553480156200001657600080fd5b5060405162002757380380620027578339810160408190526200003991620000ca565b600080546001600160a01b03191673d0d5e3db44de05e9f294bb0a3beeaf030de24ada17905581816200008882600380546001600160a01b0319166001600160a01b0392909216919091179055565b600480546001600160a01b0319166001600160a01b0383161790555050505062000102565b80516001600160a01b0381168114620000c557600080fd5b919050565b60008060408385031215620000de57600080fd5b620000e983620000ad565b9150620000f960208401620000ad565b90509250929050565b61264580620001126000396000f3fe608060405260043610620000a85760003560e01c8063492cc769116200006c578063492cc769146200018f5780634bdb02e514620001b75780634f64b2be14620001dc5780635ce06dff14620002165780638e15f473146200023b578063b9b092c8146200025357600080fd5b8062fdd58e14620000ad57806306661abd14620000e55780630b848b7614620000fd5780631fdf7f6a14620001505780632d3bdd1a1462000177575b600080fd5b348015620000ba57600080fd5b50620000d2620000cc36600462001381565b62000278565b6040519081526020015b60405180910390f35b348015620000f257600080fd5b50620000d260095481565b3480156200010a57600080fd5b50620001376200011c366004620013d2565b6008602052600090815260409020546001600160a01b031681565b6040516001600160a01b039091168152602001620000dc565b3480156200015d57600080fd5b50620001756200016f366004620013ec565b62000360565b005b3480156200018457600080fd5b50620000d2600a5481565b620001a6620001a0366004620014e7565b6200055c565b6040519015158152602001620000dc565b348015620001c457600080fd5b5062000175620001d636600462001539565b62000617565b348015620001e957600080fd5b5062000137620001fb366004620013d2565b6007602052600090815260409020546001600160a01b031681565b3480156200022357600080fd5b50620001756200023536600462001475565b6200083f565b3480156200024857600080fd5b50620000d2620008f0565b3480156200026057600080fd5b50620000d26200027236600462001329565b6200097c565b6000818152600760205260408120546001600160a01b031680620002d95760405162461bcd60e51b81526020600482015260136024820152721c1c9bda9958dd1259081b9bdd08199bdd5b99606a1b60448201526064015b60405180910390fd5b6040516370a0823160e01b81526001600160a01b0385811660048301528216906370a082319060240160206040518083038186803b1580156200031b57600080fd5b505afa15801562000330573d6000803e3d6000fd5b505050506040513d601f19601f820116820180604052508101906200035691906200151f565b9150505b92915050565b60008681526006602052604090205486906001600160a01b03163314620003db5760405162461bcd60e51b815260206004820152602860248201527f536f75726365206d75737420626520746865206f7261636c65206f6620746865604482015267081c995c5d595cdd60c21b6064820152608401620002d0565b60008181526006602052604080822080546001600160a01b03191690555182917f7cc135e0cebb02c3480ae5d74d377283180a2601f8f644edf7987b009316c63a91a28282604051620004309291906200162f565b604051809103902086866040516200044a9291906200162f565b6040518091039020887f34492e80efe5e3007f51fd61d4182a0b5e88745e0c3daf0a7100ff9c964498e8876040516200048591815260200190565b60405180910390a460008383604051620004a19291906200162f565b6040805191829003909120600081815260076020908152838220548c83526008909152929020549092506001600160a01b039182169182916340c10f199116620004f18964e8d4a51000620018eb565b6040516001600160e01b031960e085901b1681526001600160a01b0390921660048301526024820152604401600060405180830381600087803b1580156200053857600080fd5b505af11580156200054d573d6000803e3d6000fd5b50505050505050505050505050565b6000803411620005bb5760405162461bcd60e51b8152602060048201526024808201527f506c656173652073656e642076616c756520746f20746865207472616e7361636044820152633a34b7b760e11b6064820152608401620002d0565b6ec097ce7bc90715b34b9f1000000000620005d5620008f0565b620005e19034620018eb565b620005f29064e8d4a51000620018eb565b620005fe9190620017cf565b600a8190556200060f908362000617565b506001919050565b7f346564366433383362386136346239666234343533623138313966383066663160006200064584620009ac565b90507f54e10f5cddeef93469b7d588605ad32456dcb3c62d6e12d8efd744cc14fe1e2984846040516200067a92919062001799565b60405180910390a1600080620006998430630fefbfb560e11b62000ac1565b9050620006e96040518060400160405280600381526020016219d95d60ea1b8152508487604051602001620006d09291906200163f565b60408051601f1981840301815291905283919062000aec565b6200074360405180604001604052806005815260200164706174683160d81b8152506040518060400160405280600e81526020016d646174612c746f6b656e5f75726960901b8152508362000aec9092919063ffffffff16565b6200079a604051806040016040528060058152602001643830ba341960d91b8152506040518060400160405280600b81526020016a646174612c6d6173735f6760a81b8152508362000aec9092919063ffffffff16565b620007f260405180604001604052806005815260200164706174683360d81b8152506040518060400160405280600c81526020016b19185d184b1c1c9bda9958dd60a21b8152508362000aec9092919063ffffffff16565b600062000800828462000b13565b600081815260086020526040812080546001600160a01b031916331790556009805492935090620008318362001956565b919050555050505050505050565b60008484604051620008539291906200162f565b60408051918290039091206000818152600760205291909120549091506001600160a01b031680620008e857858585856040516200089190620011c9565b620008a0949392919062001763565b604051809103906000f080158015620008bd573d6000803e3d6000fd5b50600083815260076020526040902080546001600160a01b0319166001600160a01b03831617905590505b505050505050565b6000805460408051633fabe5a360e21b8152905183926001600160a01b03169163feaf968c9160048083019260a0929190829003018186803b1580156200093657600080fd5b505afa1580156200094b573d6000803e3d6000fd5b505050506040513d601f19601f8201168201806040525081019062000971919062001583565b509195945050505050565b6000620009a4848484604051620009959291906200162f565b60405190819003902062000278565b949350505050565b606081620009d15750506040805180820190915260018152600360fc1b602082015290565b8160005b811562000a015780620009e88162001956565b9150620009f99050600a83620017cf565b9150620009d5565b6000816001600160401b0381111562000a1e5762000a1e620019cd565b6040519080825280601f01601f19166020018201604052801562000a49576020820181803683370190505b5090505b8415620009a45762000a616001836200190d565b915062000a70600a8662001974565b62000a7d906030620017b4565b60f81b81838151811062000a955762000a95620019b7565b60200101906001600160f81b031916908160001a90535062000ab9600a86620017cf565b945062000a4d565b62000acb620011d7565b62000ad5620011d7565b62000ae38186868662000b36565b95945050505050565b608083015162000afd908362000b77565b608083015162000b0e908262000b77565b505050565b60045460009062000b2f906001600160a01b0316848462000b92565b9392505050565b62000b40620011d7565b62000b52856080015161010062000c2b565b50509183526001600160a01b031660208301526001600160e01b031916604082015290565b62000b86826003835162000c99565b62000b0e828262000dbc565b60055460009062000ba5816001620017b4565b600555835160408086015160808701515191516000936320214ca360e11b9362000bdf9386938493923092918a91600191602401620016d0565b60408051601f198184030181529190526020810180516001600160e01b03166001600160e01b031990931692909217909152905062000c218683868462000de5565b9695505050505050565b60408051808201909152606081526000602082015262000c4d60208362001974565b1562000c7c5762000c6060208362001974565b62000c6d9060206200190d565b62000c799083620017b4565b91505b506020828101829052604080518085526000815290920101905290565b6017816001600160401b03161162000cc65762000cc08360e0600585901b16831762000f5a565b50505050565b60ff816001600160401b03161162000d075762000cef836018611fe0600586901b161762000f5a565b5062000cc0836001600160401b038316600162000f81565b61ffff816001600160401b03161162000d495762000d31836019611fe0600586901b161762000f5a565b5062000cc0836001600160401b038316600262000f81565b63ffffffff816001600160401b03161162000d8d5762000d7583601a611fe0600586901b161762000f5a565b5062000cc0836001600160401b038316600462000f81565b62000da483601b611fe0600586901b161762000f5a565b5062000cc0836001600160401b038316600862000f81565b60408051808201909152606081526000602082015262000b2f8384600001515184855162000fa9565b6040516bffffffffffffffffffffffff193060601b1660208201526034810184905260009060540160408051808303601f1901815282825280516020918201206000818152600690925291812080546001600160a01b0319166001600160a01b038a1617905590925082917fb5e6e01e79f91267dc17b4e6314d5d4d03593d2ceee0fbb452b750bd70ea5af99190a2600354604051630200057560e51b81526001600160a01b0390911690634000aea09062000eaa908890879087906004016200173a565b602060405180830381600087803b15801562000ec557600080fd5b505af115801562000eda573d6000803e3d6000fd5b505050506040513d601f19601f8201168201806040525081019062000f009190620013ae565b620009a45760405162461bcd60e51b815260206004820152602360248201527f756e61626c6520746f207472616e73666572416e6443616c6c20746f206f7261604482015262636c6560e81b6064820152608401620002d0565b60408051808201909152606081526000602082015262000b2f8384600001515184620010a8565b604080518082019091526060815260006020820152620009a484856000015151858562001109565b604080518082019091526060815260006020820152825182111562000fcd57600080fd5b602085015162000fde8386620017b4565b11156200101a576200101a856200100787602001518786620010019190620017b4565b62001195565b62001014906002620018eb565b620011ae565b6000808651805187602083010193508088870111156200103a5787860182525b505050602084015b602084106200108257805182526200105c602083620017b4565b91506200106b602082620017b4565b90506200107a6020856200190d565b935062001042565b51815160001960208690036101000a019081169019919091161790525083949350505050565b60408051808201909152606081526000602082015283602001518310620010e157620010e18485602001516002620010149190620018eb565b835180516020858301018481535080851415620010ff576001810182525b5093949350505050565b60408051808201909152606081526000602082015260208501516200112f8584620017b4565b111562001147576200114785620010078685620017b4565b6000600162001159846101006200182f565b6200116591906200190d565b90508551838682010185831982511617815250805184870111156200118a5783860181525b509495945050505050565b600081831115620011a85750816200035a565b50919050565b8151620011bc838362000c2b565b5062000cc0838262000dbc565b610c2c80620019e483390190565b6040805160a0810182526000808252602080830182905282840182905260608084018390528451808601909552845283015290608082015290565b80356001600160a01b03811681146200122a57600080fd5b919050565b60008083601f8401126200124257600080fd5b5081356001600160401b038111156200125a57600080fd5b6020830191508360208285010111156200127357600080fd5b9250929050565b600082601f8301126200128c57600080fd5b81356001600160401b0380821115620012a957620012a9620019cd565b604051601f8301601f19908116603f01168101908282118183101715620012d457620012d4620019cd565b81604052838152866020858801011115620012ee57600080fd5b836020870160208301376000602085830101528094505050505092915050565b805169ffffffffffffffffffff811681146200122a57600080fd5b6000806000604084860312156200133f57600080fd5b6200134a8462001212565b925060208401356001600160401b038111156200136657600080fd5b62001374868287016200122f565b9497909650939450505050565b600080604083850312156200139557600080fd5b620013a08362001212565b946020939093013593505050565b600060208284031215620013c157600080fd5b8151801515811462000b2f57600080fd5b600060208284031215620013e557600080fd5b5035919050565b600080600080600080608087890312156200140657600080fd5b8635955060208701356001600160401b03808211156200142557600080fd5b620014338a838b016200122f565b90975095506040890135945060608901359150808211156200145457600080fd5b506200146389828a016200122f565b979a9699509497509295939492505050565b600080600080604085870312156200148c57600080fd5b84356001600160401b0380821115620014a457600080fd5b620014b2888389016200122f565b90965094506020870135915080821115620014cc57600080fd5b50620014db878288016200122f565b95989497509550505050565b600060208284031215620014fa57600080fd5b81356001600160401b038111156200151157600080fd5b62000356848285016200127a565b6000602082840312156200153257600080fd5b5051919050565b600080604083850312156200154d57600080fd5b8235915060208301356001600160401b038111156200156b57600080fd5b62001579858286016200127a565b9150509250929050565b600080600080600060a086880312156200159c57600080fd5b620015a7866200130e565b9450602086015193506040860151925060608601519150620015cc608087016200130e565b90509295509295909350565b60008151808452620015f281602086016020860162001927565b601f01601f19169290920160200192915050565b81835281816020850137506000828201602090810191909152601f909101601f19169091010190565b8183823760009101908152919050565b7f68747470733a2f2f706174636870757263686173652e6e65746c6966792e617081526f702f6170692f6275793f70726963653d60801b6020820152600083516200169281603085016020880162001927565b6f26706174636850726f6a65637449643d60801b6030918401918201528351620016c481604084016020880162001927565b01604001949350505050565b6001600160a01b0389811682526020820189905260408201889052861660608201526001600160e01b03198516608082015260a0810184905260c0810183905261010060e082018190526000906200172b83820185620015d8565b9b9a5050505050505050505050565b60018060a01b038416815282602082015260606040820152600062000ae36060830184620015d8565b6040815260006200177960408301868862001606565b82810360208401526200178e81858762001606565b979650505050505050565b828152604060208201526000620009a46040830184620015d8565b60008219821115620017ca57620017ca6200198b565b500190565b600082620017e157620017e1620019a1565b500490565b600181815b80851115620018275781600019048211156200180b576200180b6200198b565b808516156200181957918102915b93841c9390800290620017eb565b509250929050565b600062000b2f838360008262001848575060016200035a565b8162001857575060006200035a565b81600181146200187057600281146200187b576200189b565b60019150506200035a565b60ff8411156200188f576200188f6200198b565b50506001821b6200035a565b5060208310610133831016604e8410600b8410161715620018c0575081810a6200035a565b620018cc8383620017e6565b8060001904821115620018e357620018e36200198b565b029392505050565b60008160001904831182151516156200190857620019086200198b565b500290565b6000828210156200192257620019226200198b565b500390565b60005b83811015620019445781810151838201526020016200192a565b8381111562000cc05750506000910152565b60006000198214156200196d576200196d6200198b565b5060010190565b600082620019865762001986620019a1565b500690565b634e487b7160e01b600052601160045260246000fd5b634e487b7160e01b600052601260045260246000fd5b634e487b7160e01b600052603260045260246000fd5b634e487b7160e01b600052604160045260246000fdfe60806040523480156200001157600080fd5b5060405162000c2c38038062000c2c8339810160408190526200003491620001cb565b8151829082906200004d9060039060208501906200006e565b508051620000639060049060208401906200006e565b505050505062000288565b8280546200007c9062000235565b90600052602060002090601f016020900481019282620000a05760008555620000eb565b82601f10620000bb57805160ff1916838001178555620000eb565b82800160010185558215620000eb579182015b82811115620000eb578251825591602001919060010190620000ce565b50620000f9929150620000fd565b5090565b5b80821115620000f95760008155600101620000fe565b600082601f8301126200012657600080fd5b81516001600160401b038082111562000143576200014362000272565b604051601f8301601f19908116603f011681019082821181831017156200016e576200016e62000272565b816040528381526020925086838588010111156200018b57600080fd5b600091505b83821015620001af578582018301518183018401529082019062000190565b83821115620001c15760008385830101525b9695505050505050565b60008060408385031215620001df57600080fd5b82516001600160401b0380821115620001f757600080fd5b620002058683870162000114565b935060208501519150808211156200021c57600080fd5b506200022b8582860162000114565b9150509250929050565b600181811c908216806200024a57607f821691505b602082108114156200026c57634e487b7160e01b600052602260045260246000fd5b50919050565b634e487b7160e01b600052604160045260246000fd5b61099480620002986000396000f3fe608060405234801561001057600080fd5b50600436106100b45760003560e01c806340c10f191161007157806340c10f191461014157806370a082311461015657806395d89b411461017f578063a457c2d714610187578063a9059cbb1461019a578063dd62ed3e146101ad57600080fd5b806306fdde03146100b9578063095ea7b3146100d757806318160ddd146100fa57806323b872dd1461010c578063313ce5671461011f578063395093511461012e575b600080fd5b6100c16101c0565b6040516100ce91906108a8565b60405180910390f35b6100ea6100e536600461087e565b610252565b60405190151581526020016100ce565b6002545b6040519081526020016100ce565b6100ea61011a366004610842565b61026a565b604051601281526020016100ce565b6100ea61013c36600461087e565b61028e565b61015461014f36600461087e565b6102b0565b005b6100fe6101643660046107ed565b6001600160a01b031660009081526020819052604090205490565b6100c16102be565b6100ea61019536600461087e565b6102cd565b6100ea6101a836600461087e565b61034d565b6100fe6101bb36600461080f565b61035b565b6060600380546101cf90610923565b80601f01602080910402602001604051908101604052809291908181526020018280546101fb90610923565b80156102485780601f1061021d57610100808354040283529160200191610248565b820191906000526020600020905b81548152906001019060200180831161022b57829003601f168201915b5050505050905090565b600033610260818585610386565b5060019392505050565b6000336102788582856104aa565b610283858585610524565b506001949350505050565b6000336102608185856102a1838361035b565b6102ab91906108fd565b610386565b6102ba82826106f2565b5050565b6060600480546101cf90610923565b600033816102db828661035b565b9050838110156103405760405162461bcd60e51b815260206004820152602560248201527f45524332303a2064656372656173656420616c6c6f77616e63652062656c6f77604482015264207a65726f60d81b60648201526084015b60405180910390fd5b6102838286868403610386565b600033610260818585610524565b6001600160a01b03918216600090815260016020908152604080832093909416825291909152205490565b6001600160a01b0383166103e85760405162461bcd60e51b8152602060048201526024808201527f45524332303a20617070726f76652066726f6d20746865207a65726f206164646044820152637265737360e01b6064820152608401610337565b6001600160a01b0382166104495760405162461bcd60e51b815260206004820152602260248201527f45524332303a20617070726f766520746f20746865207a65726f206164647265604482015261737360f01b6064820152608401610337565b6001600160a01b0383811660008181526001602090815260408083209487168084529482529182902085905590518481527f8c5be1e5ebec7d5bd14f71427d1e84f3dd0314c0f7b2291e5b200ac8c7c3b925910160405180910390a3505050565b60006104b6848461035b565b9050600019811461051e57818110156105115760405162461bcd60e51b815260206004820152601d60248201527f45524332303a20696e73756666696369656e7420616c6c6f77616e63650000006044820152606401610337565b61051e8484848403610386565b50505050565b6001600160a01b0383166105885760405162461bcd60e51b815260206004820152602560248201527f45524332303a207472616e736665722066726f6d20746865207a65726f206164604482015264647265737360d81b6064820152608401610337565b6001600160a01b0382166105ea5760405162461bcd60e51b815260206004820152602360248201527f45524332303a207472616e7366657220746f20746865207a65726f206164647260448201526265737360e81b6064820152608401610337565b6001600160a01b038316600090815260208190526040902054818110156106625760405162461bcd60e51b815260206004820152602660248201527f45524332303a207472616e7366657220616d6f756e7420657863656564732062604482015265616c616e636560d01b6064820152608401610337565b6001600160a01b038085166000908152602081905260408082208585039055918516815290812080548492906106999084906108fd565b92505081905550826001600160a01b0316846001600160a01b03167fddf252ad1be2c89b69c2b068fc378daa952ba7f163c4a11628f55a4df523b3ef846040516106e591815260200190565b60405180910390a361051e565b6001600160a01b0382166107485760405162461bcd60e51b815260206004820152601f60248201527f45524332303a206d696e7420746f20746865207a65726f2061646472657373006044820152606401610337565b806002600082825461075a91906108fd565b90915550506001600160a01b038216600090815260208190526040812080548392906107879084906108fd565b90915550506040518181526001600160a01b038316906000907fddf252ad1be2c89b69c2b068fc378daa952ba7f163c4a11628f55a4df523b3ef9060200160405180910390a35050565b80356001600160a01b03811681146107e857600080fd5b919050565b6000602082840312156107ff57600080fd5b610808826107d1565b9392505050565b6000806040838503121561082257600080fd5b61082b836107d1565b9150610839602084016107d1565b90509250929050565b60008060006060848603121561085757600080fd5b610860846107d1565b925061086e602085016107d1565b9150604084013590509250925092565b6000806040838503121561089157600080fd5b61089a836107d1565b946020939093013593505050565b600060208083528351808285015260005b818110156108d5578581018301518582016040015282016108b9565b818111156108e7576000604083870101525b50601f01601f1916929092016040019392505050565b6000821982111561091e57634e487b7160e01b600052601160045260246000fd5b500190565b600181811c9082168061093757607f821691505b6020821081141561095857634e487b7160e01b600052602260045260246000fd5b5091905056fea264697066735822122027ff017cf2b0d6bba361c8852dc81958ee15af8833098a6ddc0eaf81ddebea7864736f6c63430008070033a264697066735822122096d4f47403a903d2f3a3efe26d69de7532948834f55ed5f0ba2ec1aff4df102d64736f6c63430008070033",
  "linkReferences": {},
  "deployedLinkReferences": {}
}