{
  "_format": "hh-sol-artifact-1",
  "contractName": "SharedVariables",
  "sourceName": "src/PatchBuyer.sol",
  "abi": [
    {
      "inputs": [],
      "name": "USDC",
      "outputs": [
        {
          "internalType": "contract ERC20",
          "name": "",
          "type": "ERC20"
        }
      ],
      "stateMutability": "view",
      "type": "function"
    }
  ],
  "bytecode": "0x60a4610038600b82828239805160001a607314602b57634e487b7160e01b600052600060045260246000fd5b30600052607381538281f3fe730000000000000000000000000000000000000000301460806040526004361060335760003560e01c806389a30271146038575b600080fd5b605273dbc4c91be4722e54672bcccb5ead82c9bcf356f681565b6040516001600160a01b03909116815260200160405180910390f3fea2646970667358221220daa0fa03df04c4a041a791537cf212a111e16f04cfbcf669ed927d07ebad157264736f6c63430008070033",
  "linkReferences": {},
  "deployedLinkReferences": {}
}